{
  "contractName": "AaveRegistry",
  "abi": [
    {
      "anonymous": false,
      "inputs": [
        {
          "indexed": true,
          "internalType": "address",
          "name": "previousOwner",
          "type": "address"
        },
        {
          "indexed": true,
          "internalType": "address",
          "name": "newOwner",
          "type": "address"
        }
      ],
      "name": "OwnershipTransferred",
      "type": "event"
    },
    {
      "constant": true,
      "inputs": [],
      "name": "isOwner",
      "outputs": [
        {
          "internalType": "bool",
          "name": "",
          "type": "bool"
        }
      ],
      "payable": false,
      "stateMutability": "view",
      "type": "function"
    },
    {
      "constant": true,
      "inputs": [],
      "name": "owner",
      "outputs": [
        {
          "internalType": "address",
          "name": "",
          "type": "address"
        }
      ],
      "payable": false,
      "stateMutability": "view",
      "type": "function"
    },
    {
      "constant": false,
      "inputs": [],
      "name": "renounceOwnership",
      "outputs": [],
      "payable": false,
      "stateMutability": "nonpayable",
      "type": "function"
    },
    {
      "constant": false,
      "inputs": [
        {
          "internalType": "address",
          "name": "newOwner",
          "type": "address"
        }
      ],
      "name": "transferOwnership",
      "outputs": [],
      "payable": false,
      "stateMutability": "nonpayable",
      "type": "function"
    },
    {
      "constant": true,
      "inputs": [
        {
          "internalType": "contract IAaveToken",
          "name": "aToken",
          "type": "address"
        }
      ],
      "name": "tokenByAToken",
      "outputs": [
        {
          "internalType": "contract IERC20",
          "name": "",
          "type": "address"
        }
      ],
      "payable": false,
      "stateMutability": "view",
      "type": "function"
    },
    {
      "constant": true,
      "inputs": [
        {
          "internalType": "contract IERC20",
          "name": "token",
          "type": "address"
        }
      ],
      "name": "aTokenByToken",
      "outputs": [
        {
          "internalType": "contract IAaveToken",
          "name": "",
          "type": "address"
        }
      ],
      "payable": false,
      "stateMutability": "view",
      "type": "function"
    },
    {
      "constant": false,
      "inputs": [
        {
          "internalType": "contract IAaveToken",
          "name": "aToken",
          "type": "address"
        }
      ],
      "name": "addAToken",
      "outputs": [],
      "payable": false,
      "stateMutability": "nonpayable",
      "type": "function"
    },
    {
      "constant": false,
      "inputs": [
        {
          "internalType": "contract IAaveToken[]",
          "name": "cTokens",
          "type": "address[]"
        }
      ],
      "name": "addATokens",
      "outputs": [],
      "payable": false,
      "stateMutability": "nonpayable",
      "type": "function"
    }
  ],
  "bytecode": "0x608060405260006100176001600160e01b0361006616565b600080546001600160a01b0319166001600160a01b0383169081178255604051929350917f8be0079c531659141344cd1fd0a4f28419497f9722a3daafe3b4186f6b6457e0908290a35061006a565b3390565b610681806100796000396000f3fe608060405234801561001057600080fd5b50600436106100885760003560e01c80638da5cb5b1161005b5780638da5cb5b1461016f5780638f32d59b14610177578063a8e6574214610193578063f2fde38b146101b957610088565b806310b1f5261461008d5780634781b14e146100b55780635f5418f314610125578063715018a614610167575b600080fd5b6100b3600480360360208110156100a357600080fd5b50356001600160a01b03166101df565b005b6100b3600480360360208110156100cb57600080fd5b8101906020810181356401000000008111156100e657600080fd5b8201836020820111156100f857600080fd5b8035906020019184602083028401116401000000008311171561011a57600080fd5b5090925090506102d7565b61014b6004803603602081101561013b57600080fd5b50356001600160a01b031661035a565b604080516001600160a01b039092168252519081900360200190f35b6100b36103b0565b61014b610441565b61017f610450565b604080519115158252519081900360200190f35b61014b600480360360208110156101a957600080fd5b50356001600160a01b0316610474565b6100b3600480360360208110156101cf57600080fd5b50356001600160a01b03166104d5565b6101e7610450565b610226576040805162461bcd60e51b8152602060048201819052602482015260008051602061062d833981519152604482015290519081900360640190fd5b6000816001600160a01b03166389d1a0fc6040518163ffffffff1660e01b815260040160206040518083038186803b15801561026157600080fd5b505afa158015610275573d6000803e3d6000fd5b505050506040513d602081101561028b57600080fd5b50516001600160a01b0392831660008181526001602090815260408083208054979095166001600160a01b03199788168117909555938252600290529190912080549093161790915550565b6102df610450565b61031e576040805162461bcd60e51b8152602060048201819052602482015260008051602061062d833981519152604482015290519081900360640190fd5b60005b818110156103555761034d83838381811061033857fe5b905060200201356001600160a01b03166101df565b600101610321565b505050565b600061036e826001600160a01b0316610528565b1561038e5750733a3a65aab0dd2a17e3f1947ba16138cd37d08c046103ab565b506001600160a01b03808216600090815260026020526040902054165b919050565b6103b8610450565b6103f7576040805162461bcd60e51b8152602060048201819052602482015260008051602061062d833981519152604482015290519081900360640190fd5b600080546040516001600160a01b03909116907f8be0079c531659141344cd1fd0a4f28419497f9722a3daafe3b4186f6b6457e0908390a3600080546001600160a01b0319169055565b6000546001600160a01b031690565b600080546001600160a01b0316610465610562565b6001600160a01b031614905090565b60006001600160a01b038216733a3a65aab0dd2a17e3f1947ba16138cd37d08c0414156104b6575073eeeeeeeeeeeeeeeeeeeeeeeeeeeeeeeeeeeeeeee6103ab565b506001600160a01b039081166000908152600160205260409020541690565b6104dd610450565b61051c576040805162461bcd60e51b8152602060048201819052602482015260008051602061062d833981519152604482015290519081900360640190fd5b61052581610566565b50565b60006001600160a01b038216158061055c57506001600160a01b03821673eeeeeeeeeeeeeeeeeeeeeeeeeeeeeeeeeeeeeeee145b92915050565b3390565b6001600160a01b0381166105ab5760405162461bcd60e51b81526004018080602001828103825260268152602001806106076026913960400191505060405180910390fd5b600080546040516001600160a01b03808516939216917f8be0079c531659141344cd1fd0a4f28419497f9722a3daafe3b4186f6b6457e091a3600080546001600160a01b0319166001600160a01b039290921691909117905556fe4f776e61626c653a206e6577206f776e657220697320746865207a65726f20616464726573734f776e61626c653a2063616c6c6572206973206e6f7420746865206f776e6572a265627a7a7231582006d1b12cdba7d2c0e49522ba819d553132c01e63489f7e928b35f0426a4399a164736f6c63430005110032",
  "source": "pragma solidity ^0.5.0;\n\nimport \"@openzeppelin/contracts/ownership/Ownable.sol\";\nimport \"@openzeppelin/contracts/token/ERC20/IERC20.sol\";\nimport \"./interface/IAaveRegistry.sol\";\nimport \"./UniversalERC20.sol\";\n\n\ncontract AaveRegistry is Ownable, IAaveRegistry {\n    using UniversalERC20 for IERC20;\n\n    IAaveToken internal constant aETH = IAaveToken(0x3a3A65aAb0dd2A17E3F1947bA16138cd37d08c04);\n    IERC20 internal constant ETH = IERC20(0xEeeeeEeeeEeEeeEeEeEeeEEEeeeeEeeeeeeeEEeE);\n\n    mapping(address => address) private _tokenByAToken;\n    mapping(address => address) private _aTokenByToken;\n\n    function tokenByAToken(IAaveToken aToken) external view returns(IERC20) {\n        if (aToken == aETH) {\n            return ETH;\n        }\n        return IERC20(_tokenByAToken[address(aToken)]);\n    }\n\n    function aTokenByToken(IERC20 token) external view returns(IAaveToken) {\n        if (token.isETH()) {\n            return aETH;\n        }\n        return IAaveToken(_aTokenByToken[address(token)]);\n    }\n\n    function addAToken(IAaveToken aToken) public onlyOwner {\n        IERC20 token = IERC20(aToken.underlyingAssetAddress());\n        _tokenByAToken[address(aToken)] = address(token);\n        _aTokenByToken[address(token)] = address(aToken);\n    }\n\n    function addATokens(IAaveToken[] calldata cTokens) external onlyOwner {\n        for (uint i = 0; i < cTokens.length; i++) {\n            addAToken(cTokens[i]);\n        }\n    }\n}\n",
  "sourcePath": "/Users/caos/Downloads/1inchProtocol-master/contracts/AaveRegistry.sol",
  "compiler": {
    "name": "solc",
    "version": "0.5.17+commit.d19bba13.Emscripten.clang"
  },
  "schemaVersion": "3.2.5",
  "updatedAt": "2020-10-25T14:42:35.103Z",
  "devdoc": {
    "methods": {
      "isOwner()": {
        "details": "Returns true if the caller is the current owner."
      },
      "owner()": {
        "details": "Returns the address of the current owner."
      },
      "renounceOwnership()": {
        "details": "Leaves the contract without owner. It will not be possible to call `onlyOwner` functions anymore. Can only be called by the current owner.     * NOTE: Renouncing ownership will leave the contract without an owner, thereby removing any functionality that is only available to the owner."
      },
      "transferOwnership(address)": {
        "details": "Transfers ownership of the contract to a new account (`newOwner`). Can only be called by the current owner."
      }
    }
  },
  "userdoc": {
    "methods": {}
  }
}