{
  "contractName": "BalancerHelper",
  "abi": [
    {
      "constant": true,
      "inputs": [
        {
          "internalType": "contract IBalancerPool",
          "name": "pool",
          "type": "address"
        },
        {
          "internalType": "contract IERC20",
          "name": "fromToken",
          "type": "address"
        },
        {
          "internalType": "contract IERC20",
          "name": "destToken",
          "type": "address"
        },
        {
          "internalType": "uint256[]",
          "name": "amounts",
          "type": "uint256[]"
        }
      ],
      "name": "getReturns",
      "outputs": [
        {
          "internalType": "uint256[]",
          "name": "rets",
          "type": "uint256[]"
        }
      ],
      "payable": false,
      "stateMutability": "view",
      "type": "function"
    }
  ],
  "bytecode": "0x608060405234801561001057600080fd5b50610a8e806100206000396000f3fe608060405234801561001057600080fd5b506004361061002b5760003560e01c806340e10bcc14610030575b600080fd5b6100c16004803603608081101561004657600080fd5b6001600160a01b038235811692602081013582169260408201359092169181019060808101606082013564010000000081111561008257600080fd5b82018360208201111561009457600080fd5b803590602001918460208302840111640100000000831117156100b657600080fd5b509092509050610111565b60408051602080825283518183015283519192839290830191858101910280838360005b838110156100fd5781810151838201526020016100e5565b505050509050019250505060405180910390f35b60606000866001600160a01b031663d4cadf686040518163ffffffff1660e01b815260040160206040518083038186803b15801561014e57600080fd5b505afa158015610162573d6000803e3d6000fd5b505050506040513d602081101561017857600080fd5b50516040805163f8b2cb4f60e01b81526001600160a01b0389811660048301529151929350600092918a169163f8b2cb4f91602480820192602092909190829003018186803b1580156101ca57600080fd5b505afa1580156101de573d6000803e3d6000fd5b505050506040513d60208110156101f457600080fd5b50516040805163f8b2cb4f60e01b81526001600160a01b0389811660048301529151929350600092918b169163f8b2cb4f91602480820192602092909190829003018186803b15801561024657600080fd5b505afa15801561025a573d6000803e3d6000fd5b505050506040513d602081101561027057600080fd5b505160408051634a46c67360e11b81526001600160a01b038b811660048301529151929350600092918c169163948d8ce691602480820192602092909190829003018186803b1580156102c257600080fd5b505afa1580156102d6573d6000803e3d6000fd5b505050506040513d60208110156102ec57600080fd5b505160408051634a46c67360e11b81526001600160a01b038b811660048301529151929350600092918d169163948d8ce691602480820192602092909190829003018186803b15801561033e57600080fd5b505afa158015610352573d6000803e3d6000fd5b505050506040513d602081101561036857600080fd5b50516040805189815260208a8102820101909152909150878015610396578160200160208202803883390190505b50955060005b87811080156103d05750846103cd60028b8b858181106103b857fe5b9050602002013561042390919063ffffffff16565b11155b15610414576103f5858486858d8d878181106103e857fe5b905060200201358b610485565b87828151811061040157fe5b602090810291909101015260010161039c565b50505050505095945050505050565b6000826104325750600061047f565b8282028284828161043f57fe5b041461047c5760405162461bcd60e51b8152600401808060200182810382526021815260200180610a396021913960400191505060405180910390fd5b90505b92915050565b600080610492878661051e565b905060006104a8670de0b6b3a764000085610631565b90506104b48582610693565b905060006104cb8a6104c68c85610755565b61051e565b9050806104de5760009350505050610514565b60006104ea82856107a2565b90506000610500670de0b6b3a764000083610631565b905061050c8a82610693565b955050505050505b9695505050505050565b600081610561576040805162461bcd60e51b815260206004820152600c60248201526b4552525f4449565f5a45524f60a01b604482015290519081900360640190fd5b670de0b6b3a764000083028315806105895750670de0b6b3a764000084828161058657fe5b04145b6105cd576040805162461bcd60e51b815260206004820152601060248201526f11549497d1125597d25395115493905360821b604482015290519081900360640190fd5b6002830481018181101561061b576040805162461bcd60e51b815260206004820152601060248201526f11549497d1125597d25395115493905360821b604482015290519081900360640190fd5b600084828161062657fe5b049695505050505050565b600080600061064085856108b0565b91509150801561068b576040805162461bcd60e51b81526020600482015260116024820152704552525f5355425f554e444552464c4f5760781b604482015290519081900360640190fd5b509392505050565b60008282028315806106ad5750828482816106aa57fe5b04145b6106f1576040805162461bcd60e51b815260206004820152601060248201526f4552525f4d554c5f4f564552464c4f5760801b604482015290519081900360640190fd5b6706f05b59d3b20000810181811015610744576040805162461bcd60e51b815260206004820152601060248201526f4552525f4d554c5f4f564552464c4f5760801b604482015290519081900360640190fd5b6000670de0b6b3a764000082610626565b60008282018381101561047c576040805162461bcd60e51b815260206004820152601060248201526f4552525f4144445f4f564552464c4f5760801b604482015290519081900360640190fd5b600060018310156107f2576040805162461bcd60e51b81526020600482015260156024820152744552525f42504f575f424153455f544f4f5f4c4f5760581b604482015290519081900360640190fd5b671bc16d674ec7ffff831115610848576040805162461bcd60e51b815260206004820152601660248201527508aa4a4be84a09eaebe8482a68abea89e9ebe90928e960531b604482015290519081900360640190fd5b6000610853836108d5565b905060006108618483610631565b9050600061087786610872856108f0565b6108fe565b90508161088857925061047f915050565b600061089987846305f5e100610955565b90506108a58282610693565b979650505050505050565b6000808284106108c657505080820360006108ce565b505081810360015b9250929050565b6000670de0b6b3a76400006108e9836108f0565b0292915050565b670de0b6b3a7640000900490565b6000806002830661091757670de0b6b3a7640000610919565b835b90506002830492505b821561047c576109328485610693565b9350600283061561094a576109478185610693565b90505b600283049250610922565b600082818061096c87670de0b6b3a76400006108b0565b9092509050670de0b6b3a764000080600060015b888410610a29576000670de0b6b3a7640000820290506000806109b48a6109af85670de0b6b3a7640000610631565b6108b0565b915091506109cb876109c6848c610693565b610693565b96506109d7878461051e565b9650866109e657505050610a29565b87156109f0579315935b80156109fa579315935b8415610a1157610a0a8688610631565b9550610a1e565b610a1b8688610755565b95505b505050600101610980565b5090999850505050505050505056fe536166654d6174683a206d756c7469706c69636174696f6e206f766572666c6f77a265627a7a7231582092fbcf7dadbf095b31ea55c6425f7e5b625744db6de17c619f0b64cd368110bb64736f6c63430005110032",
  "source": "pragma solidity ^0.5.0;\n\nimport \"@openzeppelin/contracts/math/SafeMath.sol\";\nimport \"@openzeppelin/contracts/token/ERC20/IERC20.sol\";\nimport \"./interface/IBalancerPool.sol\";\nimport \"./BalancerLib.sol\";\n\n\ncontract BalancerHelper {\n    using SafeMath for uint256;\n\n    function getReturns(\n        IBalancerPool pool,\n        IERC20 fromToken,\n        IERC20 destToken,\n        uint256[] calldata amounts\n    )\n        external\n        view\n        returns(uint256[] memory rets)\n    {\n        uint256 swapFee = pool.getSwapFee();\n        uint256 fromBalance = pool.getBalance(fromToken);\n        uint256 destBalance = pool.getBalance(destToken);\n        uint256 fromWeight = pool.getDenormalizedWeight(fromToken);\n        uint256 destWeight = pool.getDenormalizedWeight(destToken);\n\n        rets = new uint256[](amounts.length);\n        for (uint i = 0; i < amounts.length && amounts[i].mul(2) <= fromBalance; i++) {\n            rets[i] = BalancerLib.calcOutGivenIn(\n                fromBalance,\n                fromWeight,\n                destBalance,\n                destWeight,\n                amounts[i],\n                swapFee\n            );\n        }\n    }\n}\n",
  "sourcePath": "/Users/caos/Downloads/1inchProtocol-master/contracts/BalancerHelper.sol",
  "compiler": {
    "name": "solc",
    "version": "0.5.17+commit.d19bba13.Emscripten.clang"
  },
  "schemaVersion": "3.2.5",
  "updatedAt": "2020-10-25T14:42:35.104Z",
  "devdoc": {
    "methods": {}
  },
  "userdoc": {
    "methods": {}
  }
}