{
  "contractName": "BalancerLib",
  "abi": [
    {
      "constant": true,
      "inputs": [],
      "name": "BONE",
      "outputs": [
        {
          "internalType": "uint256",
          "name": "",
          "type": "uint256"
        }
      ],
      "payable": false,
      "stateMutability": "view",
      "type": "function"
    },
    {
      "constant": true,
      "inputs": [],
      "name": "BPOW_PRECISION",
      "outputs": [
        {
          "internalType": "uint256",
          "name": "",
          "type": "uint256"
        }
      ],
      "payable": false,
      "stateMutability": "view",
      "type": "function"
    },
    {
      "constant": true,
      "inputs": [],
      "name": "EXIT_FEE",
      "outputs": [
        {
          "internalType": "uint256",
          "name": "",
          "type": "uint256"
        }
      ],
      "payable": false,
      "stateMutability": "view",
      "type": "function"
    },
    {
      "constant": true,
      "inputs": [],
      "name": "INIT_POOL_SUPPLY",
      "outputs": [
        {
          "internalType": "uint256",
          "name": "",
          "type": "uint256"
        }
      ],
      "payable": false,
      "stateMutability": "view",
      "type": "function"
    },
    {
      "constant": true,
      "inputs": [],
      "name": "MAX_BOUND_TOKENS",
      "outputs": [
        {
          "internalType": "uint256",
          "name": "",
          "type": "uint256"
        }
      ],
      "payable": false,
      "stateMutability": "view",
      "type": "function"
    },
    {
      "constant": true,
      "inputs": [],
      "name": "MAX_BPOW_BASE",
      "outputs": [
        {
          "internalType": "uint256",
          "name": "",
          "type": "uint256"
        }
      ],
      "payable": false,
      "stateMutability": "view",
      "type": "function"
    },
    {
      "constant": true,
      "inputs": [],
      "name": "MAX_FEE",
      "outputs": [
        {
          "internalType": "uint256",
          "name": "",
          "type": "uint256"
        }
      ],
      "payable": false,
      "stateMutability": "view",
      "type": "function"
    },
    {
      "constant": true,
      "inputs": [],
      "name": "MAX_IN_RATIO",
      "outputs": [
        {
          "internalType": "uint256",
          "name": "",
          "type": "uint256"
        }
      ],
      "payable": false,
      "stateMutability": "view",
      "type": "function"
    },
    {
      "constant": true,
      "inputs": [],
      "name": "MAX_OUT_RATIO",
      "outputs": [
        {
          "internalType": "uint256",
          "name": "",
          "type": "uint256"
        }
      ],
      "payable": false,
      "stateMutability": "view",
      "type": "function"
    },
    {
      "constant": true,
      "inputs": [],
      "name": "MAX_TOTAL_WEIGHT",
      "outputs": [
        {
          "internalType": "uint256",
          "name": "",
          "type": "uint256"
        }
      ],
      "payable": false,
      "stateMutability": "view",
      "type": "function"
    },
    {
      "constant": true,
      "inputs": [],
      "name": "MAX_WEIGHT",
      "outputs": [
        {
          "internalType": "uint256",
          "name": "",
          "type": "uint256"
        }
      ],
      "payable": false,
      "stateMutability": "view",
      "type": "function"
    },
    {
      "constant": true,
      "inputs": [],
      "name": "MIN_BALANCE",
      "outputs": [
        {
          "internalType": "uint256",
          "name": "",
          "type": "uint256"
        }
      ],
      "payable": false,
      "stateMutability": "view",
      "type": "function"
    },
    {
      "constant": true,
      "inputs": [],
      "name": "MIN_BOUND_TOKENS",
      "outputs": [
        {
          "internalType": "uint256",
          "name": "",
          "type": "uint256"
        }
      ],
      "payable": false,
      "stateMutability": "view",
      "type": "function"
    },
    {
      "constant": true,
      "inputs": [],
      "name": "MIN_BPOW_BASE",
      "outputs": [
        {
          "internalType": "uint256",
          "name": "",
          "type": "uint256"
        }
      ],
      "payable": false,
      "stateMutability": "view",
      "type": "function"
    },
    {
      "constant": true,
      "inputs": [],
      "name": "MIN_FEE",
      "outputs": [
        {
          "internalType": "uint256",
          "name": "",
          "type": "uint256"
        }
      ],
      "payable": false,
      "stateMutability": "view",
      "type": "function"
    },
    {
      "constant": true,
      "inputs": [],
      "name": "MIN_WEIGHT",
      "outputs": [
        {
          "internalType": "uint256",
          "name": "",
          "type": "uint256"
        }
      ],
      "payable": false,
      "stateMutability": "view",
      "type": "function"
    }
  ],
  "bytecode": "0x610272610026600b82828239805160001a60731461001957fe5b30600052607381538281f3fe730000000000000000000000000000000000000000301460806040526004361061010a5760003560e01c8063b7b800a4116100a1578063c36596a611610070578063c36596a614610131578063c6580d1214610181578063e4a28a521461010f578063ec093021146101895761010a565b8063b7b800a414610161578063ba019dab14610169578063bc063e1a14610171578063bc694ea2146101795761010a565b8063867378c5116100dd578063867378c5146101415780639381cd2b14610149578063992e2a9214610151578063b0e0d136146101595761010a565b806309a3bbe41461010f578063189d00ca14610129578063218b53821461013157806376c7a3c714610139575b600080fd5b610117610191565b60408051918252519081900360200190f35b61011761019e565b6101176101b2565b6101176101be565b6101176101d0565b6101176101e4565b6101176101f1565b6101176101fd565b610117610202565b610117610207565b61011761020c565b61011761021c565b610117610228565b61011761022d565b6802b5e3af16b188000081565b6402540be400670de0b6b3a76400005b0481565b670de0b6b3a764000081565b620f4240670de0b6b3a76400006101ae565b64e8d4a51000670de0b6b3a76400006101ae565b68056bc75e2d6310000081565b6704a03ce68d21555681565b600881565b600281565b600181565b600a670de0b6b3a76400006101ae565b671bc16d674ec7ffff81565b600081565b6002670de0b6b3a76400006101ae56fea265627a7a72315820bc20323a8c80240e7f99e3ce8a59c24ed0369d8163ff226d8d079cc85c03330b64736f6c63430005110032",
  "source": "pragma solidity ^0.5.0;\n\n\nlibrary BalancerLib {\n    uint public constant BONE              = 10**18;\n\n    uint public constant MIN_BOUND_TOKENS  = 2;\n    uint public constant MAX_BOUND_TOKENS  = 8;\n\n    uint public constant MIN_FEE           = BONE / 10**6;\n    uint public constant MAX_FEE           = BONE / 10;\n    uint public constant EXIT_FEE          = 0;\n\n    uint public constant MIN_WEIGHT        = BONE;\n    uint public constant MAX_WEIGHT        = BONE * 50;\n    uint public constant MAX_TOTAL_WEIGHT  = BONE * 50;\n    uint public constant MIN_BALANCE       = BONE / 10**12;\n\n    uint public constant INIT_POOL_SUPPLY  = BONE * 100;\n\n    uint public constant MIN_BPOW_BASE     = 1 wei;\n    uint public constant MAX_BPOW_BASE     = (2 * BONE) - 1 wei;\n    uint public constant BPOW_PRECISION    = BONE / 10**10;\n\n    uint public constant MAX_IN_RATIO      = BONE / 2;\n    uint public constant MAX_OUT_RATIO     = (BONE / 3) + 1 wei;\n\n    function btoi(uint a)\n        internal pure\n        returns (uint)\n    {\n        return a / BONE;\n    }\n\n    function bfloor(uint a)\n        internal pure\n        returns (uint)\n    {\n        return btoi(a) * BONE;\n    }\n\n    function badd(uint a, uint b)\n        internal pure\n        returns (uint)\n    {\n        uint c = a + b;\n        require(c >= a, \"ERR_ADD_OVERFLOW\");\n        return c;\n    }\n\n    function bsub(uint a, uint b)\n        internal pure\n        returns (uint)\n    {\n        (uint c, bool flag) = bsubSign(a, b);\n        require(!flag, \"ERR_SUB_UNDERFLOW\");\n        return c;\n    }\n\n    function bsubSign(uint a, uint b)\n        internal pure\n        returns (uint, bool)\n    {\n        if (a >= b) {\n            return (a - b, false);\n        } else {\n            return (b - a, true);\n        }\n    }\n\n    function bmul(uint a, uint b)\n        internal pure\n        returns (uint)\n    {\n        uint c0 = a * b;\n        require(a == 0 || c0 / a == b, \"ERR_MUL_OVERFLOW\");\n        uint c1 = c0 + (BONE / 2);\n        require(c1 >= c0, \"ERR_MUL_OVERFLOW\");\n        uint c2 = c1 / BONE;\n        return c2;\n    }\n\n    function bdiv(uint a, uint b)\n        internal pure\n        returns (uint)\n    {\n        require(b != 0, \"ERR_DIV_ZERO\");\n        uint c0 = a * BONE;\n        require(a == 0 || c0 / a == BONE, \"ERR_DIV_INTERNAL\"); // bmul overflow\n        uint c1 = c0 + (b / 2);\n        require(c1 >= c0, \"ERR_DIV_INTERNAL\"); //  badd require\n        uint c2 = c1 / b;\n        return c2;\n    }\n\n    // DSMath.wpow\n    function bpowi(uint a, uint n)\n        internal pure\n        returns (uint)\n    {\n        uint z = n % 2 != 0 ? a : BONE;\n\n        for (n /= 2; n != 0; n /= 2) {\n            a = bmul(a, a);\n\n            if (n % 2 != 0) {\n                z = bmul(z, a);\n            }\n        }\n        return z;\n    }\n\n    // Compute b^(e.w) by splitting it into (b^e)*(b^0.w).\n    // Use `bpowi` for `b^e` and `bpowK` for k iterations\n    // of approximation of b^0.w\n    function bpow(uint base, uint exp)\n        internal pure\n        returns (uint)\n    {\n        require(base >= MIN_BPOW_BASE, \"ERR_BPOW_BASE_TOO_LOW\");\n        require(base <= MAX_BPOW_BASE, \"ERR_BPOW_BASE_TOO_HIGH\");\n\n        uint whole  = bfloor(exp);\n        uint remain = bsub(exp, whole);\n\n        uint wholePow = bpowi(base, btoi(whole));\n\n        if (remain == 0) {\n            return wholePow;\n        }\n\n        uint partialResult = bpowApprox(base, remain, BPOW_PRECISION);\n        return bmul(wholePow, partialResult);\n    }\n\n    function bpowApprox(uint base, uint exp, uint precision)\n        internal pure\n        returns (uint)\n    {\n        // term 0:\n        uint a     = exp;\n        (uint x, bool xneg)  = bsubSign(base, BONE);\n        uint term = BONE;\n        uint sum   = term;\n        bool negative = false;\n\n\n        // term(k) = numer / denom\n        //         = (product(a - i - 1, i=1-->k) * x^k) / (k!)\n        // each iteration, multiply previous term by (a-(k-1)) * x / k\n        // continue until term is less than precision\n        for (uint i = 1; term >= precision; i++) {\n            uint bigK = i * BONE;\n            (uint c, bool cneg) = bsubSign(a, bsub(bigK, BONE));\n            term = bmul(term, bmul(c, x));\n            term = bdiv(term, bigK);\n            if (term == 0) break;\n\n            if (xneg) negative = !negative;\n            if (cneg) negative = !negative;\n            if (negative) {\n                sum = bsub(sum, term);\n            } else {\n                sum = badd(sum, term);\n            }\n        }\n\n        return sum;\n    }\n\n    /**********************************************************************************************\n    // calcSpotPrice                                                                             //\n    // sP = spotPrice                                                                            //\n    // bI = tokenBalanceIn                ( bI / wI )         1                                  //\n    // bO = tokenBalanceOut         sP =  -----------  *  ----------                             //\n    // wI = tokenWeightIn                 ( bO / wO )     ( 1 - sF )                             //\n    // wO = tokenWeightOut                                                                       //\n    // sF = swapFee                                                                              //\n    **********************************************************************************************/\n    function calcSpotPrice(\n        uint tokenBalanceIn,\n        uint tokenWeightIn,\n        uint tokenBalanceOut,\n        uint tokenWeightOut,\n        uint swapFee\n    )\n        internal pure\n        returns (uint spotPrice)\n    {\n        uint numer = bdiv(tokenBalanceIn, tokenWeightIn);\n        uint denom = bdiv(tokenBalanceOut, tokenWeightOut);\n        uint ratio = bdiv(numer, denom);\n        uint scale = bdiv(BONE, bsub(BONE, swapFee));\n        return  (spotPrice = bmul(ratio, scale));\n    }\n\n    /**********************************************************************************************\n    // calcOutGivenIn                                                                            //\n    // aO = tokenAmountOut                                                                       //\n    // bO = tokenBalanceOut                                                                      //\n    // bI = tokenBalanceIn              /      /            bI             \\    (wI / wO) \\      //\n    // aI = tokenAmountIn    aO = bO * |  1 - | --------------------------  | ^            |     //\n    // wI = tokenWeightIn               \\      \\ ( bI + ( aI * ( 1 - sF )) /              /      //\n    // wO = tokenWeightOut                                                                       //\n    // sF = swapFee                                                                              //\n    **********************************************************************************************/\n    function calcOutGivenIn(\n        uint tokenBalanceIn,\n        uint tokenWeightIn,\n        uint tokenBalanceOut,\n        uint tokenWeightOut,\n        uint tokenAmountIn,\n        uint swapFee\n    )\n        internal pure\n        returns (uint tokenAmountOut)\n    {\n        uint weightRatio = bdiv(tokenWeightIn, tokenWeightOut);\n        uint adjustedIn = bsub(BONE, swapFee);\n        adjustedIn = bmul(tokenAmountIn, adjustedIn);\n        uint y = bdiv(tokenBalanceIn, badd(tokenBalanceIn, adjustedIn));\n        if (y == 0) {\n            return 0;\n        }\n        uint foo = bpow(y, weightRatio);\n        uint bar = bsub(BONE, foo);\n        tokenAmountOut = bmul(tokenBalanceOut, bar);\n        return tokenAmountOut;\n    }\n\n    /**********************************************************************************************\n    // calcInGivenOut                                                                            //\n    // aI = tokenAmountIn                                                                        //\n    // bO = tokenBalanceOut               /  /     bO      \\    (wO / wI)      \\                 //\n    // bI = tokenBalanceIn          bI * |  | ------------  | ^            - 1  |                //\n    // aO = tokenAmountOut    aI =        \\  \\ ( bO - aO ) /                   /                 //\n    // wI = tokenWeightIn           --------------------------------------------                 //\n    // wO = tokenWeightOut                          ( 1 - sF )                                   //\n    // sF = swapFee                                                                              //\n    **********************************************************************************************/\n    function calcInGivenOut(\n        uint tokenBalanceIn,\n        uint tokenWeightIn,\n        uint tokenBalanceOut,\n        uint tokenWeightOut,\n        uint tokenAmountOut,\n        uint swapFee\n    )\n        internal pure\n        returns (uint tokenAmountIn)\n    {\n        uint weightRatio = bdiv(tokenWeightOut, tokenWeightIn);\n        uint diff = bsub(tokenBalanceOut, tokenAmountOut);\n        uint y = bdiv(tokenBalanceOut, diff);\n        if (y == 0) {\n            return 0;\n        }\n        uint foo = bpow(y, weightRatio);\n        foo = bsub(foo, BONE);\n        tokenAmountIn = bsub(BONE, swapFee);\n        tokenAmountIn = bdiv(bmul(tokenBalanceIn, foo), tokenAmountIn);\n        return tokenAmountIn;\n    }\n\n    /**********************************************************************************************\n    // calcPoolOutGivenSingleIn                                                                  //\n    // pAo = poolAmountOut         /                                              \\              //\n    // tAi = tokenAmountIn        ///      /     //    wI \\      \\\\       \\     wI \\             //\n    // wI = tokenWeightIn        //| tAi *| 1 - || 1 - --  | * sF || + tBi \\    --  \\            //\n    // tW = totalWeight     pAo=||  \\      \\     \\\\    tW /      //         | ^ tW   | * pS - pS //\n    // tBi = tokenBalanceIn      \\\\  ------------------------------------- /        /            //\n    // pS = poolSupply            \\\\                    tBi               /        /             //\n    // sF = swapFee                \\                                              /              //\n    **********************************************************************************************/\n    function calcPoolOutGivenSingleIn(\n        uint tokenBalanceIn,\n        uint tokenWeightIn,\n        uint poolSupply,\n        uint totalWeight,\n        uint tokenAmountIn,\n        uint swapFee\n    )\n        internal pure\n        returns (uint poolAmountOut)\n    {\n        // Charge the trading fee for the proportion of tokenAi\n        ///  which is implicitly traded to the other pool tokens.\n        // That proportion is (1- weightTokenIn)\n        // tokenAiAfterFee = tAi * (1 - (1-weightTi) * poolFee);\n        uint normalizedWeight = bdiv(tokenWeightIn, totalWeight);\n        uint zaz = bmul(bsub(BONE, normalizedWeight), swapFee);\n        uint tokenAmountInAfterFee = bmul(tokenAmountIn, bsub(BONE, zaz));\n\n        uint newTokenBalanceIn = badd(tokenBalanceIn, tokenAmountInAfterFee);\n        uint tokenInRatio = bdiv(newTokenBalanceIn, tokenBalanceIn);\n\n        // uint newPoolSupply = (ratioTi ^ weightTi) * poolSupply;\n        uint poolRatio = bpow(tokenInRatio, normalizedWeight);\n        uint newPoolSupply = bmul(poolRatio, poolSupply);\n        poolAmountOut = bsub(newPoolSupply, poolSupply);\n        return poolAmountOut;\n    }\n\n    /**********************************************************************************************\n    // calcSingleInGivenPoolOut                                                                  //\n    // tAi = tokenAmountIn              //(pS + pAo)\\     /    1    \\\\                           //\n    // pS = poolSupply                 || ---------  | ^ | --------- || * bI - bI                //\n    // pAo = poolAmountOut              \\\\    pS    /     \\(wI / tW)//                           //\n    // bI = balanceIn          tAi =  --------------------------------------------               //\n    // wI = weightIn                              /      wI  \\                                   //\n    // tW = totalWeight                          |  1 - ----  |  * sF                            //\n    // sF = swapFee                               \\      tW  /                                   //\n    **********************************************************************************************/\n    function calcSingleInGivenPoolOut(\n        uint tokenBalanceIn,\n        uint tokenWeightIn,\n        uint poolSupply,\n        uint totalWeight,\n        uint poolAmountOut,\n        uint swapFee\n    )\n        internal pure\n        returns (uint tokenAmountIn)\n    {\n        uint normalizedWeight = bdiv(tokenWeightIn, totalWeight);\n        uint newPoolSupply = badd(poolSupply, poolAmountOut);\n        uint poolRatio = bdiv(newPoolSupply, poolSupply);\n\n        //uint newBalTi = poolRatio^(1/weightTi) * balTi;\n        uint boo = bdiv(BONE, normalizedWeight);\n        uint tokenInRatio = bpow(poolRatio, boo);\n        uint newTokenBalanceIn = bmul(tokenInRatio, tokenBalanceIn);\n        uint tokenAmountInAfterFee = bsub(newTokenBalanceIn, tokenBalanceIn);\n        // Do reverse order of fees charged in joinswap_ExternAmountIn, this way\n        //     ``` pAo == joinswap_ExternAmountIn(Ti, joinswap_PoolAmountOut(pAo, Ti)) ```\n        //uint tAi = tAiAfterFee / (1 - (1-weightTi) * swapFee) ;\n        uint zar = bmul(bsub(BONE, normalizedWeight), swapFee);\n        tokenAmountIn = bdiv(tokenAmountInAfterFee, bsub(BONE, zar));\n        return tokenAmountIn;\n    }\n\n    /**********************************************************************************************\n    // calcSingleOutGivenPoolIn                                                                  //\n    // tAo = tokenAmountOut            /      /                                             \\\\   //\n    // bO = tokenBalanceOut           /      // pS - (pAi * (1 - eF)) \\     /    1    \\      \\\\  //\n    // pAi = poolAmountIn            | bO - || ----------------------- | ^ | --------- | * b0 || //\n    // ps = poolSupply                \\      \\\\          pS           /     \\(wO / tW)/      //  //\n    // wI = tokenWeightIn      tAo =   \\      \\                                             //   //\n    // tW = totalWeight                    /     /      wO \\       \\                             //\n    // sF = swapFee                    *  | 1 - |  1 - ---- | * sF  |                            //\n    // eF = exitFee                        \\     \\      tW /       /                             //\n    **********************************************************************************************/\n    function calcSingleOutGivenPoolIn(\n        uint tokenBalanceOut,\n        uint tokenWeightOut,\n        uint poolSupply,\n        uint totalWeight,\n        uint poolAmountIn,\n        uint swapFee\n    )\n        internal pure\n        returns (uint tokenAmountOut)\n    {\n        uint normalizedWeight = bdiv(tokenWeightOut, totalWeight);\n        // charge exit fee on the pool token side\n        // pAiAfterExitFee = pAi*(1-exitFee)\n        uint poolAmountInAfterExitFee = bmul(poolAmountIn, bsub(BONE, EXIT_FEE));\n        uint newPoolSupply = bsub(poolSupply, poolAmountInAfterExitFee);\n        uint poolRatio = bdiv(newPoolSupply, poolSupply);\n\n        // newBalTo = poolRatio^(1/weightTo) * balTo;\n        uint tokenOutRatio = bpow(poolRatio, bdiv(BONE, normalizedWeight));\n        uint newTokenBalanceOut = bmul(tokenOutRatio, tokenBalanceOut);\n\n        uint tokenAmountOutBeforeSwapFee = bsub(tokenBalanceOut, newTokenBalanceOut);\n\n        // charge swap fee on the output token side\n        //uint tAo = tAoBeforeSwapFee * (1 - (1-weightTo) * swapFee)\n        uint zaz = bmul(bsub(BONE, normalizedWeight), swapFee);\n        tokenAmountOut = bmul(tokenAmountOutBeforeSwapFee, bsub(BONE, zaz));\n        return tokenAmountOut;\n    }\n\n    /**********************************************************************************************\n    // calcPoolInGivenSingleOut                                                                  //\n    // pAi = poolAmountIn               // /               tAo             \\\\     / wO \\     \\   //\n    // bO = tokenBalanceOut            // | bO - -------------------------- |\\   | ---- |     \\  //\n    // tAo = tokenAmountOut      pS - ||   \\     1 - ((1 - (tO / tW)) * sF)/  | ^ \\ tW /  * pS | //\n    // ps = poolSupply                 \\\\ -----------------------------------/                /  //\n    // wO = tokenWeightOut  pAi =       \\\\               bO                 /                /   //\n    // tW = totalWeight           -------------------------------------------------------------  //\n    // sF = swapFee                                        ( 1 - eF )                            //\n    // eF = exitFee                                                                              //\n    **********************************************************************************************/\n    function calcPoolInGivenSingleOut(\n        uint tokenBalanceOut,\n        uint tokenWeightOut,\n        uint poolSupply,\n        uint totalWeight,\n        uint tokenAmountOut,\n        uint swapFee\n    )\n        internal pure\n        returns (uint poolAmountIn)\n    {\n\n        // charge swap fee on the output token side\n        uint normalizedWeight = bdiv(tokenWeightOut, totalWeight);\n        //uint tAoBeforeSwapFee = tAo / (1 - (1-weightTo) * swapFee) ;\n        uint zoo = bsub(BONE, normalizedWeight);\n        uint zar = bmul(zoo, swapFee);\n        uint tokenAmountOutBeforeSwapFee = bdiv(tokenAmountOut, bsub(BONE, zar));\n\n        uint newTokenBalanceOut = bsub(tokenBalanceOut, tokenAmountOutBeforeSwapFee);\n        uint tokenOutRatio = bdiv(newTokenBalanceOut, tokenBalanceOut);\n\n        //uint newPoolSupply = (ratioTo ^ weightTo) * poolSupply;\n        uint poolRatio = bpow(tokenOutRatio, normalizedWeight);\n        uint newPoolSupply = bmul(poolRatio, poolSupply);\n        uint poolAmountInAfterExitFee = bsub(poolSupply, newPoolSupply);\n\n        // charge exit fee on the pool token side\n        // pAi = pAiAfterExitFee/(1-exitFee)\n        poolAmountIn = bdiv(poolAmountInAfterExitFee, bsub(BONE, EXIT_FEE));\n        return poolAmountIn;\n    }\n}\n",
  "sourcePath": "/Users/caos/Downloads/1inchProtocol-master/contracts/BalancerLib.sol",
  "compiler": {
    "name": "solc",
    "version": "0.5.17+commit.d19bba13.Emscripten.clang"
  },
  "schemaVersion": "3.2.5",
  "updatedAt": "2020-10-25T14:42:35.105Z",
  "devdoc": {
    "methods": {}
  },
  "userdoc": {
    "methods": {}
  }
}