{
  "contractName": "BancorFinder",
  "abi": [
    {
      "constant": true,
      "inputs": [
        {
          "internalType": "contract IERC20",
          "name": "fromToken",
          "type": "address"
        },
        {
          "internalType": "contract IERC20",
          "name": "destToken",
          "type": "address"
        }
      ],
      "name": "buildBancorPath",
      "outputs": [
        {
          "internalType": "address[]",
          "name": "path",
          "type": "address[]"
        }
      ],
      "payable": false,
      "stateMutability": "view",
      "type": "function"
    }
  ],
  "bytecode": "0x608060405234801561001057600080fd5b506108b8806100206000396000f3fe608060405234801561001057600080fd5b506004361061002b5760003560e01c8063fa8f6d1314610030575b600080fd5b61005e6004803603604081101561004657600080fd5b506001600160a01b03813581169160200135166100ae565b60408051602080825283518183015283519192839290830191858101910280838360005b8381101561009a578181015183820152602001610082565b505050509050019250505060405180910390f35b6060816001600160a01b0316836001600160a01b031614156100df5750604080516000815260208101909152610844565b6100f1836001600160a01b031661084a565b1561010e5773eeeeeeeeeeeeeeeeeeeeeeeeeeeeeeeeeeeeeeee92505b610120826001600160a01b031661084a565b1561013d5773eeeeeeeeeeeeeeeeeeeeeeeeeeeeeeeeeeeeeeee91505b6001600160a01b038316731f573d6fb3f13d689ff844b4ce37794d79a7ff1c148061018457506001600160a01b038216731f573d6fb3f13d689ff844b4ce37794d79a7ff1c145b156101af576040805160038082526080820190925290602082016060803883390190505090506101d1565b60408051600580825260c08201909252906020820160a0803883390190505090505b60008060007352ae12abe5d8bd778bd5397f99ca900624cfadd46001600160a01b031663bb34534c6040518163ffffffff1660e01b815260040180807f42616e636f72436f6e7665727465725265676973747279000000000000000000815250602001905060206040518083038186803b15801561024e57600080fd5b505afa158015610262573d6000803e3d6000fd5b505050506040513d602081101561027857600080fd5b505190506001600160a01b038616731f573d6fb3f13d689ff844b4ce37794d79a7ff1c1461043657600060606001600160a01b0380841690620186a090636b625ad960e11b906102c9908c1661084a565b6102d3578a6102e9565b73eeeeeeeeeeeeeeeeeeeeeeeeeeeeeeeeeeeeeeee5b604080516001600160a01b039092166024830152600060448084019190915281518084039091018152606490920181526020820180516001600160e01b03166001600160e01b0319909416939093178352518151919290918291908083835b602083106103675780518252601f199092019160209182019101610348565b6001836020036101000a0380198251168184511680821785525050505050509050019150506000604051808303818686fa925050503d80600081146103c8576040519150601f19603f3d011682016040523d82523d6000602084013e6103cd565b606091505b5091509150816103f65760408051600080825260208201909252905b5095505050505050610844565b80806020019051602081101561040b57600080fd5b505194506001600160a01b0385166104335760408051600080825260208201909252906103e9565b50505b6001600160a01b038516731f573d6fb3f13d689ff844b4ce37794d79a7ff1c146105e757600060606001600160a01b0380841690620186a090636b625ad960e11b90610483908b1661084a565b61048d57896104a3565b73eeeeeeeeeeeeeeeeeeeeeeeeeeeeeeeeeeeeeeee5b604080516001600160a01b039092166024830152600060448084019190915281518084039091018152606490920181526020820180516001600160e01b03166001600160e01b0319909416939093178352518151919290918291908083835b602083106105215780518252601f199092019160209182019101610502565b6001836020036101000a0380198251168184511680821785525050505050509050019150506000604051808303818686fa925050503d8060008114610582576040519150601f19603f3d011682016040523d82523d6000602084013e610587565b606091505b5091509150816105a75760408051600080825260208201909252906103e9565b8080602001905160208110156105bc57600080fd5b505193506001600160a01b0384166105e45760408051600080825260208201909252906103e9565b50505b6001600160a01b038516731f573d6fb3f13d689ff844b4ce37794d79a7ff1c14156106ab57858460008151811061061a57fe5b60200260200101906001600160a01b031690816001600160a01b031681525050828460018151811061064857fe5b60200260200101906001600160a01b031690816001600160a01b031681525050731f573d6fb3f13d689ff844b4ce37794d79a7ff1c8460028151811061068a57fe5b6001600160a01b039092166020928302919091019091015250610844915050565b6001600160a01b038616731f573d6fb3f13d689ff844b4ce37794d79a7ff1c141561074e57731f573d6fb3f13d689ff844b4ce37794d79a7ff1c846000815181106106f257fe5b60200260200101906001600160a01b031690816001600160a01b031681525050818460018151811061072057fe5b60200260200101906001600160a01b031690816001600160a01b031681525050848460028151811061068a57fe5b858460008151811061075c57fe5b60200260200101906001600160a01b031690816001600160a01b031681525050828460018151811061078a57fe5b60200260200101906001600160a01b031690816001600160a01b031681525050731f573d6fb3f13d689ff844b4ce37794d79a7ff1c846002815181106107cc57fe5b60200260200101906001600160a01b031690816001600160a01b03168152505081846003815181106107fa57fe5b60200260200101906001600160a01b031690816001600160a01b031681525050848460048151811061082857fe5b6001600160a01b03909216602092830291909101909101525050505b92915050565b60006001600160a01b038216158061084457506001600160a01b03821673eeeeeeeeeeeeeeeeeeeeeeeeeeeeeeeeeeeeeeee149291505056fea265627a7a72315820e1c8b38de1cd6c79a46d01c44c115e2c556e88db00d08dd711f4367c168521de64736f6c63430005110032",
  "source": "pragma solidity ^0.5.0;\n\nimport \"@openzeppelin/contracts/token/ERC20/IERC20.sol\";\nimport \"./interface/IBancorContractRegistry.sol\";\nimport \"./interface/IBancorConverterRegistry.sol\";\nimport \"./UniversalERC20.sol\";\n\n\ncontract BancorFinder {\n    using UniversalERC20 for IERC20;\n\n    IERC20 constant internal ETH_ADDRESS = IERC20(0xEeeeeEeeeEeEeeEeEeEeeEEEeeeeEeeeeeeeEEeE);\n    IERC20 constant internal bnt = IERC20(0x1F573D6Fb3F13d689FF844B4cE37794d79a7FF1C);\n    IBancorContractRegistry constant internal bancorContractRegistry = IBancorContractRegistry(0x52Ae12ABe5D8BD778BD5397F99cA900624CfADD4);\n\n    function buildBancorPath(\n        IERC20 fromToken,\n        IERC20 destToken\n    )\n        public\n        view\n        returns(address[] memory path)\n    {\n        if (fromToken == destToken) {\n            return new address[](0);\n        }\n\n        if (fromToken.isETH()) {\n            fromToken = ETH_ADDRESS;\n        }\n        if (destToken.isETH()) {\n            destToken = ETH_ADDRESS;\n        }\n\n        if (fromToken == bnt || destToken == bnt) {\n            path = new address[](3);\n        } else {\n            path = new address[](5);\n        }\n\n        address fromConverter;\n        address toConverter;\n\n        IBancorConverterRegistry bancorConverterRegistry = IBancorConverterRegistry(\n            bancorContractRegistry.addressOf(\"BancorConverterRegistry\")\n        );\n\n        if (fromToken != bnt) {\n            (bool success, bytes memory data) = address(bancorConverterRegistry).staticcall.gas(100000)(abi.encodeWithSelector(\n                bancorConverterRegistry.getConvertibleTokenSmartToken.selector,\n                fromToken.isETH() ? ETH_ADDRESS : fromToken,\n                0\n            ));\n            if (!success) {\n                return new address[](0);\n            }\n\n            fromConverter = abi.decode(data, (address));\n            if (fromConverter == address(0)) {\n                return new address[](0);\n            }\n        }\n\n        if (destToken != bnt) {\n            (bool success, bytes memory data) = address(bancorConverterRegistry).staticcall.gas(100000)(abi.encodeWithSelector(\n                bancorConverterRegistry.getConvertibleTokenSmartToken.selector,\n                destToken.isETH() ? ETH_ADDRESS : destToken,\n                0\n            ));\n            if (!success) {\n                return new address[](0);\n            }\n\n            toConverter = abi.decode(data, (address));\n            if (toConverter == address(0)) {\n                return new address[](0);\n            }\n        }\n\n        if (destToken == bnt) {\n            path[0] = address(fromToken);\n            path[1] = fromConverter;\n            path[2] = address(bnt);\n            return path;\n        }\n\n        if (fromToken == bnt) {\n            path[0] = address(bnt);\n            path[1] = toConverter;\n            path[2] = address(destToken);\n            return path;\n        }\n\n        path[0] = address(fromToken);\n        path[1] = fromConverter;\n        path[2] = address(bnt);\n        path[3] = toConverter;\n        path[4] = address(destToken);\n        return path;\n    }\n}\n",
  "sourcePath": "/Users/caos/Downloads/1inchProtocol-master/contracts/BancorFinder.sol",
  "compiler": {
    "name": "solc",
    "version": "0.5.17+commit.d19bba13.Emscripten.clang"
  },
  "schemaVersion": "3.2.5",
  "updatedAt": "2020-10-25T14:42:35.113Z",
  "devdoc": {
    "methods": {}
  },
  "userdoc": {
    "methods": {}
  }
}