{
  "contractName": "OneSplitWrap",
  "abi": [
    {
      "inputs": [
        {
          "internalType": "contract IOneSplitView",
          "name": "_oneSplitView",
          "type": "address"
        },
        {
          "internalType": "contract IOneSplit",
          "name": "_oneSplit",
          "type": "address"
        }
      ],
      "payable": false,
      "stateMutability": "nonpayable",
      "type": "constructor"
    },
    {
      "payable": true,
      "stateMutability": "payable",
      "type": "fallback"
    },
    {
      "constant": true,
      "inputs": [],
      "name": "oneSplit",
      "outputs": [
        {
          "internalType": "contract IOneSplit",
          "name": "",
          "type": "address"
        }
      ],
      "payable": false,
      "stateMutability": "view",
      "type": "function"
    },
    {
      "constant": true,
      "inputs": [],
      "name": "oneSplitView",
      "outputs": [
        {
          "internalType": "contract IOneSplitView",
          "name": "",
          "type": "address"
        }
      ],
      "payable": false,
      "stateMutability": "view",
      "type": "function"
    },
    {
      "constant": true,
      "inputs": [
        {
          "internalType": "contract IERC20",
          "name": "fromToken",
          "type": "address"
        },
        {
          "internalType": "contract IERC20",
          "name": "destToken",
          "type": "address"
        },
        {
          "internalType": "uint256",
          "name": "amount",
          "type": "uint256"
        },
        {
          "internalType": "uint256",
          "name": "parts",
          "type": "uint256"
        },
        {
          "internalType": "uint256",
          "name": "flags",
          "type": "uint256"
        }
      ],
      "name": "getExpectedReturn",
      "outputs": [
        {
          "internalType": "uint256",
          "name": "returnAmount",
          "type": "uint256"
        },
        {
          "internalType": "uint256[]",
          "name": "distribution",
          "type": "uint256[]"
        }
      ],
      "payable": false,
      "stateMutability": "view",
      "type": "function"
    },
    {
      "constant": true,
      "inputs": [
        {
          "internalType": "contract IERC20",
          "name": "fromToken",
          "type": "address"
        },
        {
          "internalType": "contract IERC20",
          "name": "destToken",
          "type": "address"
        },
        {
          "internalType": "uint256",
          "name": "amount",
          "type": "uint256"
        },
        {
          "internalType": "uint256",
          "name": "parts",
          "type": "uint256"
        },
        {
          "internalType": "uint256",
          "name": "flags",
          "type": "uint256"
        },
        {
          "internalType": "uint256",
          "name": "destTokenEthPriceTimesGasPrice",
          "type": "uint256"
        }
      ],
      "name": "getExpectedReturnWithGas",
      "outputs": [
        {
          "internalType": "uint256",
          "name": "returnAmount",
          "type": "uint256"
        },
        {
          "internalType": "uint256",
          "name": "estimateGasAmount",
          "type": "uint256"
        },
        {
          "internalType": "uint256[]",
          "name": "distribution",
          "type": "uint256[]"
        }
      ],
      "payable": false,
      "stateMutability": "view",
      "type": "function"
    },
    {
      "constant": true,
      "inputs": [
        {
          "internalType": "contract IERC20[]",
          "name": "tokens",
          "type": "address[]"
        },
        {
          "internalType": "uint256",
          "name": "amount",
          "type": "uint256"
        },
        {
          "internalType": "uint256[]",
          "name": "parts",
          "type": "uint256[]"
        },
        {
          "internalType": "uint256[]",
          "name": "flags",
          "type": "uint256[]"
        },
        {
          "internalType": "uint256[]",
          "name": "destTokenEthPriceTimesGasPrices",
          "type": "uint256[]"
        }
      ],
      "name": "getExpectedReturnWithGasMulti",
      "outputs": [
        {
          "internalType": "uint256[]",
          "name": "returnAmounts",
          "type": "uint256[]"
        },
        {
          "internalType": "uint256",
          "name": "estimateGasAmount",
          "type": "uint256"
        },
        {
          "internalType": "uint256[]",
          "name": "distribution",
          "type": "uint256[]"
        }
      ],
      "payable": false,
      "stateMutability": "view",
      "type": "function"
    },
    {
      "constant": false,
      "inputs": [
        {
          "internalType": "contract IERC20",
          "name": "fromToken",
          "type": "address"
        },
        {
          "internalType": "contract IERC20",
          "name": "destToken",
          "type": "address"
        },
        {
          "internalType": "uint256",
          "name": "amount",
          "type": "uint256"
        },
        {
          "internalType": "uint256",
          "name": "minReturn",
          "type": "uint256"
        },
        {
          "internalType": "uint256[]",
          "name": "distribution",
          "type": "uint256[]"
        },
        {
          "internalType": "uint256",
          "name": "flags",
          "type": "uint256"
        }
      ],
      "name": "swap",
      "outputs": [
        {
          "internalType": "uint256",
          "name": "returnAmount",
          "type": "uint256"
        }
      ],
      "payable": true,
      "stateMutability": "payable",
      "type": "function"
    },
    {
      "constant": false,
      "inputs": [
        {
          "internalType": "contract IERC20[]",
          "name": "tokens",
          "type": "address[]"
        },
        {
          "internalType": "uint256",
          "name": "amount",
          "type": "uint256"
        },
        {
          "internalType": "uint256",
          "name": "minReturn",
          "type": "uint256"
        },
        {
          "internalType": "uint256[]",
          "name": "distribution",
          "type": "uint256[]"
        },
        {
          "internalType": "uint256[]",
          "name": "flags",
          "type": "uint256[]"
        }
      ],
      "name": "swapMulti",
      "outputs": [
        {
          "internalType": "uint256",
          "name": "returnAmount",
          "type": "uint256"
        }
      ],
      "payable": true,
      "stateMutability": "payable",
      "type": "function"
    }
  ],
  "bytecode": "0x608060405234801561001057600080fd5b506040516200540d3803806200540d8339818101604052604081101561003557600080fd5b508051602090910151600080546001600160a01b039384166001600160a01b03199182161790915560018054939092169216919091179055615390806200007d6000396000f3fe6080604052600436106100705760003560e01c80638373f2651161004e5780638373f26514610436578063c7851396146104ed578063e2a7515e146106b0578063fbe4ed951461077857610070565b8063085e2c5b1461007f57806343ee21f0146101295780637b33701a1461015a575b3332141561007d57600080fd5b005b34801561008b57600080fd5b506100ce600480360360a08110156100a257600080fd5b506001600160a01b0381358116916020810135909116906040810135906060810135906080013561078d565b6040518083815260200180602001828103825283818151815260200191508051906020019060200280838360005b838110156101145781810151838201526020016100fc565b50505050905001935050505060405180910390f35b34801561013557600080fd5b5061013e6107b0565b604080516001600160a01b039092168252519081900360200190f35b34801561016657600080fd5b50610396600480360360a081101561017d57600080fd5b810190602081018135600160201b81111561019757600080fd5b8201836020820111156101a957600080fd5b803590602001918460208302840111600160201b831117156101ca57600080fd5b91908080602002602001604051908101604052809392919081815260200183836020028082843760009201919091525092958435959094909350604081019250602001359050600160201b81111561022157600080fd5b82018360208201111561023357600080fd5b803590602001918460208302840111600160201b8311171561025457600080fd5b9190808060200260200160405190810160405280939291908181526020018383602002808284376000920191909152509295949360208101935035915050600160201b8111156102a357600080fd5b8201836020820111156102b557600080fd5b803590602001918460208302840111600160201b831117156102d657600080fd5b9190808060200260200160405190810160405280939291908181526020018383602002808284376000920191909152509295949360208101935035915050600160201b81111561032557600080fd5b82018360208201111561033757600080fd5b803590602001918460208302840111600160201b8311171561035857600080fd5b9190808060200260200160405190810160405280939291908181526020018383602002808284376000920191909152509295506107bf945050505050565b604051808060200184815260200180602001838103835286818151815260200191508051906020019060200280838360005b838110156103e05781810151838201526020016103c8565b50505050905001838103825284818151815260200191508051906020019060200280838360005b8381101561041f578181015183820152602001610407565b505050509050019550505050505060405180910390f35b34801561044257600080fd5b5061048b600480360360c081101561045957600080fd5b506001600160a01b03813581169160208101359091169060408101359060608101359060808101359060a00135610a20565b6040518084815260200183815260200180602001828103825283818151815260200191508051906020019060200280838360005b838110156104d75781810151838201526020016104bf565b5050505090500194505050505060405180910390f35b61069e600480360360a081101561050357600080fd5b810190602081018135600160201b81111561051d57600080fd5b82018360208201111561052f57600080fd5b803590602001918460208302840111600160201b8311171561055057600080fd5b9190808060200260200160405190810160405280939291908181526020018383602002808284376000920191909152509295843595602086013595919450925060608101915060400135600160201b8111156105ab57600080fd5b8201836020820111156105bd57600080fd5b803590602001918460208302840111600160201b831117156105de57600080fd5b9190808060200260200160405190810160405280939291908181526020018383602002808284376000920191909152509295949360208101935035915050600160201b81111561062d57600080fd5b82018360208201111561063f57600080fd5b803590602001918460208302840111600160201b8311171561066057600080fd5b919080806020026020016040519081016040528093929190818152602001838360200280828437600092019190915250929550610b77945050505050565b60408051918252519081900360200190f35b61069e600480360360c08110156106c657600080fd5b6001600160a01b03823581169260208101359091169160408201359160608101359181019060a081016080820135600160201b81111561070557600080fd5b82018360208201111561071757600080fd5b803590602001918460208302840111600160201b8311171561073857600080fd5b9190808060200260200160405190810160405280939291908181526020018383602002808284376000920191909152509295505091359250610dbd915050565b34801561078457600080fd5b5061013e610eb9565b600060606107a087878787876000610a20565b9199919850909650505050505050565b6001546001600160a01b031681565b6060600060608060018951036040519080825280602002602001820160405280156107f4578160200160208202803883390190505b50935060015b8951811015610a135789818151811061080f57fe5b60200260200101516001600160a01b03168a600183038151811061082f57fe5b60200260200101516001600160a01b0316141561088c578060011461086a5784600282038151811061085d57fe5b602002602001015161086c565b885b85600183038151811061087b57fe5b602002602001018181525050610a0b565b60608a905061092f8160018403815181106108a357fe5b60200260200101518284815181106108b757fe5b6020026020010151846001146108e3578860028603815181106108d657fe5b60200260200101516108e5565b8c5b8c60018703815181106108f457fe5b60200260200101518c600188038151811061090b57fe5b60200260200101518c600189038151811061092257fe5b6020026020010151610a20565b88600186038151811061093e57fe5b60209081029190910101929092529a509250610960858b63ffffffff610ec816565b945083516000141561099b578251604051908082528060200260200182016040528015610997578160200160208202803883390190505b5093505b60005b8451811015610a08576109e9600184036008028583815181106109bd57fe5b6020026020010151901b8683815181106109d357fe5b6020026020010151610ec890919063ffffffff16565b8582815181106109f557fe5b602090810291909101015260010161099e565b50505b6001016107fa565b5050955095509592505050565b6000805460408051638373f26560e01b81526001600160a01b038a81166004830152898116602483015260448201899052606482018890526084820187905260a48201869052915184936060931691638373f2659160c48083019287929190829003018186803b158015610a9357600080fd5b505afa158015610aa7573d6000803e3d6000fd5b505050506040513d6000823e601f3d908101601f191682016040526060811015610ad057600080fd5b81516020830151604080850180519151939592948301929184600160201b821115610afa57600080fd5b908301906020820185811115610b0f57600080fd5b82518660208202830111600160201b82111715610b2b57600080fd5b82525081516020918201928201910280838360005b83811015610b58578181015183820152602001610b40565b5050505090500160405250505092509250925096509650969350505050565b6000610bad33308789600081518110610b8c57fe5b60200260200101516001600160a01b0316610f2b909392919063ffffffff16565b610bdd3087600081518110610bbe57fe5b60200260200101516001600160a01b031661104a90919063ffffffff16565b905060015b8651811015610d5e57868181518110610bf757fe5b60200260200101516001600160a01b0316876001830381518110610c1757fe5b60200260200101516001600160a01b03161415610c3357610d56565b60608451604051908082528060200260200182016040528015610c60578160200160208202803883390190505b50905060005b8551811015610cae5760018303600802868281518110610c8257fe5b6020026020010151901c60ff16828281518110610c9b57fe5b6020908102919091010152600101610c66565b50610cfb886001840381518110610cc157fe5b6020026020010151898481518110610cd557fe5b60200260200101518584886001880381518110610cee57fe5b60200260200101516110f4565b610d0b30898481518110610bbe57fe5b9250610d5333610d24308b6001870381518110610bbe57fe5b8a6001860381518110610d3357fe5b60200260200101516001600160a01b031661141b9092919063ffffffff16565b50505b600101610be2565b5083811015610d9e5760405162461bcd60e51b815260040180806020018281038252603581526020018061527c6035913960400191505060405180910390fd5b610db333828860018a510381518110610d3357fe5b5095945050505050565b6000610dda6001600160a01b03881633308863ffffffff610f2b16565b6000610df56001600160a01b0389163063ffffffff61104a16565b9050610e0488888387876110f4565b610e1d6001600160a01b0388163063ffffffff61104a16565b915084821015610e5e5760405162461bcd60e51b815260040180806020018281038252603581526020018061527c6035913960400191505060405180910390fd5b610e786001600160a01b038816338463ffffffff61141b16565b50610ead33610e966001600160a01b038b163063ffffffff61104a16565b6001600160a01b038b16919063ffffffff61141b16565b50509695505050505050565b6000546001600160a01b031681565b600082820183811015610f22576040805162461bcd60e51b815260206004820152601b60248201527f536166654d6174683a206164646974696f6e206f766572666c6f770000000000604482015290519081900360640190fd5b90505b92915050565b80610f3557611044565b610f3e84611499565b15611029576001600160a01b03831633148015610f5b5750803410155b610f965760405162461bcd60e51b815260040180806020018281038252602b8152602001806152d1602b913960400191505060405180910390fd5b6001600160a01b0382163014610fde576040516001600160a01b0383169082156108fc029083906000818181858888f19350505050158015610fdc573d6000803e3d6000fd5b505b8034111561102457336108fc610ffa348463ffffffff6114d516565b6040518115909202916000818181858888f19350505050158015611022573d6000803e3d6000fd5b505b611044565b6110446001600160a01b03851684848463ffffffff61151716565b50505050565b600061105583611499565b1561106b57506001600160a01b03811631610f25565b826001600160a01b03166370a08231836040518263ffffffff1660e01b815260040180826001600160a01b03166001600160a01b0316815260200191505060206040518083038186803b1580156110c157600080fd5b505afa1580156110d5573d6000803e3d6000fd5b505050506040513d60208110156110eb57600080fd5b50519050610f25565b61110d6001600160a01b0386168563ffffffff61157116565b1561111757611414565b61112b81600160431b63ffffffff6115a716565b6114075760408051635b16ebb760e01b81526001600160a01b038716600482015290516000917371cd6666064c3a1354a3b4dca5fa1e2d3ee7d30391635b16ebb791602480820192602092909190829003018186803b15801561118d57600080fd5b505afa1580156111a1573d6000803e3d6000fd5b505050506040513d60208110156111b757600080fd5b505160408051635b16ebb760e01b81526001600160a01b038816600482015290519192506000917371cd6666064c3a1354a3b4dca5fa1e2d3ee7d30391635b16ebb7916024808301926020929190829003018186803b15801561121957600080fd5b505afa15801561122d573d6000803e3d6000fd5b505050506040513d602081101561124357600080fd5b505190508180156112515750805b156113cf5760608451604051908082528060200260200182016040528015611283578160200160208202803883390190505b50905060005b85518110156112d75785818151811061129e57fe5b60200260200101516fffffffffffffffffffffffffffffffff168282815181106112c457fe5b6020908102919091010152600101611289565b5060006112fe73eeeeeeeeeeeeeeeeeeeeeeeeeeeeeeeeeeeeeeee3063ffffffff61104a16565b90506113258973eeeeeeeeeeeeeeeeeeeeeeeeeeeeeeeeeeeeeeee8985600160431b6115ad565b60005b865181101561136857608087828151811061133f57fe5b6020026020010151901c83828151811061135557fe5b6020908102919091010152600101611328565b50600061138f73eeeeeeeeeeeeeeeeeeeeeeeeeeeeeeeeeeeeeeee3063ffffffff61104a16565b90506113c573eeeeeeeeeeeeeeeeeeeeeeeeeeeeeeeeeeeeeeee8a6113ba848663ffffffff6114d516565b86600160431b611872565b5050505050611414565b81156113ed576113e687878787600160431b6115ad565b5050611414565b8015611404576113e687878787600160431b611872565b50505b6114148585858585611d4b565b5050505050565b60008161142a57506001611492565b61143384611499565b15611474576040516001600160a01b0384169083156108fc029084906000818181858888f1935050505015801561146e573d6000803e3d6000fd5b50611492565b61148e6001600160a01b038516848463ffffffff611d5816565b5060015b9392505050565b60006001600160a01b03821615806114cd57506001600160a01b03821673eeeeeeeeeeeeeeeeeeeeeeeeeeeeeeeeeeeeeeee145b90505b919050565b6000610f2283836040518060400160405280601e81526020017f536166654d6174683a207375627472616374696f6e206f766572666c6f770000815250611daf565b604080516001600160a01b0385811660248301528416604482015260648082018490528251808303909101815260849091019091526020810180516001600160e01b03166323b872dd60e01b179052611044908590611e46565b6000816001600160a01b0316836001600160a01b03161480610f22575061159783611499565b8015610f225750610f2282611499565b16151590565b6115b561521f565b604080518082018083526327b2595f60e11b905260006044820152905181906001600160a01b03891690634f64b2be90606480850191602091818703018186803b15801561160257600080fd5b505afa158015611616573d6000803e3d6000fd5b505050506040513d602081101561162c57600080fd5b50516001600160a01b039081168252604080516327b2595f60e11b8152600160048201529051602093840193928b1692634f64b2be9260248082019391829003018186803b15801561167d57600080fd5b505afa158015611691573d6000803e3d6000fd5b505050506040513d60208110156116a757600080fd5b50516001600160a01b039081169091526040805160008082526020808301808552632c8aec0360e11b8152602484018b815260448501958652845160648601819052979850958d1696635915d806968c969094909360848701939202908190849084905b8381101561172357818101518382015260200161170b565b505050509050019350505050600060405180830381600087803b15801561174957600080fd5b505af115801561175d573d6000803e3d6000fd5b505050506060835160405190808252806020026020018201604052801561178e578160200160208202803883390190505b50905060005b6002811015611868576117c78382600281106117ac57fe5b60200201516001600160a01b0389169063ffffffff61157116565b156117d157611860565b60005b855181101561181957816008028682815181106117ed57fe5b6020026020010151901c60ff1683828151811061180657fe5b60209081029190910101526001016117d4565b5061186083826002811061182957fe5b6020020151886118593087866002811061183f57fe5b60200201516001600160a01b03169063ffffffff61104a16565b8588611d4b565b600101611794565b5050505050505050565b61187a61521f565b604080518082018083526327b2595f60e11b905260006044820152905181906001600160a01b03881690634f64b2be90606480850191602091818703018186803b1580156118c757600080fd5b505afa1580156118db573d6000803e3d6000fd5b505050506040513d60208110156118f157600080fd5b50516001600160a01b039081168252604080516327b2595f60e11b8152600160048201529051602093840193928a1692634f64b2be9260248082019391829003018186803b15801561194257600080fd5b505afa158015611956573d6000803e3d6000fd5b505050506040513d602081101561196c57600080fd5b50516001600160a01b031690526040805160028082526060808301845293945090916020830190803883390190505090506119ae85600263ffffffff611ffe16565b816000815181106119bb57fe5b6020026020010181815250506119ee816000815181106119d757fe5b6020026020010151866114d590919063ffffffff16565b816001815181106119fb57fe5b60200260200101818152505060608451604051908082528060200260200182016040528015611a34578160200160208202803883390190505b50905060005b6002811015611b5f57611a6d848260028110611a5257fe5b60200201516001600160a01b038b169063ffffffff61157116565b15611a7757611b57565b60005b8651811015611abf5781600802878281518110611a9357fe5b6020026020010151901c60ff16838281518110611aac57fe5b6020908102919091010152600101611a7a565b50611af089858360028110611ad057fe5b6020020151858481518110611ae157fe5b60200260200101518589611d4b565b611b003085836002811061183f57fe5b838281518110611b0c57fe5b602002602001018181525050611b5788848381518110611b2857fe5b6020026020010151868460028110611b3c57fe5b60200201516001600160a01b0316919063ffffffff61204016565b600101611a3a565b506000611b7c8460015b60200201516001600160a01b0316611499565b611b87576000611b9d565b82600181518110611b9457fe5b60200260200101515b611ba8856000611b69565b611bb3576000611bc9565b83600081518110611bc057fe5b60200260200101515b019050876001600160a01b031663f223885a82856002604051908082528060200260200182016040528015611c08578160200160208202803883390190505b506040518463ffffffff1660e01b8152600401808060200180602001838103835285818151815260200191508051906020019060200280838360005b83811015611c5c578181015183820152602001611c44565b50505050905001838103825284818151815260200191508051906020019060200280838360005b83811015611c9b578181015183820152602001611c83565b505050509050019450505050506020604051808303818588803b158015611cc157600080fd5b505af1158015611cd5573d6000803e3d6000fd5b50505050506040513d6020811015611cec57600080fd5b50600090505b6002811015611d3f57611d3633611d0f3088856002811061183f57fe5b878460028110611d1b57fe5b60200201516001600160a01b0316919063ffffffff61141b16565b50600101611cf2565b50505050505050505050565b6114148585858585612134565b604080516001600160a01b038416602482015260448082018490528251808303909101815260649091019091526020810180516001600160e01b031663a9059cbb60e01b179052611daa908490611e46565b505050565b60008184841115611e3e5760405162461bcd60e51b81526004018080602001828103825283818151815260200191508051906020019080838360005b83811015611e03578181015183820152602001611deb565b50505050905090810190601f168015611e305780820380516001836020036101000a031916815260200191505b509250505060405180910390fd5b505050900390565b611e58826001600160a01b0316612482565b611ea9576040805162461bcd60e51b815260206004820152601f60248201527f5361666545524332303a2063616c6c20746f206e6f6e2d636f6e747261637400604482015290519081900360640190fd5b60006060836001600160a01b0316836040518082805190602001908083835b60208310611ee75780518252601f199092019160209182019101611ec8565b6001836020036101000a0380198251168184511680821785525050505050509050019150506000604051808303816000865af19150503d8060008114611f49576040519150601f19603f3d011682016040523d82523d6000602084013e611f4e565b606091505b509150915081611fa5576040805162461bcd60e51b815260206004820181905260248201527f5361666545524332303a206c6f772d6c6576656c2063616c6c206661696c6564604482015290519081900360640190fd5b80511561104457808060200190516020811015611fc157600080fd5b50516110445760405162461bcd60e51b815260040180806020018281038252602a8152602001806152fc602a913960400191505060405180910390fd5b6000610f2283836040518060400160405280601a81526020017f536166654d6174683a206469766973696f6e206279207a65726f0000000000008152506124be565b61204983611499565b611daa57806120725761206d6001600160a01b03841683600063ffffffff61252316565b611daa565b60408051636eb1769f60e11b81523060048201526001600160a01b038481166024830152915160009286169163dd62ed3e916044808301926020929190829003018186803b1580156120c357600080fd5b505afa1580156120d7573d6000803e3d6000fd5b505050506040513d60208110156120ed57600080fd5b505190508181101561104457801561211a5761211a6001600160a01b03851684600063ffffffff61252316565b6110446001600160a01b038516848463ffffffff61252316565b836001600160a01b0316856001600160a01b0316141561215357611414565b612169816508000000000063ffffffff6115a716565b151561217f82634000000063ffffffff6115a716565b1515141561247557600061219286612636565b90506001600160a01b038082161461231a57856001600160a01b031663db006a75856040518263ffffffff1660e01b815260040180828152602001915050602060405180830381600087803b1580156121ea57600080fd5b505af11580156121fe573d6000803e3d6000fd5b505050506040513d602081101561221457600080fd5b50600090506122326001600160a01b0383163063ffffffff61104a16565b90506001600160a01b03821673c02aaa39b223fe8d0a0e5c4f27ead9083c756cc214156122cc5773c02aaa39b223fe8d0a0e5c4f27ead9083c756cc26001600160a01b0316632e1a7d4d826040518263ffffffff1660e01b815260040180828152602001915050600060405180830381600087803b1580156122b357600080fd5b505af11580156122c7573d6000803e3d6000fd5b505050505b6123186001600160a01b03831673c02aaa39b223fe8d0a0e5c4f27ead9083c756cc2146122f9578261230f565b73eeeeeeeeeeeeeeeeeeeeeeeeeeeeeeeeeeeeeeee5b87838787612134565b505b61232385612636565b90506001600160a01b038082161461247357612381866001600160a01b03831673c02aaa39b223fe8d0a0e5c4f27ead9083c756cc2146123635782612379565b73eeeeeeeeeeeeeeeeeeeeeeeeeeeeeeeeeeeeeeee5b86868661276a565b60006123dc306001600160a01b03841673c02aaa39b223fe8d0a0e5c4f27ead9083c756cc2146123b157836123c7565b73eeeeeeeeeeeeeeeeeeeeeeeeeeeeeeeeeeeeeeee5b6001600160a01b03169063ffffffff61104a16565b90505b6123f96001600160a01b038316878363ffffffff61204016565b856001600160a01b031663a0712d68826040518263ffffffff1660e01b815260040180828152602001915050602060405180830381600087803b15801561243f57600080fd5b505af1158015612453573d6000803e3d6000fd5b505050506040513d602081101561246957600080fd5b5061141492505050565b505b611414858585858561276a565b6000813f7fc5d2460186f7233c927e7db2dcc703c0e500b653ca82273b7bfad8045d85a4708181148015906124b657508115155b949350505050565b6000818361250d5760405162461bcd60e51b8152602060048201818152835160248401528351909283926044909101919085019080838360008315611e03578181015183820152602001611deb565b50600083858161251957fe5b0495945050505050565b8015806125a9575060408051636eb1769f60e11b81523060048201526001600160a01b03848116602483015291519185169163dd62ed3e91604480820192602092909190829003018186803b15801561257b57600080fd5b505afa15801561258f573d6000803e3d6000fd5b505050506040513d60208110156125a557600080fd5b5051155b6125e45760405162461bcd60e51b81526004018080602001828103825260368152602001806153266036913960400191505060405180910390fd5b604080516001600160a01b038416602482015260448082018490528251808303909101815260649091019091526020810180516001600160e01b031663095ea7b360e01b179052611daa908490611e46565b604080516001600160a01b03831660248083019190915282518083039091018152604490910182526020810180516001600160e01b03166330df135f60e21b178152915181516000938493606093734cb120dd1d33c9a3de8bc15620c7cd43418d77e293919290918291908083835b602083106126c45780518252601f1990920191602091820191016126a5565b6001836020036101000a038019825116818451168082178552505050505050905001915050600060405180830381855afa9150503d8060008114612724576040519150601f19603f3d011682016040523d82523d6000602084013e612729565b606091505b509150915081158061273a57508051155b1561274b57600019925050506114d0565b80806020019051602081101561276057600080fd5b5051949350505050565b61141485858585855b836001600160a01b0316856001600160a01b0316141561279257611414565b6127a5816208000063ffffffff6115a716565b15156127bb82634000000063ffffffff6115a716565b15151415612aa5576001600160a01b03851673c02aaa39b223fe8d0a0e5c4f27ead9083c756cc214156128e957604080516370a0823160e01b8152306004820152905173c02aaa39b223fe8d0a0e5c4f27ead9083c756cc291632e1a7d4d9183916370a08231916024808301926020929190829003018186803b15801561284157600080fd5b505afa158015612855573d6000803e3d6000fd5b505050506040513d602081101561286b57600080fd5b5051604080516001600160e01b031960e085901b168152600481019290925251602480830192600092919082900301818387803b1580156128ab57600080fd5b505af11580156128bf573d6000803e3d6000fd5b505050506128e473eeeeeeeeeeeeeeeeeeeeeeeeeeeeeeeeeeeeeeee85858585612aae565b611414565b6001600160a01b03851673c0829421c1d260bd3cb3e0f06cfe2d52db2ce315141561296757604080516370a0823160e01b8152306004820152905173c0829421c1d260bd3cb3e0f06cfe2d52db2ce31591632e1a7d4d9183916370a08231916024808301926020929190829003018186803b15801561284157600080fd5b6001600160a01b03841673c02aaa39b223fe8d0a0e5c4f27ead9083c756cc21415612a10576129ad8573eeeeeeeeeeeeeeeeeeeeeeeeeeeeeeeeeeeeeeee858585612773565b73c02aaa39b223fe8d0a0e5c4f27ead9083c756cc26001600160a01b031663d0e30db0476040518263ffffffff1660e01b81526004016000604051808303818588803b1580156129fc57600080fd5b505af11580156113c5573d6000803e3d6000fd5b6001600160a01b03841673c0829421c1d260bd3cb3e0f06cfe2d52db2ce3151415612aa557612a568573eeeeeeeeeeeeeeeeeeeeeeeeeeeeeeeeeeeeeeee858585612773565b73c0829421c1d260bd3cb3e0f06cfe2d52db2ce3156001600160a01b031663d0e30db0476040518263ffffffff1660e01b81526004016000604051808303818588803b1580156129fc57600080fd5b61141485858585855b61141485858585855b612aca816280000063ffffffff6115a716565b15612adf82634000000063ffffffff6115a716565b151415612f3157612aee61523d565b612af6612f3e565b905060005b6008811015612cc957818160088110612b1057fe5b60200201516001600160a01b0316876001600160a01b03161415612cc1576000828260088110612b3c57fe5b60200201516001600160a01b031663fc0c546a6040518163ffffffff1660e01b815260040160206040518083038186803b158015612b7957600080fd5b505afa158015612b8d573d6000803e3d6000fd5b505050506040513d6020811015612ba357600080fd5b505190506000838360088110612bb557fe5b60200201516001600160a01b031663c85c93aa8860016000604051908082528060200260200182016040528015612bf6578160200160208202803883390190505b506040518463ffffffff1660e01b8152600401808481526020018315151515815260200180602001828103825283818151815260200191508051906020019060200280838360005b83811015612c56578181015183820152602001612c3e565b50505050905001945050505050602060405180830381600087803b158015612c7d57600080fd5b505af1158015612c91573d6000803e3d6000fd5b505050506040513d6020811015612ca757600080fd5b50519050612cb88289838989612ab7565b50505050611414565b600101612afb565b5060005b6008811015612f2e57818160088110612ce257fe5b60200201516001600160a01b0316866001600160a01b03161415612f26576000828260088110612d0e57fe5b60200201516001600160a01b031663fc0c546a6040518163ffffffff1660e01b815260040160206040518083038186803b158015612d4b57600080fd5b505afa158015612d5f573d6000803e3d6000fd5b505050506040513d6020811015612d7557600080fd5b50519050612d868882888888613024565b604080516370a0823160e01b815230600482015290516000916001600160a01b038416916370a0823191602480820192602092909190829003018186803b158015612dd057600080fd5b505afa158015612de4573d6000803e3d6000fd5b505050506040513d6020811015612dfa57600080fd5b50519050612e29848460088110612e0d57fe5b60200201516001600160a01b038416908363ffffffff61204016565b838360088110612e3557fe5b60200201516001600160a01b0316633cfcef64826000604051908082528060200260200182016040528015612e74578160200160208202803883390190505b506040518363ffffffff1660e01b81526004018083815260200180602001828103825283818151815260200191508051906020019060200280838360005b83811015612eca578181015183820152602001612eb2565b505050509050019350505050602060405180830381600087803b158015612ef057600080fd5b505af1158015612f04573d6000803e3d6000fd5b505050506040513d6020811015612f1a57600080fd5b50611414945050505050565b600101612ccd565b50505b6114148585858585613024565b612f4661523d565b5060408051610100810182527378751b12da02728f467a44eac40f5cbc16bd793481527312b98c621e8754ae70d0fdbbc73d6208bc3e3ca660208201527363d27b3da94a9e871222cb0a32232674b02d2f2d91810191909152731846bdfdb6a0f5c473dec610144513bd071999fb606082015273cddb1bceb7a1979c6caa0229820707429dd3ec6c60808201527342740698959761baf1b06baa51efbd88cb1d862b60a08201527310ec0d497824e342bcb0edce00959142aaa766dd60c082015273eb66acc3d011056b00ea521f8203580c2e5d399160e082015290565b61141485858585855b836001600160a01b0316856001600160a01b0316141561304c57611414565b61305e8161080063ffffffff6115a716565b151561307482634000000063ffffffff6115a716565b1515141561340f5761308461525c565b61308c61341c565b905060005b600d811015613249578181600d81106130a657fe5b60200201516001600160a01b0316876001600160a01b031614156132415760008282600d81106130d257fe5b60200201516001600160a01b031663fc0c546a6040518163ffffffff1660e01b815260040160206040518083038186803b15801561310f57600080fd5b505afa158015613123573d6000803e3d6000fd5b505050506040513d602081101561313957600080fd5b505190508282600d811061314957fe5b60200201516001600160a01b0316632e1a7d4d876040518263ffffffff1660e01b815260040180828152602001915050600060405180830381600087803b15801561319357600080fd5b505af11580156131a7573d6000803e3d6000fd5b505050506132398188836001600160a01b03166370a08231306040518263ffffffff1660e01b815260040180826001600160a01b03166001600160a01b0316815260200191505060206040518083038186803b15801561320657600080fd5b505afa15801561321a573d6000803e3d6000fd5b505050506040513d602081101561323057600080fd5b5051888861302d565b505050611414565b600101613091565b5060005b600d81101561340c578181600d811061326257fe5b60200201516001600160a01b0316866001600160a01b031614156134045760008282600d811061328e57fe5b60200201516001600160a01b031663fc0c546a6040518163ffffffff1660e01b815260040160206040518083038186803b1580156132cb57600080fd5b505afa1580156132df573d6000803e3d6000fd5b505050506040513d60208110156132f557600080fd5b505190506133068882888888613589565b604080516370a0823160e01b815230600482015290516000916001600160a01b038416916370a0823191602480820192602092909190829003018186803b15801561335057600080fd5b505afa158015613364573d6000803e3d6000fd5b505050506040513d602081101561337a57600080fd5b5051905061338d8484600d8110612e0d57fe5b8383600d811061339957fe5b60200201516001600160a01b031663b6b55f25826040518263ffffffff1660e01b815260040180828152602001915050600060405180830381600087803b1580156133e357600080fd5b505af11580156133f7573d6000803e3d6000fd5b5050505050505050611414565b60010161324d565b50505b6114148585858585613589565b61342461525c565b50604080516101a0810182527316de59092dae5ccf4a1e6439d611fd0653f0bd0181527304aa51bbcb46541455ccf1b8bef2ebc5d3787ec960208201527373a052500105205d34daf004eab301916da8190f918101919091527383f798e925bcd4017eb265844fddabb448f1707d606082015273d6ad7a6750a7593e092a9b218d66c0a814a3436e608082015273f61718057901f84c4eec4339ef8f0d86d2b4560060a08201527304bc0ab673d88ae9dbc9da2380cb6b79c4bca9ae60c082015273c2cb1040220768554cf699b0d863a3cd4324ce3260e082015273e6354ed5bc4b393a5aad09f21c46e101e692d4476101008201527326ea744e5b887e5205727f55dfbe8685e3b219516101208201527399d1fa417f94dcd62bfe781a1213c092a47041bc610140820152739777d7e2b60bb01759d0e2f8be2095df444cb07e610160820152731be5d71f2da660bfdee8012ddc58d024448a0a5961018082015290565b61141485858585855b836001600160a01b0316856001600160a01b031614156135b157611414565b6135c281601063ffffffff6115a716565b15156135d882634000000063ffffffff6115a716565b1515141561385f5760408051639bbde94760e01b81526001600160a01b0387166004820152905160009173f451dbd7ba14bfa7b1b78a766d3ed438f79ee1d191639bbde94791602480820192602092909190829003018186803b15801561363e57600080fd5b505afa158015613652573d6000803e3d6000fd5b505050506040513d602081101561366857600080fd5b505190506001600160a01b0381161561371857856001600160a01b031663db006a75856040518263ffffffff1660e01b815260040180828152602001915050602060405180830381600087803b1580156136c157600080fd5b505af11580156136d5573d6000803e3d6000fd5b505050506040513d60208110156136eb57600080fd5b50600090506137096001600160a01b0383163063ffffffff61104a16565b90506113e68287838787613592565b60408051639bbde94760e01b81526001600160a01b0387166004820152905173f451dbd7ba14bfa7b1b78a766d3ed438f79ee1d191639bbde947916024808301926020929190829003018186803b15801561377257600080fd5b505afa158015613786573d6000803e3d6000fd5b505050506040513d602081101561379c57600080fd5b505190506001600160a01b0381161561385d576137bc8682868686613868565b60006137d76001600160a01b0383163063ffffffff61104a16565b90506137eb826001600160a01b0316611499565b156123df57734ddc2d193948926d02f9b1fe9e1daa0718270ed56001600160a01b0316631249c58b826040518263ffffffff1660e01b81526004016000604051808303818588803b15801561383f57600080fd5b505af1158015613853573d6000803e3d6000fd5b50505050506113e6565b505b61141485858585855b6114148585858585836001600160a01b0316856001600160a01b0316141561388f57611414565b6138a081602063ffffffff6115a716565b15156138b682634000000063ffffffff6115a716565b15151415613b5d5760006138c986613b6a565b90506001600160a01b0380821614613a19576138ed816001600160a01b0316611499565b15613973576040805163081a6b2560e41b81523060048201526024810186905290516001600160a01b038816916381a6b2509160448083019260209291908290030181600087803b15801561394157600080fd5b505af1158015613955573d6000803e3d6000fd5b505050506040513d602081101561396b57600080fd5b506139ef9050565b60408051632770a7eb60e21b81523060048201526024810186905290516001600160a01b03881691639dc29fac9160448083019260209291908290030181600087803b1580156139c257600080fd5b505af11580156139d6573d6000803e3d6000fd5b505050506040513d60208110156139ec57600080fd5b50505b6000613a0a6001600160a01b0383163063ffffffff61104a16565b90506113e68287838787613ee0565b613a2285613b6a565b90506001600160a01b0380821614613b5b57613a418682868686613ee0565b6000613a5c6001600160a01b0383163063ffffffff61104a16565b9050613a70826001600160a01b0316611499565b15613af25760408051638f6ede1f60e01b815230600482015290516001600160a01b03881691638f6ede1f91849160248082019260209290919082900301818588803b158015613abf57600080fd5b505af1158015613ad3573d6000803e3d6000fd5b50505050506040513d6020811015613aea57600080fd5b506113e69050565b613b0c6001600160a01b038316878363ffffffff61204016565b604080516340c10f1960e01b81523060048201526024810183905290516001600160a01b038816916340c10f199160448083019260209291908290030181600087803b15801561243f57600080fd5b505b6114148585858585613ee0565b6000613b7e826001600160a01b0316611499565b15613b8c57506000196114d0565b60408051600481526024810182526020810180516001600160e01b03166306fdde0360e01b178152915181516000936060936001600160a01b0388169361138893919290918291908083835b60208310613bf75780518252601f199092019160209182019101613bd8565b6001836020036101000a0380198251168184511680821785525050505050509050019150506000604051808303818686fa925050503d8060008114613c58576040519150601f19603f3d011682016040523d82523d6000602084013e613c5d565b606091505b509150915081613c7357600019925050506114d0565b6000805b8251816006011015613dcc57828160000181518110613c9257fe5b6020910101516001600160f81b031916602360f91b148015613cd55750828160010181518110613cbe57fe5b6020910101516001600160f81b031916607560f81b145b8015613d025750828160020181518110613ceb57fe5b6020910101516001600160f81b031916601b60fa1b145b8015613d2f5750828160030181518110613d1857fe5b6020910101516001600160f81b031916606360f81b145b8015613d5c5750828160040181518110613d4557fe5b6020910101516001600160f81b031916603960f91b145b8015613d895750828160050181518110613d7257fe5b6020910101516001600160f81b031916607560f81b145b8015613db65750828160060181518110613d9f57fe5b6020910101516001600160f81b031916606d60f81b145b15613dc45760019150613dcc565b600101613c77565b5080613ddf5760001993505050506114d0565b60408051600481526024810182526020810180516001600160e01b031663797bf38560e01b178152915181516001600160a01b038916936113889392918291908083835b60208310613e425780518252601f199092019160209182019101613e23565b6001836020036101000a0380198251168184511680821785525050505050509050019150506000604051808303818686fa925050503d8060008114613ea3576040519150601f19603f3d011682016040523d82523d6000602084013e613ea8565b606091505b50909350915082613ec05760001993505050506114d0565b818060200190516020811015613ed557600080fd5b505195945050505050565b61141485858585855b836001600160a01b0316856001600160a01b03161415613f0857611414565b613f1981608063ffffffff6115a716565b1515613f2f82634000000063ffffffff6115a716565b1515141561427957604080516354732ba160e11b81526001600160a01b0387166004820152905160009173ed8b133b7b88366e01bb9e38305ab11c265214949163a8e6574291602480820192602092909190829003018186803b158015613f9557600080fd5b505afa158015613fa9573d6000803e3d6000fd5b505050506040513d6020811015613fbf57600080fd5b505190506001600160a01b0381161561404357856001600160a01b031663db006a75856040518263ffffffff1660e01b815260040180828152602001915050600060405180830381600087803b15801561401857600080fd5b505af115801561402c573d6000803e3d6000fd5b5050505061403d8186868686613ee9565b50611414565b604080516354732ba160e11b81526001600160a01b0387166004820152905173ed8b133b7b88366e01bb9e38305ab11c265214949163a8e65742916024808301926020929190829003018186803b15801561409d57600080fd5b505afa1580156140b1573d6000803e3d6000fd5b505050506040513d60208110156140c757600080fd5b505190506001600160a01b03811615614277576140e78682868686614282565b60006141026001600160a01b0383163063ffffffff61104a16565b905061419773398ec7346dcd622edc5ae82352f02be94c62d1196001600160a01b031663f2f4eb266040518163ffffffff1660e01b815260040160206040518083038186803b15801561415457600080fd5b505afa158015614168573d6000803e3d6000fd5b505050506040513d602081101561417e57600080fd5b50516001600160a01b038416908363ffffffff61204016565b73398ec7346dcd622edc5ae82352f02be94c62d11963d2d0e0666141c36001600160a01b038516611499565b6141ce5760006141d0565b825b6141e2856001600160a01b0316611499565b6141ec5784614202565b73eeeeeeeeeeeeeeeeeeeeeeeeeeeeeeeeeeeeeeee5b604080516001600160e01b031960e086901b1681526001600160a01b0390921660048301526024820186905261044d604483015251606480830192600092919082900301818588803b15801561425757600080fd5b505af115801561426b573d6000803e3d6000fd5b50505050505050611414565b505b61141485858585855b836001600160a01b0316856001600160a01b031614156142a157611414565b6142b38161040063ffffffff6115a716565b15156142c982634000000063ffffffff6115a716565b151514156145a0576001600160a01b038516736a4ffaafa8dd400676df8076ad6c724867b0e2e8141561445657736a4ffaafa8dd400676df8076ad6c724867b0e2e86001600160a01b0316637f8661a1846040518263ffffffff1660e01b815260040180828152602001915050600060405180830381600087803b15801561435057600080fd5b505af1158015614364573d6000803e3d6000fd5b5050604080516370a0823160e01b815230600482015290516000935073b683d83a532e2cb7dfa5275eed3698436371cc9f92506370a0823191602480820192602092909190829003018186803b1580156143bd57600080fd5b505afa1580156143d1573d6000803e3d6000fd5b505050506040513d60208110156143e757600080fd5b50519050801561443b57606061441573b683d83a532e2cb7dfa5275eed3698436371cc9f878460018761078d565b91505061443973b683d83a532e2cb7dfa5275eed3698436371cc9f878484876110f4565b505b61403d6000805160206152b1833981519152868686866145a9565b6001600160a01b038416736a4ffaafa8dd400676df8076ad6c724867b0e2e814156145a057614496856000805160206152b18339815191528585856145a9565b604080516370a0823160e01b815230600482015290516000916000805160206152b1833981519152916370a0823191602480820192602092909190829003018186803b1580156144e557600080fd5b505afa1580156144f9573d6000803e3d6000fd5b505050506040513d602081101561450f57600080fd5b505190506145466000805160206152b1833981519152736a4ffaafa8dd400676df8076ad6c724867b0e2e88363ffffffff61204016565b736a4ffaafa8dd400676df8076ad6c724867b0e2e86001600160a01b031663049878f3826040518263ffffffff1660e01b815260040180828152602001915050600060405180830381600087803b1580156129fc57600080fd5b61141485858585855b836001600160a01b0316856001600160a01b031614156145c857611414565b6145d981604063ffffffff6115a716565b15156145ef82634000000063ffffffff6115a716565b1515141561485d576001600160a01b0385167306af07097c9eeb7fd685c692751d5c66db49c2151415614714576040805163ef693bed60e01b81523060048201526024810185905290517306af07097c9eeb7fd685c692751d5c66db49c2159163ef693bed91604480830192600092919082900301818387803b15801561467557600080fd5b505af1158015614689573d6000803e3d6000fd5b5050604080516370a0823160e01b815230600482015290516128e493506000805160206152b18339815191529250879183916370a0823191602480820192602092909190829003018186803b1580156146e157600080fd5b505afa1580156146f5573d6000803e3d6000fd5b505050506040513d602081101561470b57600080fd5b50518585614866565b6001600160a01b0384167306af07097c9eeb7fd685c692751d5c66db49c215141561485d57614754856000805160206152b1833981519152858585614866565b604080516370a0823160e01b815230600482015290516000916000805160206152b1833981519152916370a0823191602480820192602092909190829003018186803b1580156147a357600080fd5b505afa1580156147b7573d6000803e3d6000fd5b505050506040513d60208110156147cd57600080fd5b505190506148046000805160206152b18339815191527306af07097c9eeb7fd685c692751d5c66db49c2158363ffffffff61204016565b60408051633b4da69f60e01b81523060048201526024810183905290517306af07097c9eeb7fd685c692751d5c66db49c21591633b4da69f91604480830192600092919082900301818387803b1580156129fc57600080fd5b61141485858585855b836001600160a01b0316856001600160a01b0316141561488557611414565b61489b816502000000000063ffffffff6115a716565b15156148b182634000000063ffffffff6115a716565b151514156150ad576001600160a01b03851673e2f2a5c287993345a840db3b0845fbc70f5935a51415614df0576001600160a01b03841673a0b86991c6218b36c1d19d4a2e9eb0ce3606eb48148061491f57506001600160a01b0384166000805160206152b1833981519152145b8061494657506001600160a01b03841673dac17f958d2ee523a2206206994597c13d831ec7145b8061496857506001600160a01b0384166e085d4780b73119b644ae5ecd22b376145b15614b665760408051633b3fb85360e21b81526001600160a01b0387811660048301526024820186905286166044820152905160009173abcc93c3be238884cc3309c19afd128fafc169119163ecfee14c916064808201928692909190829003018186803b1580156149d957600080fd5b505afa1580156149ed573d6000803e3d6000fd5b505050506040513d6000823e601f3d908101601f191682016040526080811015614a1657600080fd5b815160208301805160405192949293830192919084600160201b821115614a3c57600080fd5b908301906020820185811115614a5157600080fd5b8251600160201b811182820188101715614a6a57600080fd5b82525081516020918201929091019080838360005b83811015614a97578181015183820152602001614a7f565b50505050905090810190601f168015614ac45780820380516001836020036101000a031916815260200191505b506040818152918201516301e9a69560e41b82526001600160a01b038c16600483015260248201819052915191965073e2f2a5c287993345a840db3b0845fbc70f5935a59550631e9a695094506044808201945060209350908290030181600087803b158015614b3357600080fd5b505af1158015614b47573d6000803e3d6000fd5b505050506040513d6020811015614b5d57600080fd5b506128e4915050565b60408051633b3fb85360e21b81526001600160a01b0387166004820152602481018590526000805160206152b18339815191526044820152905160009173abcc93c3be238884cc3309c19afd128fafc169119163ecfee14c916064808201928692909190829003018186803b158015614bde57600080fd5b505afa158015614bf2573d6000803e3d6000fd5b505050506040513d6000823e601f3d908101601f191682016040526080811015614c1b57600080fd5b815160208301805160405192949293830192919084600160201b821115614c4157600080fd5b908301906020820185811115614c5657600080fd5b8251600160201b811182820188101715614c6f57600080fd5b82525081516020918201929091019080838360005b83811015614c9c578181015183820152602001614c84565b50505050905090810190601f168015614cc95780820380516001836020036101000a031916815260200191505b506040818152918201516301e9a69560e41b82526000805160206152b1833981519152600483015260248201819052915191965073e2f2a5c287993345a840db3b0845fbc70f5935a59550631e9a695094506044808201945060209350908290030181600087803b158015614d3d57600080fd5b505af1158015614d51573d6000803e3d6000fd5b505050506040513d6020811015614d6757600080fd5b5050604080516370a0823160e01b8152306004820152905161403d916000805160206152b183398151915291889183916370a0823191602480820192602092909190829003018186803b158015614dbd57600080fd5b505afa158015614dd1573d6000803e3d6000fd5b505050506040513d6020811015614de757600080fd5b505186866150b6565b6001600160a01b03841673e2f2a5c287993345a840db3b0845fbc70f5935a514156150ad576001600160a01b03851673a0b86991c6218b36c1d19d4a2e9eb0ce3606eb481480614e5657506001600160a01b0385166000805160206152b1833981519152145b80614e7d57506001600160a01b03851673dac17f958d2ee523a2206206994597c13d831ec7145b80614e9f57506001600160a01b0385166e085d4780b73119b644ae5ecd22b376145b15614f7557614ed26001600160a01b03861673e2f2a5c287993345a840db3b0845fbc70f5935a58563ffffffff61204016565b60408051631ba0488760e21b81526001600160a01b0387811660048301528616602482015260448101859052306064820152905173e2f2a5c287993345a840db3b0845fbc70f5935a591636e81221c9160848083019260209291908290030181600087803b158015614f4357600080fd5b505af1158015614f57573d6000803e3d6000fd5b505050506040513d6020811015614f6d57600080fd5b506128e49050565b614f90856000805160206152b18339815191528585856150b6565b604080516370a0823160e01b8152306004820152905173e2f2a5c287993345a840db3b0845fbc70f5935a591636e81221c916000805160206152b183398151915291889183916370a08231916024808301926020929190829003018186803b158015614ffb57600080fd5b505afa15801561500f573d6000803e3d6000fd5b505050506040513d602081101561502557600080fd5b5051604080516001600160e01b031960e087901b1681526001600160a01b0394851660048201529290931660248301526044820152306064820152905160848083019260209291908290030181600087803b15801561508357600080fd5b505af1158015615097573d6000803e3d6000fd5b505050506040513d60208110156113e657600080fd5b61141485858585855b836001600160a01b0316856001600160a01b031614156150d557611414565b61141485858585856001546150fd906001600160a01b0387811691168563ffffffff61204016565b6001546001600160a01b039081169063e2a7515e9061511d908816611499565b61512857600061512a565b845b878787600088886040518863ffffffff1660e01b815260040180876001600160a01b03166001600160a01b03168152602001866001600160a01b03166001600160a01b0316815260200185815260200184815260200180602001838152602001828103825284818151815260200191508051906020019060200280838360005b838110156151c25781810151838201526020016151aa565b505050509050019750505050505050506020604051808303818588803b1580156151eb57600080fd5b505af11580156151ff573d6000803e3d6000fd5b50505050506040513d602081101561521657600080fd5b50505050505050565b60405180604001604052806002906020820280388339509192915050565b6040518061010001604052806008906020820280388339509192915050565b604051806101a00160405280600d90602082028038833950919291505056fe4f6e6553706c69743a2061637475616c2072657475726e20616d6f756e74206973206c657373207468616e206d696e52657475726e0000000000000000000000006b175474e89094c44da98b954eedeac495271d0f57726f6e6720757365616765206f66204554482e756e6976657273616c5472616e7366657246726f6d28295361666545524332303a204552433230206f7065726174696f6e20646964206e6f7420737563636565645361666545524332303a20617070726f76652066726f6d206e6f6e2d7a65726f20746f206e6f6e2d7a65726f20616c6c6f77616e6365a265627a7a7231582073e72125c8a9f76a0ed679bea23d58a83ee8e074b7eec09b4839b55b67b90b0364736f6c63430005110032",
  "source": "pragma solidity ^0.5.0;\n\nimport \"./IOneSplit.sol\";\nimport \"./OneSplitBase.sol\";\nimport \"./OneSplitCompound.sol\";\nimport \"./OneSplitFulcrum.sol\";\nimport \"./OneSplitChai.sol\";\nimport \"./OneSplitBdai.sol\";\nimport \"./OneSplitIearn.sol\";\nimport \"./OneSplitIdle.sol\";\nimport \"./OneSplitAave.sol\";\nimport \"./OneSplitWeth.sol\";\nimport \"./OneSplitMStable.sol\";\nimport \"./OneSplitDMM.sol\";\nimport \"./OneSplitMooniswapPoolToken.sol\";\n\n\ncontract OneSplitViewWrap is\n    OneSplitViewWrapBase,\n    OneSplitMStableView,\n    OneSplitChaiView,\n    OneSplitBdaiView,\n    OneSplitAaveView,\n    OneSplitFulcrumView,\n    OneSplitCompoundView,\n    OneSplitIearnView,\n    OneSplitIdleView,\n    OneSplitWethView,\n    OneSplitDMMView,\n    OneSplitMooniswapTokenView\n{\n    IOneSplitView public oneSplitView;\n\n    constructor(IOneSplitView _oneSplit) public {\n        oneSplitView = _oneSplit;\n    }\n\n    function getExpectedReturn(\n        IERC20 fromToken,\n        IERC20 destToken,\n        uint256 amount,\n        uint256 parts,\n        uint256 flags\n    )\n        public\n        view\n        returns(\n            uint256 returnAmount,\n            uint256[] memory distribution\n        )\n    {\n        (returnAmount, , distribution) = getExpectedReturnWithGas(\n            fromToken,\n            destToken,\n            amount,\n            parts,\n            flags,\n            0\n        );\n    }\n\n    function getExpectedReturnWithGas(\n        IERC20 fromToken,\n        IERC20 destToken,\n        uint256 amount,\n        uint256 parts,\n        uint256 flags, // See constants in IOneSplit.sol\n        uint256 destTokenEthPriceTimesGasPrice\n    )\n        public\n        view\n        returns(\n            uint256 returnAmount,\n            uint256 estimateGasAmount,\n            uint256[] memory distribution\n        )\n    {\n        if (fromToken == destToken) {\n            return (amount, 0, new uint256[](DEXES_COUNT));\n        }\n\n        return super.getExpectedReturnWithGas(\n            fromToken,\n            destToken,\n            amount,\n            parts,\n            flags,\n            destTokenEthPriceTimesGasPrice\n        );\n    }\n\n    function _getExpectedReturnRespectingGasFloor(\n        IERC20 fromToken,\n        IERC20 destToken,\n        uint256 amount,\n        uint256 parts,\n        uint256 flags,\n        uint256 destTokenEthPriceTimesGasPrice\n    )\n        internal\n        view\n        returns(\n            uint256 returnAmount,\n            uint256 estimateGasAmount,\n            uint256[] memory distribution\n        )\n    {\n        return oneSplitView.getExpectedReturnWithGas(\n            fromToken,\n            destToken,\n            amount,\n            parts,\n            flags,\n            destTokenEthPriceTimesGasPrice\n        );\n    }\n}\n\n\ncontract OneSplitWrap is\n    OneSplitBaseWrap,\n    OneSplitMStable,\n    OneSplitChai,\n    OneSplitBdai,\n    OneSplitAave,\n    OneSplitFulcrum,\n    OneSplitCompound,\n    OneSplitIearn,\n    OneSplitIdle,\n    OneSplitWeth,\n    OneSplitDMM,\n    OneSplitMooniswapToken\n{\n    IOneSplitView public oneSplitView;\n    IOneSplit public oneSplit;\n\n    constructor(IOneSplitView _oneSplitView, IOneSplit _oneSplit) public {\n        oneSplitView = _oneSplitView;\n        oneSplit = _oneSplit;\n    }\n\n    function() external payable {\n        // solium-disable-next-line security/no-tx-origin\n        require(msg.sender != tx.origin);\n    }\n\n    function getExpectedReturn(\n        IERC20 fromToken,\n        IERC20 destToken,\n        uint256 amount,\n        uint256 parts,\n        uint256 flags\n    )\n        public\n        view\n        returns(\n            uint256 returnAmount,\n            uint256[] memory distribution\n        )\n    {\n        (returnAmount, , distribution) = getExpectedReturnWithGas(\n            fromToken,\n            destToken,\n            amount,\n            parts,\n            flags,\n            0\n        );\n    }\n\n    function getExpectedReturnWithGas(\n        IERC20 fromToken,\n        IERC20 destToken,\n        uint256 amount,\n        uint256 parts,\n        uint256 flags,\n        uint256 destTokenEthPriceTimesGasPrice\n    )\n        public\n        view\n        returns(\n            uint256 returnAmount,\n            uint256 estimateGasAmount,\n            uint256[] memory distribution\n        )\n    {\n        return oneSplitView.getExpectedReturnWithGas(\n            fromToken,\n            destToken,\n            amount,\n            parts,\n            flags,\n            destTokenEthPriceTimesGasPrice\n        );\n    }\n\n    function getExpectedReturnWithGasMulti(\n        IERC20[] memory tokens,\n        uint256 amount,\n        uint256[] memory parts,\n        uint256[] memory flags,\n        uint256[] memory destTokenEthPriceTimesGasPrices\n    )\n        public\n        view\n        returns(\n            uint256[] memory returnAmounts,\n            uint256 estimateGasAmount,\n            uint256[] memory distribution\n        )\n    {\n        uint256[] memory dist;\n\n        returnAmounts = new uint256[](tokens.length - 1);\n        for (uint i = 1; i < tokens.length; i++) {\n            if (tokens[i - 1] == tokens[i]) {\n                returnAmounts[i - 1] = (i == 1) ? amount : returnAmounts[i - 2];\n                continue;\n            }\n\n            IERC20[] memory _tokens = tokens;\n\n            (\n                returnAmounts[i - 1],\n                amount,\n                dist\n            ) = getExpectedReturnWithGas(\n                _tokens[i - 1],\n                _tokens[i],\n                (i == 1) ? amount : returnAmounts[i - 2],\n                parts[i - 1],\n                flags[i - 1],\n                destTokenEthPriceTimesGasPrices[i - 1]\n            );\n            estimateGasAmount = estimateGasAmount.add(amount);\n\n            if (distribution.length == 0) {\n                distribution = new uint256[](dist.length);\n            }\n            for (uint j = 0; j < distribution.length; j++) {\n                distribution[j] = distribution[j].add(dist[j] << (8 * (i - 1)));\n            }\n        }\n    }\n\n    function swap(\n        IERC20 fromToken,\n        IERC20 destToken,\n        uint256 amount,\n        uint256 minReturn,\n        uint256[] memory distribution,\n        uint256 flags\n    ) public payable returns(uint256 returnAmount) {\n        fromToken.universalTransferFrom(msg.sender, address(this), amount);\n        uint256 confirmed = fromToken.universalBalanceOf(address(this));\n        _swap(fromToken, destToken, confirmed, distribution, flags);\n\n        returnAmount = destToken.universalBalanceOf(address(this));\n        require(returnAmount >= minReturn, \"OneSplit: actual return amount is less than minReturn\");\n        destToken.universalTransfer(msg.sender, returnAmount);\n        fromToken.universalTransfer(msg.sender, fromToken.universalBalanceOf(address(this)));\n    }\n\n    function swapMulti(\n        IERC20[] memory tokens,\n        uint256 amount,\n        uint256 minReturn,\n        uint256[] memory distribution,\n        uint256[] memory flags\n    ) public payable returns(uint256 returnAmount) {\n        tokens[0].universalTransferFrom(msg.sender, address(this), amount);\n\n        returnAmount = tokens[0].universalBalanceOf(address(this));\n        for (uint i = 1; i < tokens.length; i++) {\n            if (tokens[i - 1] == tokens[i]) {\n                continue;\n            }\n\n            uint256[] memory dist = new uint256[](distribution.length);\n            for (uint j = 0; j < distribution.length; j++) {\n                dist[j] = (distribution[j] >> (8 * (i - 1))) & 0xFF;\n            }\n\n            _swap(\n                tokens[i - 1],\n                tokens[i],\n                returnAmount,\n                dist,\n                flags[i - 1]\n            );\n            returnAmount = tokens[i].universalBalanceOf(address(this));\n            tokens[i - 1].universalTransfer(msg.sender, tokens[i - 1].universalBalanceOf(address(this)));\n        }\n\n        require(returnAmount >= minReturn, \"OneSplit: actual return amount is less than minReturn\");\n        tokens[tokens.length - 1].universalTransfer(msg.sender, returnAmount);\n    }\n\n    function _swapFloor(\n        IERC20 fromToken,\n        IERC20 destToken,\n        uint256 amount,\n        uint256[] memory distribution,\n        uint256 flags\n    ) internal {\n        fromToken.universalApprove(address(oneSplit), amount);\n        oneSplit.swap.value(fromToken.isETH() ? amount : 0)(\n            fromToken,\n            destToken,\n            amount,\n            0,\n            distribution,\n            flags\n        );\n    }\n}\n",
  "sourcePath": "/Users/caos/Downloads/1inchProtocol-master/contracts/OneSplit.sol",
  "compiler": {
    "name": "solc",
    "version": "0.5.17+commit.d19bba13.Emscripten.clang"
  },
  "schemaVersion": "3.2.5",
  "updatedAt": "2020-10-25T14:42:35.131Z",
  "devdoc": {
    "methods": {}
  },
  "userdoc": {
    "methods": {}
  }
}