{
  "contractName": "OneSplitAudit",
  "abi": [
    {
      "inputs": [
        {
          "internalType": "contract IOneSplitMulti",
          "name": "impl",
          "type": "address"
        }
      ],
      "payable": false,
      "stateMutability": "nonpayable",
      "type": "constructor"
    },
    {
      "anonymous": false,
      "inputs": [
        {
          "indexed": true,
          "internalType": "address",
          "name": "newImpl",
          "type": "address"
        }
      ],
      "name": "ImplementationUpdated",
      "type": "event"
    },
    {
      "anonymous": false,
      "inputs": [
        {
          "indexed": true,
          "internalType": "address",
          "name": "previousOwner",
          "type": "address"
        },
        {
          "indexed": true,
          "internalType": "address",
          "name": "newOwner",
          "type": "address"
        }
      ],
      "name": "OwnershipTransferred",
      "type": "event"
    },
    {
      "anonymous": false,
      "inputs": [
        {
          "indexed": true,
          "internalType": "contract IERC20",
          "name": "fromToken",
          "type": "address"
        },
        {
          "indexed": true,
          "internalType": "contract IERC20",
          "name": "destToken",
          "type": "address"
        },
        {
          "indexed": false,
          "internalType": "uint256",
          "name": "fromTokenAmount",
          "type": "uint256"
        },
        {
          "indexed": false,
          "internalType": "uint256",
          "name": "destTokenAmount",
          "type": "uint256"
        },
        {
          "indexed": false,
          "internalType": "uint256",
          "name": "minReturn",
          "type": "uint256"
        },
        {
          "indexed": false,
          "internalType": "uint256[]",
          "name": "distribution",
          "type": "uint256[]"
        },
        {
          "indexed": false,
          "internalType": "uint256[]",
          "name": "flags",
          "type": "uint256[]"
        },
        {
          "indexed": false,
          "internalType": "address",
          "name": "referral",
          "type": "address"
        },
        {
          "indexed": false,
          "internalType": "uint256",
          "name": "feePercent",
          "type": "uint256"
        }
      ],
      "name": "Swapped",
      "type": "event"
    },
    {
      "payable": true,
      "stateMutability": "payable",
      "type": "fallback"
    },
    {
      "constant": true,
      "inputs": [],
      "name": "chi",
      "outputs": [
        {
          "internalType": "contract IFreeFromUpTo",
          "name": "",
          "type": "address"
        }
      ],
      "payable": false,
      "stateMutability": "view",
      "type": "function"
    },
    {
      "constant": true,
      "inputs": [],
      "name": "isOwner",
      "outputs": [
        {
          "internalType": "bool",
          "name": "",
          "type": "bool"
        }
      ],
      "payable": false,
      "stateMutability": "view",
      "type": "function"
    },
    {
      "constant": true,
      "inputs": [],
      "name": "oneSplitImpl",
      "outputs": [
        {
          "internalType": "contract IOneSplitMulti",
          "name": "",
          "type": "address"
        }
      ],
      "payable": false,
      "stateMutability": "view",
      "type": "function"
    },
    {
      "constant": true,
      "inputs": [],
      "name": "owner",
      "outputs": [
        {
          "internalType": "address",
          "name": "",
          "type": "address"
        }
      ],
      "payable": false,
      "stateMutability": "view",
      "type": "function"
    },
    {
      "constant": false,
      "inputs": [],
      "name": "renounceOwnership",
      "outputs": [],
      "payable": false,
      "stateMutability": "nonpayable",
      "type": "function"
    },
    {
      "constant": false,
      "inputs": [
        {
          "internalType": "address",
          "name": "newOwner",
          "type": "address"
        }
      ],
      "name": "transferOwnership",
      "outputs": [],
      "payable": false,
      "stateMutability": "nonpayable",
      "type": "function"
    },
    {
      "constant": false,
      "inputs": [
        {
          "internalType": "contract IOneSplitMulti",
          "name": "impl",
          "type": "address"
        }
      ],
      "name": "setNewImpl",
      "outputs": [],
      "payable": false,
      "stateMutability": "nonpayable",
      "type": "function"
    },
    {
      "constant": true,
      "inputs": [
        {
          "internalType": "contract IERC20",
          "name": "fromToken",
          "type": "address"
        },
        {
          "internalType": "contract IERC20",
          "name": "destToken",
          "type": "address"
        },
        {
          "internalType": "uint256",
          "name": "amount",
          "type": "uint256"
        },
        {
          "internalType": "uint256",
          "name": "parts",
          "type": "uint256"
        },
        {
          "internalType": "uint256",
          "name": "flags",
          "type": "uint256"
        }
      ],
      "name": "getExpectedReturn",
      "outputs": [
        {
          "internalType": "uint256",
          "name": "returnAmount",
          "type": "uint256"
        },
        {
          "internalType": "uint256[]",
          "name": "distribution",
          "type": "uint256[]"
        }
      ],
      "payable": false,
      "stateMutability": "view",
      "type": "function"
    },
    {
      "constant": true,
      "inputs": [
        {
          "internalType": "contract IERC20",
          "name": "fromToken",
          "type": "address"
        },
        {
          "internalType": "contract IERC20",
          "name": "destToken",
          "type": "address"
        },
        {
          "internalType": "uint256",
          "name": "amount",
          "type": "uint256"
        },
        {
          "internalType": "uint256",
          "name": "parts",
          "type": "uint256"
        },
        {
          "internalType": "uint256",
          "name": "flags",
          "type": "uint256"
        },
        {
          "internalType": "uint256",
          "name": "destTokenEthPriceTimesGasPrice",
          "type": "uint256"
        }
      ],
      "name": "getExpectedReturnWithGas",
      "outputs": [
        {
          "internalType": "uint256",
          "name": "returnAmount",
          "type": "uint256"
        },
        {
          "internalType": "uint256",
          "name": "estimateGasAmount",
          "type": "uint256"
        },
        {
          "internalType": "uint256[]",
          "name": "distribution",
          "type": "uint256[]"
        }
      ],
      "payable": false,
      "stateMutability": "view",
      "type": "function"
    },
    {
      "constant": true,
      "inputs": [
        {
          "internalType": "contract IERC20[]",
          "name": "tokens",
          "type": "address[]"
        },
        {
          "internalType": "uint256",
          "name": "amount",
          "type": "uint256"
        },
        {
          "internalType": "uint256[]",
          "name": "parts",
          "type": "uint256[]"
        },
        {
          "internalType": "uint256[]",
          "name": "flags",
          "type": "uint256[]"
        },
        {
          "internalType": "uint256[]",
          "name": "destTokenEthPriceTimesGasPrices",
          "type": "uint256[]"
        }
      ],
      "name": "getExpectedReturnWithGasMulti",
      "outputs": [
        {
          "internalType": "uint256[]",
          "name": "returnAmounts",
          "type": "uint256[]"
        },
        {
          "internalType": "uint256",
          "name": "estimateGasAmount",
          "type": "uint256"
        },
        {
          "internalType": "uint256[]",
          "name": "distribution",
          "type": "uint256[]"
        }
      ],
      "payable": false,
      "stateMutability": "view",
      "type": "function"
    },
    {
      "constant": false,
      "inputs": [
        {
          "internalType": "contract IERC20",
          "name": "fromToken",
          "type": "address"
        },
        {
          "internalType": "contract IERC20",
          "name": "destToken",
          "type": "address"
        },
        {
          "internalType": "uint256",
          "name": "amount",
          "type": "uint256"
        },
        {
          "internalType": "uint256",
          "name": "minReturn",
          "type": "uint256"
        },
        {
          "internalType": "uint256[]",
          "name": "distribution",
          "type": "uint256[]"
        },
        {
          "internalType": "uint256",
          "name": "flags",
          "type": "uint256"
        }
      ],
      "name": "swap",
      "outputs": [
        {
          "internalType": "uint256",
          "name": "",
          "type": "uint256"
        }
      ],
      "payable": true,
      "stateMutability": "payable",
      "type": "function"
    },
    {
      "constant": false,
      "inputs": [
        {
          "internalType": "contract IERC20",
          "name": "fromToken",
          "type": "address"
        },
        {
          "internalType": "contract IERC20",
          "name": "destToken",
          "type": "address"
        },
        {
          "internalType": "uint256",
          "name": "amount",
          "type": "uint256"
        },
        {
          "internalType": "uint256",
          "name": "minReturn",
          "type": "uint256"
        },
        {
          "internalType": "uint256[]",
          "name": "distribution",
          "type": "uint256[]"
        },
        {
          "internalType": "uint256",
          "name": "flags",
          "type": "uint256"
        },
        {
          "internalType": "address",
          "name": "referral",
          "type": "address"
        },
        {
          "internalType": "uint256",
          "name": "feePercent",
          "type": "uint256"
        }
      ],
      "name": "swapWithReferral",
      "outputs": [
        {
          "internalType": "uint256",
          "name": "",
          "type": "uint256"
        }
      ],
      "payable": true,
      "stateMutability": "payable",
      "type": "function"
    },
    {
      "constant": false,
      "inputs": [
        {
          "internalType": "contract IERC20[]",
          "name": "tokens",
          "type": "address[]"
        },
        {
          "internalType": "uint256",
          "name": "amount",
          "type": "uint256"
        },
        {
          "internalType": "uint256",
          "name": "minReturn",
          "type": "uint256"
        },
        {
          "internalType": "uint256[]",
          "name": "distribution",
          "type": "uint256[]"
        },
        {
          "internalType": "uint256[]",
          "name": "flags",
          "type": "uint256[]"
        }
      ],
      "name": "swapMulti",
      "outputs": [
        {
          "internalType": "uint256",
          "name": "",
          "type": "uint256"
        }
      ],
      "payable": true,
      "stateMutability": "payable",
      "type": "function"
    },
    {
      "constant": false,
      "inputs": [
        {
          "internalType": "contract IERC20[]",
          "name": "tokens",
          "type": "address[]"
        },
        {
          "internalType": "uint256",
          "name": "amount",
          "type": "uint256"
        },
        {
          "internalType": "uint256",
          "name": "minReturn",
          "type": "uint256"
        },
        {
          "internalType": "uint256[]",
          "name": "distribution",
          "type": "uint256[]"
        },
        {
          "internalType": "uint256[]",
          "name": "flags",
          "type": "uint256[]"
        },
        {
          "internalType": "address",
          "name": "referral",
          "type": "address"
        },
        {
          "internalType": "uint256",
          "name": "feePercent",
          "type": "uint256"
        }
      ],
      "name": "swapWithReferralMulti",
      "outputs": [
        {
          "internalType": "uint256",
          "name": "returnAmount",
          "type": "uint256"
        }
      ],
      "payable": true,
      "stateMutability": "payable",
      "type": "function"
    },
    {
      "constant": false,
      "inputs": [
        {
          "internalType": "contract IERC20",
          "name": "asset",
          "type": "address"
        },
        {
          "internalType": "uint256",
          "name": "amount",
          "type": "uint256"
        }
      ],
      "name": "claimAsset",
      "outputs": [],
      "payable": false,
      "stateMutability": "nonpayable",
      "type": "function"
    }
  ],
  "bytecode": "0x60806040523480156200001157600080fd5b5060405162002def38038062002def833981810160405260208110156200003757600080fd5b505160006200004e6001600160e01b03620000b316565b600080546001600160a01b0319166001600160a01b0383169081178255604051929350917f8be0079c531659141344cd1fd0a4f28419497f9722a3daafe3b4186f6b6457e0908290a350620000ac816001600160e01b03620000b716565b5062000195565b3390565b620000ca6001600160e01b036200016616565b6200011c576040805162461bcd60e51b815260206004820181905260248201527f4f776e61626c653a2063616c6c6572206973206e6f7420746865206f776e6572604482015290519081900360640190fd5b600180546001600160a01b0319166001600160a01b0383169081179091556040517f310ba5f1d2ed074b51e2eccd052a47ae9ab7c6b800d1fca3db3999d6a592ca0390600090a250565b600080546001600160a01b0316620001866001600160e01b03620000b316565b6001600160a01b031614905090565b612c4a80620001a56000396000f3fe6080604052600436106100e85760003560e01c80638f32d59b1161008a578063c92aecc411610059578063c92aecc4146108f4578063e2a7515e14610909578063e3a5ab78146109d1578063f2fde38b14610b90576100e8565b80638f32d59b146106ae578063b26413f8146106d7578063ba4917b31461070a578063c785139614610743576100e8565b80637b33701a116100c65780637b33701a146102d55780638373f265146105b1578063867807ca146106685780638da5cb5b14610699576100e8565b8063085e2c5b146101295780634080eb7e146101d3578063715018a6146102c0575b333214156101275760405162461bcd60e51b8152600401808060200182810382526022815260200180612a7c6022913960400191505060405180910390fd5b005b34801561013557600080fd5b50610178600480360360a081101561014c57600080fd5b506001600160a01b03813581169160208101359091169060408101359060608101359060800135610bc3565b6040518083815260200180602001828103825283818151815260200191508051906020019060200280838360005b838110156101be5781810151838201526020016101a6565b50505050905001935050505060405180910390f35b6102ae60048036036101008110156101ea57600080fd5b6001600160a01b03823581169260208101359091169160408201359160608101359181019060a081016080820135600160201b81111561022957600080fd5b82018360208201111561023b57600080fd5b803590602001918460208302840111600160201b8311171561025c57600080fd5b9190808060200260200160405190810160405280939291908181526020018383602002808284376000920191909152509295505082359350505060208101356001600160a01b03169060400135610be6565b60408051918252519081900360200190f35b3480156102cc57600080fd5b50610127610cbc565b3480156102e157600080fd5b50610511600480360360a08110156102f857600080fd5b810190602081018135600160201b81111561031257600080fd5b82018360208201111561032457600080fd5b803590602001918460208302840111600160201b8311171561034557600080fd5b91908080602002602001604051908101604052809392919081815260200183836020028082843760009201919091525092958435959094909350604081019250602001359050600160201b81111561039c57600080fd5b8201836020820111156103ae57600080fd5b803590602001918460208302840111600160201b831117156103cf57600080fd5b9190808060200260200160405190810160405280939291908181526020018383602002808284376000920191909152509295949360208101935035915050600160201b81111561041e57600080fd5b82018360208201111561043057600080fd5b803590602001918460208302840111600160201b8311171561045157600080fd5b9190808060200260200160405190810160405280939291908181526020018383602002808284376000920191909152509295949360208101935035915050600160201b8111156104a057600080fd5b8201836020820111156104b257600080fd5b803590602001918460208302840111600160201b831117156104d357600080fd5b919080806020026020016040519081016040528093929190818152602001838360200280828437600092019190915250929550610d4d945050505050565b604051808060200184815260200180602001838103835286818151815260200191508051906020019060200280838360005b8381101561055b578181015183820152602001610543565b50505050905001838103825284818151815260200191508051906020019060200280838360005b8381101561059a578181015183820152602001610582565b505050509050019550505050505060405180910390f35b3480156105bd57600080fd5b50610606600480360360c08110156105d457600080fd5b506001600160a01b03813581169160208101359091169060408101359060608101359060808101359060a0013561102c565b6040518084815260200183815260200180602001828103825283818151815260200191508051906020019060200280838360005b8381101561065257818101518382015260200161063a565b5050505090500194505050505060405180910390f35b34801561067457600080fd5b5061067d611187565b604080516001600160a01b039092168252519081900360200190f35b3480156106a557600080fd5b5061067d611196565b3480156106ba57600080fd5b506106c36111a5565b604080519115158252519081900360200190f35b3480156106e357600080fd5b50610127600480360360208110156106fa57600080fd5b50356001600160a01b03166111c9565b34801561071657600080fd5b506101276004803603604081101561072d57600080fd5b506001600160a01b03813516906020013561125a565b6102ae600480360360a081101561075957600080fd5b810190602081018135600160201b81111561077357600080fd5b82018360208201111561078557600080fd5b803590602001918460208302840111600160201b831117156107a657600080fd5b9190808060200260200160405190810160405280939291908181526020018383602002808284376000920191909152509295843595602086013595919450925060608101915060400135600160201b81111561080157600080fd5b82018360208201111561081357600080fd5b803590602001918460208302840111600160201b8311171561083457600080fd5b9190808060200260200160405190810160405280939291908181526020018383602002808284376000920191909152509295949360208101935035915050600160201b81111561088357600080fd5b82018360208201111561089557600080fd5b803590602001918460208302840111600160201b831117156108b657600080fd5b9190808060200260200160405190810160405280939291908181526020018383602002808284376000920191909152509295506112c0945050505050565b34801561090057600080fd5b5061067d6112dc565b6102ae600480360360c081101561091f57600080fd5b6001600160a01b03823581169260208101359091169160408201359160608101359181019060a081016080820135600160201b81111561095e57600080fd5b82018360208201111561097057600080fd5b803590602001918460208302840111600160201b8311171561099157600080fd5b91908080602002602001604051908101604052809392919081815260200183836020028082843760009201919091525092955050913592506112ee915050565b6102ae600480360360e08110156109e757600080fd5b810190602081018135600160201b811115610a0157600080fd5b820183602082011115610a1357600080fd5b803590602001918460208302840111600160201b83111715610a3457600080fd5b9190808060200260200160405190810160405280939291908181526020018383602002808284376000920191909152509295843595602086013595919450925060608101915060400135600160201b811115610a8f57600080fd5b820183602082011115610aa157600080fd5b803590602001918460208302840111600160201b83111715610ac257600080fd5b9190808060200260200160405190810160405280939291908181526020018383602002808284376000920191909152509295949360208101935035915050600160201b811115610b1157600080fd5b820183602082011115610b2357600080fd5b803590602001918460208302840111600160201b83111715610b4457600080fd5b919080806020026020016040519081016040528093929190818152602001838360200280828437600092019190915250929550506001600160a01b03833516935050506020013561130c565b348015610b9c57600080fd5b5061012760048036036020811015610bb357600080fd5b50356001600160a01b0316611b1a565b60006060610bd68787878787600061102c565b9199919850909650505050505050565b60408051600280825260608083018452600093909291906020830190803883390190505090508981600081518110610c1a57fe5b60200260200101906001600160a01b031690816001600160a01b0316815250508881600181518110610c4857fe5b6001600160a01b03909216602092830291909101909101526040805160018082528183019092526060918160200160208202803883390190505090508581600081518110610c9257fe5b602002602001018181525050610cad828a8a8a858a8a61130c565b50505098975050505050505050565b610cc46111a5565b610d03576040805162461bcd60e51b81526020600482018190526024820152600080516020612b96833981519152604482015290519081900360640190fd5b600080546040516001600160a01b03909116907f8be0079c531659141344cd1fd0a4f28419497f9722a3daafe3b4186f6b6457e0908390a3600080546001600160a01b0319169055565b606060006060600160009054906101000a90046001600160a01b03166001600160a01b0316637b33701a89898989896040518663ffffffff1660e01b8152600401808060200186815260200180602001806020018060200185810385528a818151815260200191508051906020019060200280838360005b83811015610ddd578181015183820152602001610dc5565b50505050905001858103845288818151815260200191508051906020019060200280838360005b83811015610e1c578181015183820152602001610e04565b50505050905001858103835287818151815260200191508051906020019060200280838360005b83811015610e5b578181015183820152602001610e43565b50505050905001858103825286818151815260200191508051906020019060200280838360005b83811015610e9a578181015183820152602001610e82565b50505050905001995050505050505050505060006040518083038186803b158015610ec457600080fd5b505afa158015610ed8573d6000803e3d6000fd5b505050506040513d6000823e601f3d908101601f191682016040526060811015610f0157600080fd5b8101908080516040519392919084600160201b821115610f2057600080fd5b908301906020820185811115610f3557600080fd5b82518660208202830111600160201b82111715610f5157600080fd5b82525081516020918201928201910280838360005b83811015610f7e578181015183820152602001610f66565b505050509050016040526020018051906020019092919080516040519392919084600160201b821115610fb057600080fd5b908301906020820185811115610fc557600080fd5b82518660208202830111600160201b82111715610fe157600080fd5b82525081516020918201928201910280838360005b8381101561100e578181015183820152602001610ff6565b50505050905001604052505050925092509250955095509592505050565b60015460408051638373f26560e01b81526001600160a01b038981166004830152888116602483015260448201889052606482018790526084820186905260a4820185905291516000938493606093911691638373f2659160c4808201928792909190829003018186803b1580156110a357600080fd5b505afa1580156110b7573d6000803e3d6000fd5b505050506040513d6000823e601f3d908101601f1916820160405260608110156110e057600080fd5b81516020830151604080850180519151939592948301929184600160201b82111561110a57600080fd5b90830190602082018581111561111f57600080fd5b82518660208202830111600160201b8211171561113b57600080fd5b82525081516020918201928201910280838360005b83811015611168578181015183820152602001611150565b5050505090500160405250505092509250925096509650969350505050565b6001546001600160a01b031681565b6000546001600160a01b031690565b600080546001600160a01b03166111ba611b6d565b6001600160a01b031614905090565b6111d16111a5565b611210576040805162461bcd60e51b81526020600482018190526024820152600080516020612b96833981519152604482015290519081900360640190fd5b600180546001600160a01b0319166001600160a01b0383169081179091556040517f310ba5f1d2ed074b51e2eccd052a47ae9ab7c6b800d1fca3db3999d6a592ca0390600090a250565b6112626111a5565b6112a1576040805162461bcd60e51b81526020600482018190526024820152600080516020612b96833981519152604482015290519081900360640190fd5b6112bb6001600160a01b038316338363ffffffff611b7116565b505050565b60006112d2868686868660008061130c565b5095945050505050565b6d4946c0e9f43f4dee607b0ef1fa1c81565b6000611301878787878787600080610be6565b979650505050505050565b600060028851101580156113205750600087115b611371576040805162461bcd60e51b815260206004820152601d60248201527f4f6e6553706c69743a2073776170206d616b6573206e6f2073656e7365000000604482015290519081900360640190fd5b60018851038451146113b45760405162461bcd60e51b8152600401808060200182810382526027815260200180612b1a6027913960400191505060405180910390fd5b6113ce6113c089611bef565b6001600160a01b0316611c0d565b15153415151461140f5760405162461bcd60e51b8152600401808060200182810382526034815260200180612b416034913960400191505060405180910390fd5b666a94d74f4300008211156114555760405162461bcd60e51b8152600401808060200182810382526021815260200180612af96021913960400191505060405180910390fd5b60005a9050611462612a61565b61146d8a6001611c47565b90506000198914156115925761158f6114858b611bef565b6001600160a01b03166370a08231336040518263ffffffff1660e01b815260040180826001600160a01b03166001600160a01b0316815260200191505060206040518083038186803b1580156114da57600080fd5b505afa1580156114ee573d6000803e3d6000fd5b505050506040513d602081101561150457600080fd5b505161150f8c611bef565b60408051636eb1769f60e11b815233600482015230602482015290516001600160a01b03929092169163dd62ed3e91604480820192602092909190829003018186803b15801561155e57600080fd5b505afa158015611572573d6000803e3d6000fd5b505050506040513d602081101561158857600080fd5b5051611c93565b98505b6115b48961159f8c611bef565b6001600160a01b03169063ffffffff611ca916565b60006115ec82600001516115e0306115cb8f611bef565b6001600160a01b03169063ffffffff611d2b16565b9063ffffffff611dd516565b60015490915061161f906001600160a01b0316826116098e611bef565b6001600160a01b0316919063ffffffff611e1716565b6001546001600160a01b031663c785139661163c6113c08e611bef565b611647576000611649565b825b8d848d8d8d6040518763ffffffff1660e01b815260040180806020018681526020018581526020018060200180602001848103845289818151815260200191508051906020019060200280838360005b838110156116b1578181015183820152602001611699565b50505050905001848103835286818151815260200191508051906020019060200280838360005b838110156116f05781810151838201526020016116d8565b50505050905001848103825285818151815260200191508051906020019060200280838360005b8381101561172f578181015183820152602001611717565b50505050905001985050505050505050506020604051808303818588803b15801561175957600080fd5b505af115801561176d573d6000803e3d6000fd5b50505050506040513d602081101561178457600080fd5b5061178f9050612a61565b61179a8c6000611c47565b90506117b783602001518260200151611dd590919063ffffffff16565b9450898510156117f85760405162461bcd60e51b8152600401808060200182810382526035815260200180612ac46035913960400191505060405180910390fd5b61184387611824670de0b6b3a7640000611818898b63ffffffff611f1116565b9063ffffffff611f6a16565b61182d8f611fac565b6001600160a01b0316919063ffffffff611b7116565b5061187433611824611867670de0b6b3a76400006118188a8c63ffffffff611f1116565b889063ffffffff611dd516565b5061187e8c611fac565b6001600160a01b03166118908d611bef565b6001600160a01b03167f97dab93572c2c66c701e75607e2db4045d7b8d0765335338b556929b940707e28d888e8e8e8e8e604051808881526020018781526020018681526020018060200180602001856001600160a01b03166001600160a01b03168152602001848152602001838103835287818151815260200191508051906020019060200280838360005b8381101561193557818101518382015260200161191d565b50505050905001838103825286818151815260200191508051906020019060200280838360005b8381101561197457818101518382015260200161195c565b50505050905001995050505050505050505060405180910390a38251815111156119bc57825181516119ba9133916119b19163ffffffff611dd516565b61182d8f611bef565b505b60006001603e1b6501000000000017896000815181106119d857fe5b6020026020010151161115611a38576000601036025a866152080103019050611a3260006001603e1b8b600081518110611a0e57fe5b60200260200101511611611a225733611a24565b325b61a3db61374a840104611fbe565b50611b0b565b6000668000000000000089600081518110611a4f57fe5b6020026020010151161115611b0b576000601036025a866152080103019050876001600160a01b031663bc3d0d7882886000366040518563ffffffff1660e01b815260040180858152602001848152602001806020018281038252848482818152602001925080828437600081840152601f19601f82011690508083019250505095505050505050600060405180830381600087803b158015611af157600080fd5b505af1158015611b05573d6000803e3d6000fd5b50505050505b50505050979650505050505050565b611b226111a5565b611b61576040805162461bcd60e51b81526020600482018190526024820152600080516020612b96833981519152604482015290519081900360640190fd5b611b6a8161230b565b50565b3390565b600081611b8057506001611be8565b611b8984611c0d565b15611bca576040516001600160a01b0384169083156108fc029084906000818181858888f19350505050158015611bc4573d6000803e3d6000fd5b50611be8565b611be46001600160a01b038516848463ffffffff6123ab16565b5060015b9392505050565b600081600081518110611bfe57fe5b60200260200101519050919050565b60006001600160a01b0382161580611c4157506001600160a01b03821673eeeeeeeeeeeeeeeeeeeeeeeeeeeeeeeeeeeeeeee145b92915050565b611c4f612a61565b6040518060400160405280611c7884611c69576000611c6b565b345b6115e0306115cb89611bef565b8152602001611c8a306115cb87611fac565b90529392505050565b6000818310611ca25781611be8565b5090919050565b80611cb357611d27565b611cbc82611c0d565b15611d0c5780341115611d0757336108fc611cdd348463ffffffff611dd516565b6040518115909202916000818181858888f19350505050158015611d05573d6000803e3d6000fd5b505b611d27565b611d276001600160a01b03831633308463ffffffff6123fd16565b5050565b6000611d3683611c0d565b15611d4c57506001600160a01b03811631611c41565b826001600160a01b03166370a08231836040518263ffffffff1660e01b815260040180826001600160a01b03166001600160a01b0316815260200191505060206040518083038186803b158015611da257600080fd5b505afa158015611db6573d6000803e3d6000fd5b505050506040513d6020811015611dcc57600080fd5b50519050611c41565b6000611be883836040518060400160405280601e81526020017f536166654d6174683a207375627472616374696f6e206f766572666c6f770000815250612457565b611e2083611c0d565b6112bb5780611e4957611e446001600160a01b03841683600063ffffffff6124ee16565b6112bb565b60408051636eb1769f60e11b81523060048201526001600160a01b038481166024830152915160009286169163dd62ed3e916044808301926020929190829003018186803b158015611e9a57600080fd5b505afa158015611eae573d6000803e3d6000fd5b505050506040513d6020811015611ec457600080fd5b5051905081811015611f0b578015611ef157611ef16001600160a01b03851684600063ffffffff6124ee16565b611f0b6001600160a01b038516848463ffffffff6124ee16565b50505050565b600082611f2057506000611c41565b82820282848281611f2d57fe5b0414611be85760405162461bcd60e51b8152600401808060200182810382526021815260200180612b756021913960400191505060405180910390fd5b6000611be883836040518060400160405280601a81526020017f536166654d6174683a206469766973696f6e206279207a65726f000000000000815250612601565b600081600183510381518110611bfe57fe5b73a6f3ef841d371a82ca757fad08efc0dee2f1f5e26000612003826d4946c0e9f43f4dee607b0ef1fa1c73c02aaa39b223fe8d0a0e5c4f27ead9083c756cc286612666565b509091506000905061202d3a6120218661465063ffffffff611f1116565b9063ffffffff611f1116565b90506120516120443a618ca063ffffffff611f1116565b829063ffffffff61281316565b8210156120e7576040805163079d229f60e01b81526001600160a01b03871660048201526024810186905290516d4946c0e9f43f4dee607b0ef1fa1c9163079d229f9160448083019260209291908290030181600087803b1580156120b557600080fd5b505af11580156120c9573d6000803e3d6000fd5b505050506040513d60208110156120df57600080fd5b506123049050565b604080516323b872dd60e01b81526001600160a01b038781166004830152851660248201526044810186905290516d4946c0e9f43f4dee607b0ef1fa1c916323b872dd9160648083019260209291908290030181600087803b15801561214c57600080fd5b505af1158015612160573d6000803e3d6000fd5b505050506040513d602081101561217657600080fd5b50506040805163022c0d9f60e01b815260006004820181905260248201859052306044830152608060648301526084820181905291516001600160a01b0386169263022c0d9f9260c4808201939182900301818387803b1580156121d957600080fd5b505af11580156121ed573d6000803e3d6000fd5b5050604080516370a0823160e01b8152306004820152905173c02aaa39b223fe8d0a0e5c4f27ead9083c756cc29350632e1a7d4d925083916370a08231916024808301926020929190829003018186803b15801561224a57600080fd5b505afa15801561225e573d6000803e3d6000fd5b505050506040513d602081101561227457600080fd5b5051604080516001600160e01b031960e085901b168152600481019290925251602480830192600092919082900301818387803b1580156122b457600080fd5b505af11580156122c8573d6000803e3d6000fd5b50506040516001600160a01b03881692504780156108fc029250906000818181858888f19350505050158015612302573d6000803e3d6000fd5b505b5050505050565b6001600160a01b0381166123505760405162461bcd60e51b8152600401808060200182810382526026815260200180612a9e6026913960400191505060405180910390fd5b600080546040516001600160a01b03808516939216917f8be0079c531659141344cd1fd0a4f28419497f9722a3daafe3b4186f6b6457e091a3600080546001600160a01b0319166001600160a01b0392909216919091179055565b604080516001600160a01b038416602482015260448082018490528251808303909101815260649091019091526020810180516001600160e01b031663a9059cbb60e01b1790526112bb90849061286d565b604080516001600160a01b0385811660248301528416604482015260648082018490528251808303909101815260849091019091526020810180516001600160e01b03166323b872dd60e01b179052611f0b90859061286d565b600081848411156124e65760405162461bcd60e51b81526004018080602001828103825283818151815260200191508051906020019080838360005b838110156124ab578181015183820152602001612493565b50505050905090810190601f1680156124d85780820380516001836020036101000a031916815260200191505b509250505060405180910390fd5b505050900390565b801580612574575060408051636eb1769f60e11b81523060048201526001600160a01b03848116602483015291519185169163dd62ed3e91604480820192602092909190829003018186803b15801561254657600080fd5b505afa15801561255a573d6000803e3d6000fd5b505050506040513d602081101561257057600080fd5b5051155b6125af5760405162461bcd60e51b8152600401808060200182810382526036815260200180612be06036913960400191505060405180910390fd5b604080516001600160a01b038416602482015260448082018490528251808303909101815260649091019091526020810180516001600160e01b031663095ea7b360e01b1790526112bb90849061286d565b600081836126505760405162461bcd60e51b81526020600482018181528351602484015283519092839260449091019190850190808383600083156124ab578181015183820152602001612493565b50600083858161265c57fe5b0495945050505050565b60008080806126846001600160a01b0388168963ffffffff611d2b16565b905060006126a16001600160a01b0388168a63ffffffff611d2b16565b90506000808a6001600160a01b0316630902f1ac6040518163ffffffff1660e01b815260040160606040518083038186803b1580156126df57600080fd5b505afa1580156126f3573d6000803e3d6000fd5b505050506040513d606081101561270957600080fd5b50805160209091015190925090506001600160a01b03808a16908b16111561272d57905b816001600160701b031684108061274c5750806001600160701b031683105b9550851580156127765750816001600160701b03168411806127765750806001600160701b031683115b9450600061278c896103e563ffffffff611f1116565b905060006127b36127a686856001600160701b0316611c93565b839063ffffffff611f1116565b905060006127e0836127d46103e86120218b8a6001600160701b0316611c93565b9063ffffffff61281316565b905080156127fd576127f8828263ffffffff611f6a16565b612800565b60005b9950505050505050509450945094915050565b600082820183811015611be8576040805162461bcd60e51b815260206004820152601b60248201527f536166654d6174683a206164646974696f6e206f766572666c6f770000000000604482015290519081900360640190fd5b61287f826001600160a01b0316612a25565b6128d0576040805162461bcd60e51b815260206004820152601f60248201527f5361666545524332303a2063616c6c20746f206e6f6e2d636f6e747261637400604482015290519081900360640190fd5b60006060836001600160a01b0316836040518082805190602001908083835b6020831061290e5780518252601f1990920191602091820191016128ef565b6001836020036101000a0380198251168184511680821785525050505050509050019150506000604051808303816000865af19150503d8060008114612970576040519150601f19603f3d011682016040523d82523d6000602084013e612975565b606091505b5091509150816129cc576040805162461bcd60e51b815260206004820181905260248201527f5361666545524332303a206c6f772d6c6576656c2063616c6c206661696c6564604482015290519081900360640190fd5b805115611f0b578080602001905160208110156129e857600080fd5b5051611f0b5760405162461bcd60e51b815260040180806020018281038252602a815260200180612bb6602a913960400191505060405180910390fd5b6000813f7fc5d2460186f7233c927e7db2dcc703c0e500b653ca82273b7bfad8045d85a470818114801590612a5957508115155b949350505050565b60405180604001604052806000815260200160008152509056fe4f6e6553706c69743a20646f206e6f742073656e6420455448206469726563746c794f776e61626c653a206e6577206f776e657220697320746865207a65726f20616464726573734f6e6553706c69743a2061637475616c2072657475726e20616d6f756e74206973206c657373207468616e206d696e52657475726e4f6e6553706c69743a2066656550657263656e74206f7574206f662072616e67654f6e6553706c69743a20666c616773206172726179206c656e67746820697320696e76616c69644f6e6553706c69743a206d73672e76616c75652073686f756c642062652075736564206f6e6c7920666f72204554482073776170536166654d6174683a206d756c7469706c69636174696f6e206f766572666c6f774f776e61626c653a2063616c6c6572206973206e6f7420746865206f776e65725361666545524332303a204552433230206f7065726174696f6e20646964206e6f7420737563636565645361666545524332303a20617070726f76652066726f6d206e6f6e2d7a65726f20746f206e6f6e2d7a65726f20616c6c6f77616e6365a265627a7a723158203a2ac586c0978c44afe84045c8896a810c285c399465349f1342ab8ffe1efb8b64736f6c63430005110032",
  "source": "pragma solidity ^0.5.0;\n\nimport \"@openzeppelin/contracts/math/Math.sol\";\nimport \"@openzeppelin/contracts/ownership/Ownable.sol\";\nimport \"./interface/IWETH.sol\";\nimport \"./interface/IUniswapV2Exchange.sol\";\nimport \"./IOneSplit.sol\";\nimport \"./UniversalERC20.sol\";\n\n\ncontract IFreeFromUpTo is IERC20 {\n    function freeFromUpTo(address from, uint256 value) external returns(uint256 freed);\n}\n\ninterface IReferralGasSponsor {\n    function makeGasDiscount(\n        uint256 gasSpent,\n        uint256 returnAmount,\n        bytes calldata msgSenderCalldata\n    ) external;\n}\n\n\nlibrary Array {\n    function first(IERC20[] memory arr) internal pure returns(IERC20) {\n        return arr[0];\n    }\n\n    function last(IERC20[] memory arr) internal pure returns(IERC20) {\n        return arr[arr.length - 1];\n    }\n}\n\n\n//\n// Security assumptions:\n// 1. It is safe to have infinite approves of any tokens to this smart contract,\n//    since it could only call `transferFrom()` with first argument equal to msg.sender\n// 2. It is safe to call `swap()` with reliable `minReturn` argument,\n//    if returning amount will not reach `minReturn` value whole swap will be reverted.\n// 3. Additionally CHI tokens could be burned from caller in case of FLAG_ENABLE_CHI_BURN (0x10000000000)\n//    presented in `flags` or from transaction origin in case of FLAG_ENABLE_CHI_BURN_BY_ORIGIN (0x4000000000000000)\n//    presented in `flags`. Burned amount would refund up to 43% of gas fees.\n//\ncontract OneSplitAudit is IOneSplit, Ownable {\n    using SafeMath for uint256;\n    using UniversalERC20 for IERC20;\n    using Array for IERC20[];\n\n    IWETH constant internal weth = IWETH(0xC02aaA39b223FE8D0A0e5C4F27eAD9083C756Cc2);\n    IFreeFromUpTo public constant chi = IFreeFromUpTo(0x0000000000004946c0e9F43F4Dee607b0eF1fA1c);\n\n    IOneSplitMulti public oneSplitImpl;\n\n    event ImplementationUpdated(address indexed newImpl);\n\n    event Swapped(\n        IERC20 indexed fromToken,\n        IERC20 indexed destToken,\n        uint256 fromTokenAmount,\n        uint256 destTokenAmount,\n        uint256 minReturn,\n        uint256[] distribution,\n        uint256[] flags,\n        address referral,\n        uint256 feePercent\n    );\n\n    constructor(IOneSplitMulti impl) public {\n        setNewImpl(impl);\n    }\n\n    function() external payable {\n        // solium-disable-next-line security/no-tx-origin\n        require(msg.sender != tx.origin, \"OneSplit: do not send ETH directly\");\n    }\n\n    function setNewImpl(IOneSplitMulti impl) public onlyOwner {\n        oneSplitImpl = impl;\n        emit ImplementationUpdated(address(impl));\n    }\n\n    /// @notice Calculate expected returning amount of `destToken`\n    /// @param fromToken (IERC20) Address of token or `address(0)` for Ether\n    /// @param destToken (IERC20) Address of token or `address(0)` for Ether\n    /// @param amount (uint256) Amount for `fromToken`\n    /// @param parts (uint256) Number of pieces source volume could be splitted,\n    /// works like granularity, higly affects gas usage. Should be called offchain,\n    /// but could be called onchain if user swaps not his own funds, but this is still considered as not safe.\n    /// @param flags (uint256) Flags for enabling and disabling some features, default 0\n    function getExpectedReturn(\n        IERC20 fromToken,\n        IERC20 destToken,\n        uint256 amount,\n        uint256 parts,\n        uint256 flags // See contants in IOneSplit.sol\n    )\n        public\n        view\n        returns(\n            uint256 returnAmount,\n            uint256[] memory distribution\n        )\n    {\n        (returnAmount, , distribution) = getExpectedReturnWithGas(\n            fromToken,\n            destToken,\n            amount,\n            parts,\n            flags,\n            0\n        );\n    }\n\n    /// @notice Calculate expected returning amount of `destToken`\n    /// @param fromToken (IERC20) Address of token or `address(0)` for Ether\n    /// @param destToken (IERC20) Address of token or `address(0)` for Ether\n    /// @param amount (uint256) Amount for `fromToken`\n    /// @param parts (uint256) Number of pieces source volume could be splitted,\n    /// works like granularity, higly affects gas usage. Should be called offchain,\n    /// but could be called onchain if user swaps not his own funds, but this is still considered as not safe.\n    /// @param flags (uint256) Flags for enabling and disabling some features, default 0\n    /// @param destTokenEthPriceTimesGasPrice (uint256) destToken price to ETH multiplied by gas price\n    function getExpectedReturnWithGas(\n        IERC20 fromToken,\n        IERC20 destToken,\n        uint256 amount,\n        uint256 parts,\n        uint256 flags, // See constants in IOneSplit.sol\n        uint256 destTokenEthPriceTimesGasPrice\n    )\n        public\n        view\n        returns(\n            uint256 returnAmount,\n            uint256 estimateGasAmount,\n            uint256[] memory distribution\n        )\n    {\n        return oneSplitImpl.getExpectedReturnWithGas(\n            fromToken,\n            destToken,\n            amount,\n            parts,\n            flags,\n            destTokenEthPriceTimesGasPrice\n        );\n    }\n\n    /// @notice Calculate expected returning amount of first `tokens` element to\n    /// last `tokens` element through ann the middle tokens with corresponding\n    /// `parts`, `flags` and `destTokenEthPriceTimesGasPrices` array values of each step\n    /// @param tokens (IERC20[]) Address of token or `address(0)` for Ether\n    /// @param amount (uint256) Amount for `fromToken`\n    /// @param parts (uint256[]) Number of pieces source volume could be splitted\n    /// @param flags (uint256[]) Flags for enabling and disabling some features, default 0\n    /// @param destTokenEthPriceTimesGasPrices (uint256[]) destToken price to ETH multiplied by gas price\n    function getExpectedReturnWithGasMulti(\n        IERC20[] memory tokens,\n        uint256 amount,\n        uint256[] memory parts,\n        uint256[] memory flags,\n        uint256[] memory destTokenEthPriceTimesGasPrices\n    )\n        public\n        view\n        returns(\n            uint256[] memory returnAmounts,\n            uint256 estimateGasAmount,\n            uint256[] memory distribution\n        )\n    {\n        return oneSplitImpl.getExpectedReturnWithGasMulti(\n            tokens,\n            amount,\n            parts,\n            flags,\n            destTokenEthPriceTimesGasPrices\n        );\n    }\n\n    /// @notice Swap `amount` of `fromToken` to `destToken`\n    /// @param fromToken (IERC20) Address of token or `address(0)` for Ether\n    /// @param destToken (IERC20) Address of token or `address(0)` for Ether\n    /// @param amount (uint256) Amount for `fromToken`\n    /// @param minReturn (uint256) Minimum expected return, else revert\n    /// @param distribution (uint256[]) Array of weights for volume distribution returned by `getExpectedReturn`\n    /// @param flags (uint256) Flags for enabling and disabling some features, default 0\n    function swap(\n        IERC20 fromToken,\n        IERC20 destToken,\n        uint256 amount,\n        uint256 minReturn,\n        uint256[] memory distribution,\n        uint256 flags // See contants in IOneSplit.sol\n    ) public payable returns(uint256) {\n        return swapWithReferral(\n            fromToken,\n            destToken,\n            amount,\n            minReturn,\n            distribution,\n            flags,\n            address(0),\n            0\n        );\n    }\n\n    /// @notice Swap `amount` of `fromToken` to `destToken`\n    /// param fromToken (IERC20) Address of token or `address(0)` for Ether\n    /// param destToken (IERC20) Address of token or `address(0)` for Ether\n    /// @param amount (uint256) Amount for `fromToken`\n    /// @param minReturn (uint256) Minimum expected return, else revert\n    /// @param distribution (uint256[]) Array of weights for volume distribution returned by `getExpectedReturn`\n    /// @param flags (uint256) Flags for enabling and disabling some features, default 0\n    /// @param referral (address) Address of referral\n    /// @param feePercent (uint256) Fees percents normalized to 1e18, limited to 0.03e18 (3%)\n    function swapWithReferral(\n        IERC20 fromToken,\n        IERC20 destToken,\n        uint256 amount,\n        uint256 minReturn,\n        uint256[] memory distribution,\n        uint256 flags, // See contants in IOneSplit.sol\n        address referral,\n        uint256 feePercent\n    ) public payable returns(uint256) {\n        IERC20[] memory tokens = new IERC20[](2);\n        tokens[0] = fromToken;\n        tokens[1] = destToken;\n\n        uint256[] memory flagsArray = new uint256[](1);\n        flagsArray[0] = flags;\n\n        swapWithReferralMulti(\n            tokens,\n            amount,\n            minReturn,\n            distribution,\n            flagsArray,\n            referral,\n            feePercent\n        );\n    }\n\n    /// @notice Swap `amount` of first element of `tokens` to the latest element of `destToken`\n    /// @param tokens (IERC20[]) Addresses of token or `address(0)` for Ether\n    /// @param amount (uint256) Amount for `fromToken`\n    /// @param minReturn (uint256) Minimum expected return, else revert\n    /// @param distribution (uint256[]) Array of weights for volume distribution returned by `getExpectedReturn`\n    /// @param flags (uint256[]) Flags for enabling and disabling some features, default 0\n    function swapMulti(\n        IERC20[] memory tokens,\n        uint256 amount,\n        uint256 minReturn,\n        uint256[] memory distribution,\n        uint256[] memory flags\n    ) public payable returns(uint256) {\n        swapWithReferralMulti(\n            tokens,\n            amount,\n            minReturn,\n            distribution,\n            flags,\n            address(0),\n            0\n        );\n    }\n\n    /// @notice Swap `amount` of first element of `tokens` to the latest element of `destToken`\n    /// @param tokens (IERC20[]) Addresses of token or `address(0)` for Ether\n    /// @param amount (uint256) Amount for `fromToken`\n    /// @param minReturn (uint256) Minimum expected return, else revert\n    /// @param distribution (uint256[]) Array of weights for volume distribution returned by `getExpectedReturn`\n    /// @param flags (uint256[]) Flags for enabling and disabling some features, default 0\n    /// @param referral (address) Address of referral\n    /// @param feePercent (uint256) Fees percents normalized to 1e18, limited to 0.03e18 (3%)\n    function swapWithReferralMulti(\n        IERC20[] memory tokens,\n        uint256 amount,\n        uint256 minReturn,\n        uint256[] memory distribution,\n        uint256[] memory flags,\n        address referral,\n        uint256 feePercent\n    ) public payable returns(uint256 returnAmount) {\n        require(tokens.length >= 2 && amount > 0, \"OneSplit: swap makes no sense\");\n        require(flags.length == tokens.length - 1, \"OneSplit: flags array length is invalid\");\n        require((msg.value != 0) == tokens.first().isETH(), \"OneSplit: msg.value should be used only for ETH swap\");\n        require(feePercent <= 0.03e18, \"OneSplit: feePercent out of range\");\n\n        uint256 gasStart = gasleft();\n\n        Balances memory beforeBalances = _getFirstAndLastBalances(tokens, true);\n\n        // Transfer From\n        if (amount == uint256(-1)) {\n            amount = Math.min(\n                tokens.first().balanceOf(msg.sender),\n                tokens.first().allowance(msg.sender, address(this))\n            );\n        }\n        tokens.first().universalTransferFromSenderToThis(amount);\n        uint256 confirmed = tokens.first().universalBalanceOf(address(this)).sub(beforeBalances.ofFromToken);\n\n        // Swap\n        tokens.first().universalApprove(address(oneSplitImpl), confirmed);\n        oneSplitImpl.swapMulti.value(tokens.first().isETH() ? confirmed : 0)(\n            tokens,\n            confirmed,\n            minReturn,\n            distribution,\n            flags\n        );\n\n        Balances memory afterBalances = _getFirstAndLastBalances(tokens, false);\n\n        // Return\n        returnAmount = afterBalances.ofDestToken.sub(beforeBalances.ofDestToken);\n        require(returnAmount >= minReturn, \"OneSplit: actual return amount is less than minReturn\");\n        tokens.last().universalTransfer(referral, returnAmount.mul(feePercent).div(1e18));\n        tokens.last().universalTransfer(msg.sender, returnAmount.sub(returnAmount.mul(feePercent).div(1e18)));\n\n        emit Swapped(\n            tokens.first(),\n            tokens.last(),\n            amount,\n            returnAmount,\n            minReturn,\n            distribution,\n            flags,\n            referral,\n            feePercent\n        );\n\n        // Return remainder\n        if (afterBalances.ofFromToken > beforeBalances.ofFromToken) {\n            tokens.first().universalTransfer(msg.sender, afterBalances.ofFromToken.sub(beforeBalances.ofFromToken));\n        }\n\n        if ((flags[0] & (FLAG_ENABLE_CHI_BURN | FLAG_ENABLE_CHI_BURN_BY_ORIGIN)) > 0) {\n            uint256 gasSpent = 21000 + gasStart - gasleft() + 16 * msg.data.length;\n            _chiBurnOrSell(\n                ((flags[0] & FLAG_ENABLE_CHI_BURN_BY_ORIGIN) > 0) ? tx.origin : msg.sender,\n                (gasSpent + 14154) / 41947\n            );\n        }\n        else if ((flags[0] & FLAG_ENABLE_REFERRAL_GAS_SPONSORSHIP) > 0) {\n            uint256 gasSpent = 21000 + gasStart - gasleft() + 16 * msg.data.length;\n            IReferralGasSponsor(referral).makeGasDiscount(gasSpent, returnAmount, msg.data);\n        }\n    }\n\n    function claimAsset(IERC20 asset, uint256 amount) public onlyOwner {\n        asset.universalTransfer(msg.sender, amount);\n    }\n\n    function _chiBurnOrSell(address payable sponsor, uint256 amount) internal {\n        IUniswapV2Exchange exchange = IUniswapV2Exchange(0xa6f3ef841d371a82ca757FaD08efc0DeE2F1f5e2);\n        (uint256 sellRefund,,) = UniswapV2ExchangeLib.getReturn(exchange, chi, weth, amount);\n        uint256 burnRefund = amount.mul(18_000).mul(tx.gasprice);\n\n        if (sellRefund < burnRefund.add(tx.gasprice.mul(36_000))) {\n            chi.freeFromUpTo(sponsor, amount);\n        }\n        else {\n            chi.transferFrom(sponsor, address(exchange), amount);\n            exchange.swap(0, sellRefund, address(this), \"\");\n            weth.withdraw(weth.balanceOf(address(this)));\n            sponsor.transfer(address(this).balance);\n        }\n    }\n\n    struct Balances {\n        uint256 ofFromToken;\n        uint256 ofDestToken;\n    }\n\n    function _getFirstAndLastBalances(IERC20[] memory tokens, bool subValue) internal view returns(Balances memory) {\n        return Balances({\n            ofFromToken: tokens.first().universalBalanceOf(address(this)).sub(subValue ? msg.value : 0),\n            ofDestToken: tokens.last().universalBalanceOf(address(this))\n        });\n    }\n}\n",
  "sourcePath": "/Users/caos/Downloads/1inchProtocol-master/contracts/OneSplitAudit.sol",
  "compiler": {
    "name": "solc",
    "version": "0.5.17+commit.d19bba13.Emscripten.clang"
  },
  "schemaVersion": "3.2.5",
  "updatedAt": "2020-10-25T14:42:35.164Z",
  "devdoc": {
    "methods": {
      "getExpectedReturn(address,address,uint256,uint256,uint256)": {
        "params": {
          "amount": "(uint256) Amount for `fromToken`",
          "destToken": "(IERC20) Address of token or `address(0)` for Ether",
          "flags": "(uint256) Flags for enabling and disabling some features, default 0",
          "fromToken": "(IERC20) Address of token or `address(0)` for Ether",
          "parts": "(uint256) Number of pieces source volume could be splitted, works like granularity, higly affects gas usage. Should be called offchain, but could be called onchain if user swaps not his own funds, but this is still considered as not safe."
        }
      },
      "getExpectedReturnWithGas(address,address,uint256,uint256,uint256,uint256)": {
        "params": {
          "amount": "(uint256) Amount for `fromToken`",
          "destToken": "(IERC20) Address of token or `address(0)` for Ether",
          "destTokenEthPriceTimesGasPrice": "(uint256) destToken price to ETH multiplied by gas price",
          "flags": "(uint256) Flags for enabling and disabling some features, default 0",
          "fromToken": "(IERC20) Address of token or `address(0)` for Ether",
          "parts": "(uint256) Number of pieces source volume could be splitted, works like granularity, higly affects gas usage. Should be called offchain, but could be called onchain if user swaps not his own funds, but this is still considered as not safe."
        }
      },
      "getExpectedReturnWithGasMulti(address[],uint256,uint256[],uint256[],uint256[])": {
        "params": {
          "amount": "(uint256) Amount for `fromToken`",
          "destTokenEthPriceTimesGasPrices": "(uint256[]) destToken price to ETH multiplied by gas price",
          "flags": "(uint256[]) Flags for enabling and disabling some features, default 0",
          "parts": "(uint256[]) Number of pieces source volume could be splitted",
          "tokens": "(IERC20[]) Address of token or `address(0)` for Ether"
        }
      },
      "isOwner()": {
        "details": "Returns true if the caller is the current owner."
      },
      "owner()": {
        "details": "Returns the address of the current owner."
      },
      "renounceOwnership()": {
        "details": "Leaves the contract without owner. It will not be possible to call `onlyOwner` functions anymore. Can only be called by the current owner.     * NOTE: Renouncing ownership will leave the contract without an owner, thereby removing any functionality that is only available to the owner."
      },
      "swap(address,address,uint256,uint256,uint256[],uint256)": {
        "params": {
          "amount": "(uint256) Amount for `fromToken`",
          "destToken": "(IERC20) Address of token or `address(0)` for Ether",
          "distribution": "(uint256[]) Array of weights for volume distribution returned by `getExpectedReturn`",
          "flags": "(uint256) Flags for enabling and disabling some features, default 0",
          "fromToken": "(IERC20) Address of token or `address(0)` for Ether",
          "minReturn": "(uint256) Minimum expected return, else revert"
        }
      },
      "swapMulti(address[],uint256,uint256,uint256[],uint256[])": {
        "params": {
          "amount": "(uint256) Amount for `fromToken`",
          "distribution": "(uint256[]) Array of weights for volume distribution returned by `getExpectedReturn`",
          "flags": "(uint256[]) Flags for enabling and disabling some features, default 0",
          "minReturn": "(uint256) Minimum expected return, else revert",
          "tokens": "(IERC20[]) Addresses of token or `address(0)` for Ether"
        }
      },
      "swapWithReferral(address,address,uint256,uint256,uint256[],uint256,address,uint256)": {
        "params": {
          "amount": "(uint256) Amount for `fromToken`",
          "distribution": "(uint256[]) Array of weights for volume distribution returned by `getExpectedReturn`",
          "feePercent": "(uint256) Fees percents normalized to 1e18, limited to 0.03e18 (3%)",
          "flags": "(uint256) Flags for enabling and disabling some features, default 0",
          "minReturn": "(uint256) Minimum expected return, else revert",
          "referral": "(address) Address of referral"
        }
      },
      "swapWithReferralMulti(address[],uint256,uint256,uint256[],uint256[],address,uint256)": {
        "params": {
          "amount": "(uint256) Amount for `fromToken`",
          "distribution": "(uint256[]) Array of weights for volume distribution returned by `getExpectedReturn`",
          "feePercent": "(uint256) Fees percents normalized to 1e18, limited to 0.03e18 (3%)",
          "flags": "(uint256[]) Flags for enabling and disabling some features, default 0",
          "minReturn": "(uint256) Minimum expected return, else revert",
          "referral": "(address) Address of referral",
          "tokens": "(IERC20[]) Addresses of token or `address(0)` for Ether"
        }
      },
      "transferOwnership(address)": {
        "details": "Transfers ownership of the contract to a new account (`newOwner`). Can only be called by the current owner."
      }
    }
  },
  "userdoc": {
    "methods": {
      "getExpectedReturn(address,address,uint256,uint256,uint256)": {
        "notice": "Calculate expected returning amount of `destToken`"
      },
      "getExpectedReturnWithGas(address,address,uint256,uint256,uint256,uint256)": {
        "notice": "Calculate expected returning amount of `destToken`"
      },
      "getExpectedReturnWithGasMulti(address[],uint256,uint256[],uint256[],uint256[])": {
        "notice": "Calculate expected returning amount of first `tokens` element to last `tokens` element through ann the middle tokens with corresponding `parts`, `flags` and `destTokenEthPriceTimesGasPrices` array values of each step"
      },
      "swap(address,address,uint256,uint256,uint256[],uint256)": {
        "notice": "Swap `amount` of `fromToken` to `destToken`"
      },
      "swapMulti(address[],uint256,uint256,uint256[],uint256[])": {
        "notice": "Swap `amount` of first element of `tokens` to the latest element of `destToken`"
      },
      "swapWithReferral(address,address,uint256,uint256,uint256[],uint256,address,uint256)": {
        "notice": "Swap `amount` of `fromToken` to `destToken` param fromToken (IERC20) Address of token or `address(0)` for Ether param destToken (IERC20) Address of token or `address(0)` for Ether"
      },
      "swapWithReferralMulti(address[],uint256,uint256,uint256[],uint256[],address,uint256)": {
        "notice": "Swap `amount` of first element of `tokens` to the latest element of `destToken`"
      }
    }
  }
}