{
  "contractName": "OneSplitViewWrap",
  "abi": [
    {
      "inputs": [
        {
          "internalType": "contract IOneSplitView",
          "name": "_oneSplit",
          "type": "address"
        }
      ],
      "payable": false,
      "stateMutability": "nonpayable",
      "type": "constructor"
    },
    {
      "constant": true,
      "inputs": [],
      "name": "oneSplitView",
      "outputs": [
        {
          "internalType": "contract IOneSplitView",
          "name": "",
          "type": "address"
        }
      ],
      "payable": false,
      "stateMutability": "view",
      "type": "function"
    },
    {
      "constant": true,
      "inputs": [
        {
          "internalType": "contract IERC20",
          "name": "fromToken",
          "type": "address"
        },
        {
          "internalType": "contract IERC20",
          "name": "destToken",
          "type": "address"
        },
        {
          "internalType": "uint256",
          "name": "amount",
          "type": "uint256"
        },
        {
          "internalType": "uint256",
          "name": "parts",
          "type": "uint256"
        },
        {
          "internalType": "uint256",
          "name": "flags",
          "type": "uint256"
        }
      ],
      "name": "getExpectedReturn",
      "outputs": [
        {
          "internalType": "uint256",
          "name": "returnAmount",
          "type": "uint256"
        },
        {
          "internalType": "uint256[]",
          "name": "distribution",
          "type": "uint256[]"
        }
      ],
      "payable": false,
      "stateMutability": "view",
      "type": "function"
    },
    {
      "constant": true,
      "inputs": [
        {
          "internalType": "contract IERC20",
          "name": "fromToken",
          "type": "address"
        },
        {
          "internalType": "contract IERC20",
          "name": "destToken",
          "type": "address"
        },
        {
          "internalType": "uint256",
          "name": "amount",
          "type": "uint256"
        },
        {
          "internalType": "uint256",
          "name": "parts",
          "type": "uint256"
        },
        {
          "internalType": "uint256",
          "name": "flags",
          "type": "uint256"
        },
        {
          "internalType": "uint256",
          "name": "destTokenEthPriceTimesGasPrice",
          "type": "uint256"
        }
      ],
      "name": "getExpectedReturnWithGas",
      "outputs": [
        {
          "internalType": "uint256",
          "name": "returnAmount",
          "type": "uint256"
        },
        {
          "internalType": "uint256",
          "name": "estimateGasAmount",
          "type": "uint256"
        },
        {
          "internalType": "uint256[]",
          "name": "distribution",
          "type": "uint256[]"
        }
      ],
      "payable": false,
      "stateMutability": "view",
      "type": "function"
    }
  ],
  "bytecode": "0x608060405234801561001057600080fd5b50604051613fac380380613fac8339818101604052602081101561003357600080fd5b5051600080546001600160a01b039092166001600160a01b0319909216919091179055613f47806100656000396000f3fe608060405234801561001057600080fd5b50600436106100415760003560e01c8063085e2c5b146100465780638373f265146100e3578063fbe4ed951461018d575b600080fd5b610088600480360360a081101561005c57600080fd5b506001600160a01b038135811691602081013590911690604081013590606081013590608001356101b1565b6040518083815260200180602001828103825283818151815260200191508051906020019060200280838360005b838110156100ce5781810151838201526020016100b6565b50505050905001935050505060405180910390f35b61012b600480360360c08110156100f957600080fd5b506001600160a01b03813581169160208101359091169060408101359060608101359060808101359060a001356101d4565b6040518084815260200183815260200180602001828103825283818151815260200191508051906020019060200280838360005b8381101561017757818101518382015260200161015f565b5050505090500194505050505060405180910390f35b610195610246565b604080516001600160a01b039092168252519081900360200190f35b600060606101c4878787878760006101d4565b9199919850909650505050505050565b6000806060876001600160a01b0316896001600160a01b031614156102255760408051602280825261046082019092528891600091906020820161044080388339019050509194509250905061023a565b610233898989898989610255565b9250925092505b96509650969350505050565b6000546001600160a01b031681565b60008060606102736001600160a01b038a168963ffffffff6104f216565b156102aa5760408051602280825261046082019092528891600091906020820161044080388339019050509194509250905061023a565b6102be85600160431b63ffffffff61053116565b6104e45760408051635b16ebb760e01b81526001600160a01b038b16600482015290516000917371cd6666064c3a1354a3b4dca5fa1e2d3ee7d30391635b16ebb791602480820192602092909190829003018186803b15801561032057600080fd5b505afa158015610334573d6000803e3d6000fd5b505050506040513d602081101561034a57600080fd5b505160408051635b16ebb760e01b81526001600160a01b038c16600482015290519192506000917371cd6666064c3a1354a3b4dca5fa1e2d3ee7d30391635b16ebb7916024808301926020929190829003018186803b1580156103ac57600080fd5b505afa1580156103c0573d6000803e3d6000fd5b505050506040513d60208110156103d657600080fd5b505190508180156103e45750805b156104a257600060606104128d73eeeeeeeeeeeeeeeeeeeeeeeeeeeeeeeeeeeeeeee8d8d600160431b610537565b915091506000606061043f73eeeeeeeeeeeeeeeeeeeeeeeeeeeeeeeeeeeeeeee8f868f600160431b6106b4565b909250905060005b815181101561048d57608082828151811061045e57fe5b6020026020010151901b84828151811061047457fe5b6020908102919091010180519091179052600101610447565b509097506000965090945061023a9350505050565b81156104ca576104b98b8b8b8b600160431b610537565b90955060009450925061023a915050565b80156104e1576104b98b8b8b8b600160431b6106b4565b50505b6102338989898989896108ad565b6000816001600160a01b0316836001600160a01b031614806105285750610518836108c0565b80156105285750610528826108c0565b90505b92915050565b16151590565b6040805160228082526104608201909252600091606091906020820161044080388339019050509050610568613e31565b610571886108fc565b905060005b60028110156106a85760006105c083602001516105b48560000151856002811061059c57fe5b6020020151602001518b610a3f90919063ffffffff16565b9063ffffffff610a9816565b90506105f1836000015183600281106105d557fe5b6020020151516001600160a01b038b169063ffffffff6104f216565b1561060e57610606858263ffffffff610ada16565b9450506106a0565b600060606106368560000151856002811061062557fe5b6020020151518c858c8c60006108ad565b925050915061064e8288610ada90919063ffffffff16565b965060005b865181101561069b578460080282828151811061066c57fe5b6020026020010151901b87828151811061068257fe5b6020908102919091010180519091179052600101610653565b505050505b600101610576565b50509550959350505050565b60408051602280825261046082019092526000916060919060208201610440803883390190505090506106e5613e31565b6106ee876108fc565b90506106f8613e51565b61070987600263ffffffff610a9816565b808252610717908890610b34565b81600160200201818152505060608351604051908082528060200260200182016040528015610750578160200160208202803883390190505b50905060005b600281101561083757835161078c90826002811061077057fe5b6020020151516001600160a01b038d169063ffffffff6104f216565b156107965761082f565b6107ca8b856000015183600281106107aa57fe5b6020020151518584600281106107bc57fe5b60200201518b8b60006108ad565b90508483600281106107d857fe5b6020020191909152915060005b855181101561082d57816008028382815181106107fe57fe5b6020026020010151901b86828151811061081457fe5b60209081029190910101805190911790526001016107e5565b505b600101610756565b50600019945060005b600281101561089f57610895866108908660000151846002811061086057fe5b6020020151602001516105b487866002811061087857fe5b60200201518960200151610a3f90919063ffffffff16565b610b76565b9550600101610840565b505050509550959350505050565b6000806060610233898989898989610b8c565b60006001600160a01b03821615806108f457506001600160a01b03821673eeeeeeeeeeeeeeeeeeeeeeeeeeeeeeeeeeeeeeee145b90505b919050565b610904613e31565b60005b60028110156109cf576000836001600160a01b0316634f64b2be836040518263ffffffff1660e01b81526004018082815260200191505060206040518083038186803b15801561095657600080fd5b505afa15801561096a573d6000803e3d6000fd5b505050506040513d602081101561098057600080fd5b5051604080518082019091526001600160a01b0382168082529192509060208201906109b2908763ffffffff610d8216565b9052835183600281106109c157fe5b602002015250600101610907565b50816001600160a01b03166318160ddd6040518163ffffffff1660e01b815260040160206040518083038186803b158015610a0957600080fd5b505afa158015610a1d573d6000803e3d6000fd5b505050506040513d6020811015610a3357600080fd5b50516020820152919050565b600082610a4e5750600061052b565b82820282848281610a5b57fe5b04146105285760405162461bcd60e51b8152600401808060200182810382526021815260200180613ef26021913960400191505060405180910390fd5b600061052883836040518060400160405280601a81526020017f536166654d6174683a206469766973696f6e206279207a65726f000000000000815250610e2c565b600082820183811015610528576040805162461bcd60e51b815260206004820152601b60248201527f536166654d6174683a206164646974696f6e206f766572666c6f770000000000604482015290519081900360640190fd5b600061052883836040518060400160405280601e81526020017f536166654d6174683a207375627472616374696f6e206f766572666c6f770000815250610ed0565b6000818310610b855781610528565b5090919050565b6000806060876001600160a01b0316896001600160a01b03161415610bdd5760408051602280825261046082019092528891600091906020820161044080388339019050509194509250905061023a565b610bf3856508000000000063ffffffff61053116565b1515610c0986634000000063ffffffff61053116565b15151415610d74576000610c1c8a610f2a565b90506001600160a01b0380821614610cb1576001600160a01b03811673c02aaa39b223fe8d0a0e5c4f27ead9083c756cc21415610c6a575073eeeeeeeeeeeeeeeeeeeeeeeeeeeeeeeeeeeeeeee5b89610c9d828b610c95670de0b6b3a76400006105b4610c888761105e565b8f9063ffffffff610a3f16565b8b8b8b610b8c565b91965062048058019450925061023a915050565b610cba89610f2a565b90506001600160a01b0380821614610d72576001600160a01b03811673c02aaa39b223fe8d0a0e5c4f27ead9083c756cc21415610d08575073eeeeeeeeeeeeeeeeeeeeeeeeeeeeeeeeeeeeeeee5b6000610d138a61105e565b9050610d3e8b838b8b8b610d39670de0b6b3a76400006105b48e8a63ffffffff610a3f16565b61114d565b91965094509250610d61816105b487670de0b6b3a764000063ffffffff610a3f16565b94505062068fb0909201915061023a565b505b61023389898989898961114d565b6000610d8d836108c0565b15610da357506001600160a01b0381163161052b565b826001600160a01b03166370a08231836040518263ffffffff1660e01b815260040180826001600160a01b03166001600160a01b0316815260200191505060206040518083038186803b158015610df957600080fd5b505afa158015610e0d573d6000803e3d6000fd5b505050506040513d6020811015610e2357600080fd5b5051905061052b565b60008183610eb85760405162461bcd60e51b81526004018080602001828103825283818151815260200191508051906020019080838360005b83811015610e7d578181015183820152602001610e65565b50505050905090810190601f168015610eaa5780820380516001836020036101000a031916815260200191505b509250505060405180910390fd5b506000838581610ec457fe5b049150505b9392505050565b60008184841115610f225760405162461bcd60e51b8152602060048201818152835160248401528351909283926044909101919085019080838360008315610e7d578181015183820152602001610e65565b505050900390565b604080516001600160a01b03831660248083019190915282518083039091018152604490910182526020810180516001600160e01b03166330df135f60e21b178152915181516000938493606093734cb120dd1d33c9a3de8bc15620c7cd43418d77e293919290918291908083835b60208310610fb85780518252601f199092019160209182019101610f99565b6001836020036101000a038019825116818451168082178552505050505050905001915050600060405180830381855afa9150503d8060008114611018576040519150601f19603f3d011682016040523d82523d6000602084013e61101d565b606091505b509150915081158061102e57508051155b1561103f57600019925050506108f7565b80806020019051602081101561105457600080fd5b5051949350505050565b60408051600481526024810182526020810180516001600160e01b0316633ca967f360e01b1781529151815160009384936060936001600160a01b03881693919290918291908083835b602083106110c75780518252601f1990920191602091820191016110a8565b6001836020036101000a038019825116818451168082178552505050505050905001915050600060405180830381855afa9150503d8060008114611127576040519150601f19603f3d011682016040523d82523d6000602084013e61112c565b606091505b509150915081158061113d57508051155b1561103f576000925050506108f7565b60008060606102338989898989896000806060876001600160a01b0316896001600160a01b031614156111ac5760408051602280825261046082019092528891600091906020820161044080388339019050509194509250905061023a565b6111bf856208000063ffffffff61053116565b15156111d586634000000063ffffffff61053116565b151514156112c4576001600160a01b03891673c02aaa39b223fe8d0a0e5c4f27ead9083c756cc2148061122457506001600160a01b03891673c0829421c1d260bd3cb3e0f06cfe2d52db2ce315145b156112565761124b73eeeeeeeeeeeeeeeeeeeeeeeeeeeeeeeeeeeeeeee89898989896112ce565b92509250925061023a565b6001600160a01b03881673c02aaa39b223fe8d0a0e5c4f27ead9083c756cc2148061129d57506001600160a01b03881673c0829421c1d260bd3cb3e0f06cfe2d52db2ce315145b156112c45761124b8973eeeeeeeeeeeeeeeeeeeeeeeeeeeeeeeeeeeeeeee898989896112ce565b6102338989898989895b60008060606102338989898989895b6000806060876001600160a01b0316896001600160a01b0316141561132e5760408051602280825261046082019092528891600091906020820161044080388339019050509194509250905061023a565b611341856280000063ffffffff61053116565b1561135686634000000063ffffffff61053116565b15141561166957611365613e6f565b61136d611677565b905060005b60088110156114d35781816008811061138757fe5b60200201516001600160a01b03168b6001600160a01b031614156114cb576114b78282600881106113b457fe5b60200201516001600160a01b031663fc0c546a6040518163ffffffff1660e01b815260040160206040518083038186803b1580156113f157600080fd5b505afa158015611405573d6000803e3d6000fd5b505050506040513d602081101561141b57600080fd5b50518b6114af670de0b6b3a76400006105b487876008811061143957fe5b60200201516001600160a01b0316637ff9b5966040518163ffffffff1660e01b815260040160206040518083038186803b15801561147657600080fd5b505afa15801561148a573d6000803e3d6000fd5b505050506040513d60208110156114a057600080fd5b50518f9063ffffffff610a3f16565b8b8b8b6112dd565b91965062249f00019450925061023a915050565b600101611372565b5060005b6008811015611666578181600881106114ec57fe5b60200201516001600160a01b03168a6001600160a01b0316141561165e5785600083836008811061151957fe5b60200201516001600160a01b0316637ff9b5966040518163ffffffff1660e01b815260040160206040518083038186803b15801561155657600080fd5b505afa15801561156a573d6000803e3d6000fd5b505050506040513d602081101561158057600080fd5b50519050600084846008811061159257fe5b60200201516001600160a01b031663fc0c546a6040518163ffffffff1660e01b815260040160206040518083038186803b1580156115cf57600080fd5b505afa1580156115e3573d6000803e3d6000fd5b505050506040513d60208110156115f957600080fd5b505190506116268e828e8e8e611621670de0b6b3a76400006105b48b8b63ffffffff610a3f16565b61175d565b91995097509550611649826105b48a670de0b6b3a764000063ffffffff610a3f16565b9750506213d620909501945061023a92505050565b6001016114d7565b50505b61023389898989898961175d565b61167f613e6f565b5060408051610100810182527378751b12da02728f467a44eac40f5cbc16bd793481527312b98c621e8754ae70d0fdbbc73d6208bc3e3ca660208201527363d27b3da94a9e871222cb0a32232674b02d2f2d91810191909152731846bdfdb6a0f5c473dec610144513bd071999fb606082015273cddb1bceb7a1979c6caa0229820707429dd3ec6c60808201527342740698959761baf1b06baa51efbd88cb1d862b60a08201527310ec0d497824e342bcb0edce00959142aaa766dd60c082015273eb66acc3d011056b00ea521f8203580c2e5d399160e082015290565b60008060606102338989898989895b6000806060876001600160a01b0316896001600160a01b031614156117bd5760408051602280825261046082019092528891600091906020820161044080388339019050509194509250905061023a565b6117cf8561080063ffffffff61053116565b156117e486634000000063ffffffff61053116565b151415611c72576117f3613e8e565b6117fb611c80565b905060005b600d811015611994578181600d811061181557fe5b60200201516001600160a01b03168b6001600160a01b0316141561198c576119788282600d811061184257fe5b60200201516001600160a01b031663fc0c546a6040518163ffffffff1660e01b815260040160206040518083038186803b15801561187f57600080fd5b505afa158015611893573d6000803e3d6000fd5b505050506040513d60208110156118a957600080fd5b50518b6119708585600d81106118bb57fe5b60200201516001600160a01b03166318160ddd6040518163ffffffff1660e01b815260040160206040518083038186803b1580156118f857600080fd5b505afa15801561190c573d6000803e3d6000fd5b505050506040513d602081101561192257600080fd5b50516105b48787600d811061193357fe5b60200201516001600160a01b0316637137ef996040518163ffffffff1660e01b815260040160206040518083038186803b15801561147657600080fd5b8b8b8b61176c565b9196506203f7a0019450925061023a915050565b600101611800565b5060005b600d811015611c6f578181600d81106119ad57fe5b60200201516001600160a01b03168a6001600160a01b03161415611c67578560008383600d81106119da57fe5b60200201516001600160a01b031663fc0c546a6040518163ffffffff1660e01b815260040160206040518083038186803b158015611a1757600080fd5b505afa158015611a2b573d6000803e3d6000fd5b505050506040513d6020811015611a4157600080fd5b50519050611b4f8d828d8d8d611b4a8a8a600d8110611a5c57fe5b60200201516001600160a01b03166318160ddd6040518163ffffffff1660e01b815260040160206040518083038186803b158015611a9957600080fd5b505afa158015611aad573d6000803e3d6000fd5b505050506040513d6020811015611ac357600080fd5b50516105b48c8c600d8110611ad457fe5b60200201516001600160a01b0316637137ef996040518163ffffffff1660e01b815260040160206040518083038186803b158015611b1157600080fd5b505afa158015611b25573d6000803e3d6000fd5b505050506040513d6020811015611b3b57600080fd5b50518b9063ffffffff610a3f16565b611ded565b91985096509450611c538484600d8110611b6557fe5b60200201516001600160a01b0316637137ef996040518163ffffffff1660e01b815260040160206040518083038186803b158015611ba257600080fd5b505afa158015611bb6573d6000803e3d6000fd5b505050506040513d6020811015611bcc57600080fd5b50516105b48686600d8110611bdd57fe5b60200201516001600160a01b03166318160ddd6040518163ffffffff1660e01b815260040160206040518083038186803b158015611c1a57600080fd5b505afa158015611c2e573d6000803e3d6000fd5b505050506040513d6020811015611c4457600080fd5b50518a9063ffffffff610a3f16565b965050620b5658909401935061023a915050565b600101611998565b50505b610233898989898989611ded565b611c88613e8e565b50604080516101a0810182527316de59092dae5ccf4a1e6439d611fd0653f0bd0181527304aa51bbcb46541455ccf1b8bef2ebc5d3787ec960208201527373a052500105205d34daf004eab301916da8190f918101919091527383f798e925bcd4017eb265844fddabb448f1707d606082015273d6ad7a6750a7593e092a9b218d66c0a814a3436e608082015273f61718057901f84c4eec4339ef8f0d86d2b4560060a08201527304bc0ab673d88ae9dbc9da2380cb6b79c4bca9ae60c082015273c2cb1040220768554cf699b0d863a3cd4324ce3260e082015273e6354ed5bc4b393a5aad09f21c46e101e692d4476101008201527326ea744e5b887e5205727f55dfbe8685e3b219516101208201527399d1fa417f94dcd62bfe781a1213c092a47041bc610140820152739777d7e2b60bb01759d0e2f8be2095df444cb07e610160820152731be5d71f2da660bfdee8012ddc58d024448a0a5961018082015290565b60008060606102338989898989895b6000806060876001600160a01b0316896001600160a01b03161415611e4d5760408051602280825261046082019092528891600091906020820161044080388339019050509194509250905061023a565b611e5e85601063ffffffff61053116565b1515611e7486634000000063ffffffff61053116565b1515141561210f5760408051639bbde94760e01b81526001600160a01b038b166004820152905160009173f451dbd7ba14bfa7b1b78a766d3ed438f79ee1d191639bbde94791602480820192602092909190829003018186803b158015611eda57600080fd5b505afa158015611eee573d6000803e3d6000fd5b505050506040513d6020811015611f0457600080fd5b505190506001600160a01b03811615611fa95760008a6001600160a01b031663182df0f56040518163ffffffff1660e01b815260040160206040518083038186803b158015611f5257600080fd5b505afa158015611f66573d6000803e3d6000fd5b505050506040513d6020811015611f7c57600080fd5b50519050610c9d828b611fa1670de0b6b3a76400006105b48e8763ffffffff610a3f16565b8b8b8b611dfc565b60408051639bbde94760e01b81526001600160a01b038b166004820152905173f451dbd7ba14bfa7b1b78a766d3ed438f79ee1d191639bbde947916024808301926020929190829003018186803b15801561200357600080fd5b505afa158015612017573d6000803e3d6000fd5b505050506040513d602081101561202d57600080fd5b505190506001600160a01b0381161561210d57600085905060008a6001600160a01b031663182df0f56040518163ffffffff1660e01b815260040160206040518083038186803b15801561208057600080fd5b505afa158015612094573d6000803e3d6000fd5b505050506040513d60208110156120aa57600080fd5b505190506120d78c848c8c8c6120d2670de0b6b3a76400006105b48a8a63ffffffff610a3f16565b612119565b919750955093506120fa816105b488670de0b6b3a764000063ffffffff610a3f16565b95505062068fb0909301925061023a9050565b505b6102338989898989895b60008060606102338989898989895b6000806060876001600160a01b0316896001600160a01b031614156121795760408051602280825261046082019092528891600091906020820161044080388339019050509194509250905061023a565b61218a85602063ffffffff61053116565b15156121a086634000000063ffffffff61053116565b151514156123555760006121b38a612363565b90506001600160a01b038082161461226b5760008a6001600160a01b0316637ff9b5966040518163ffffffff1660e01b815260040160206040518083038186803b15801561220057600080fd5b505afa158015612214573d6000803e3d6000fd5b505050506040513d602081101561222a57600080fd5b50519050612257828b61224f670de0b6b3a76400006105b48e8763ffffffff610a3f16565b8b8b8b612128565b9196506205d048019450925061023a915050565b61227489612363565b90506001600160a01b038082161461235357600085905060008a6001600160a01b0316637ff9b5966040518163ffffffff1660e01b815260040160206040518083038186803b1580156122c657600080fd5b505afa1580156122da573d6000803e3d6000fd5b505050506040513d60208110156122f057600080fd5b5051905061231d8c848c8c8c612318670de0b6b3a76400006105b48a8a63ffffffff610a3f16565b6126d9565b91975095509350612340816105b488670de0b6b3a764000063ffffffff610a3f16565b955050620566d0909301925061023a9050565b505b6102338989898989896126d9565b6000612377826001600160a01b03166108c0565b1561238557506000196108f7565b60408051600481526024810182526020810180516001600160e01b03166306fdde0360e01b178152915181516000936060936001600160a01b0388169361138893919290918291908083835b602083106123f05780518252601f1990920191602091820191016123d1565b6001836020036101000a0380198251168184511680821785525050505050509050019150506000604051808303818686fa925050503d8060008114612451576040519150601f19603f3d011682016040523d82523d6000602084013e612456565b606091505b50915091508161246c57600019925050506108f7565b6000805b82518160060110156125c55782816000018151811061248b57fe5b6020910101516001600160f81b031916602360f91b1480156124ce57508281600101815181106124b757fe5b6020910101516001600160f81b031916607560f81b145b80156124fb57508281600201815181106124e457fe5b6020910101516001600160f81b031916601b60fa1b145b8015612528575082816003018151811061251157fe5b6020910101516001600160f81b031916606360f81b145b8015612555575082816004018151811061253e57fe5b6020910101516001600160f81b031916603960f91b145b8015612582575082816005018151811061256b57fe5b6020910101516001600160f81b031916607560f81b145b80156125af575082816006018151811061259857fe5b6020910101516001600160f81b031916606d60f81b145b156125bd57600191506125c5565b600101612470565b50806125d85760001993505050506108f7565b60408051600481526024810182526020810180516001600160e01b031663797bf38560e01b178152915181516001600160a01b038916936113889392918291908083835b6020831061263b5780518252601f19909201916020918201910161261c565b6001836020036101000a0380198251168184511680821785525050505050509050019150506000604051808303818686fa925050503d806000811461269c576040519150601f19603f3d011682016040523d82523d6000602084013e6126a1565b606091505b509093509150826126b95760001993505050506108f7565b8180602001905160208110156126ce57600080fd5b505195945050505050565b60008060606102338989898989895b6000806060876001600160a01b0316896001600160a01b031614156127395760408051602280825261046082019092528891600091906020820161044080388339019050509194509250905061023a565b61274a85608063ffffffff61053116565b151561276086634000000063ffffffff61053116565b151514156128de57604080516354732ba160e11b81526001600160a01b038b166004820152905160009173ed8b133b7b88366e01bb9e38305ab11c265214949163a8e6574291602480820192602092909190829003018186803b1580156127c657600080fd5b505afa1580156127da573d6000803e3d6000fd5b505050506040513d60208110156127f057600080fd5b505190506001600160a01b0381161561282457612811818a8a8a8a8a6126e8565b919550620a3930019350915061023a9050565b604080516354732ba160e11b81526001600160a01b038b166004820152905173ed8b133b7b88366e01bb9e38305ab11c265214949163a8e65742916024808301926020929190829003018186803b15801561287e57600080fd5b505afa158015612892573d6000803e3d6000fd5b505050506040513d60208110156128a857600080fd5b505190506001600160a01b038116156128dc576128c98a828a8a8a8a6128e8565b9195506204baf0019350915061023a9050565b505b6102338989898989895b6000806060876001600160a01b0316896001600160a01b031614156129395760408051602280825261046082019092528891600091906020820161044080388339019050509194509250905061023a565b61294b8561040063ffffffff61053116565b151561296186634000000063ffffffff61053116565b15151415612a19576001600160a01b038916736a4ffaafa8dd400676df8076ad6c724867b0e2e814156129c1576129b0736b175474e89094c44da98b954eedeac495271d0f8989898989612a23565b919450620376b8019250905061023a565b6001600160a01b038816736a4ffaafa8dd400676df8076ad6c724867b0e2e81415612a1957612a0889736b175474e89094c44da98b954eedeac495271d0f89898989612a23565b91945062048058019250905061023a565b6102338989898989895b6000806060876001600160a01b0316896001600160a01b03161415612a745760408051602280825261046082019092528891600091906020820161044080388339019050509194509250905061023a565b612a8585604063ffffffff61053116565b1515612a9b86634000000063ffffffff61053116565b15151415612bd4576001600160a01b0389167306af07097c9eeb7fd685c692751d5c66db49c2151415612b1e57612b0d736b175474e89094c44da98b954eedeac495271d0f89612b057306af07097c9eeb7fd685c692751d5c66db49c2158b63ffffffff612be216565b898989612cfe565b91945062030188019250905061023a565b6001600160a01b0388167306af07097c9eeb7fd685c692751d5c66db49c2151415612bd4576000612b627306af07097c9eeb7fd685c692751d5c66db49c215613824565b9050612ba18a736b175474e89094c44da98b954eedeac495271d0f8a8a8a612b9c876105b48d670de0b6b3a764000063ffffffff610a3f16565b612cfe565b91955093509150612bc4670de0b6b3a76400006105b4868463ffffffff610a3f16565b935050620290409091019061023a565b610233898989898989612cfe565b60008073197e90f9fad81970ba7976f33cbd77088e5d7cf76001600160a01b03166320aba08b6040518163ffffffff1660e01b815260040160206040518083038186803b158015612c3257600080fd5b505afa158015612c46573d6000803e3d6000fd5b505050506040513d6020811015612c5c57600080fd5b50514211612ce25773197e90f9fad81970ba7976f33cbd77088e5d7cf76001600160a01b031663c92aecc46040518163ffffffff1660e01b815260040160206040518083038186803b158015612cb157600080fd5b505afa158015612cc5573d6000803e3d6000fd5b505050506040513d6020811015612cdb57600080fd5b5051612cea565b612cea613838565b9050612cf681846139c7565b949350505050565b6000806060876001600160a01b0316896001600160a01b03161415612d4f5760408051602280825261046082019092528891600091906020820161044080388339019050509194509250905061023a565b612d65856502000000000063ffffffff61053116565b1515612d7b86634000000063ffffffff61053116565b15151415613816576001600160a01b03891673e2f2a5c287993345a840db3b0845fbc70f5935a514156132a95760408051633b3fb85360e21b815273e2f2a5c287993345a840db3b0845fbc70f5935a56004820152602481018990526001600160a01b038a1660448201529051600091829173abcc93c3be238884cc3309c19afd128fafc169119163ecfee14c9160648083019286929190829003018186803b158015612e2757600080fd5b505afa158015612e3b573d6000803e3d6000fd5b505050506040513d6000823e601f3d908101601f191682016040526080811015612e6457600080fd5b815160208301805160405192949293830192919084600160201b821115612e8a57600080fd5b908301906020820185811115612e9f57600080fd5b8251600160201b811182820188101715612eb857600080fd5b82525081516020918201929091019080838360005b83811015612ee5578181015183820152602001612ecd565b50505050905090810190601f168015612f125780820380516001836020036101000a031916815260200191505b50604052602001519395509293505083159150612f6290505760408051602280825261046082019092528291620493e091906020820161044080388339019050509196509450925061023a915050565b50506040805163f943b28360e01b815273e2f2a5c287993345a840db3b0845fbc70f5935a560048201529051600091829173abcc93c3be238884cc3309c19afd128fafc169119163f943b2839160248083019286929190829003018186803b158015612fcd57600080fd5b505afa158015612fe1573d6000803e3d6000fd5b505050506040513d6000823e601f3d908101601f19168201604052606081101561300a57600080fd5b815160208301805160405192949293830192919084600160201b82111561303057600080fd5b90830190602082018581111561304557600080fd5b8251600160201b81118282018810171561305e57600080fd5b82525081516020918201929091019080838360005b8381101561308b578181015183820152602001613073565b50505050905090810190601f1680156130b85780820380516001836020036101000a031916815260200191505b506040526020015193955092935050831591506132a690505760408051633b3fb85360e21b815273e2f2a5c287993345a840db3b0845fbc70f5935a56004820152602481018b90526001600160a01b0383166044820152905173abcc93c3be238884cc3309c19afd128fafc169119163ecfee14c916064808301926000929190829003018186803b15801561314c57600080fd5b505afa158015613160573d6000803e3d6000fd5b505050506040513d6000823e601f3d908101601f19168201604052608081101561318957600080fd5b815160208301805160405192949293830192919084600160201b8211156131af57600080fd5b9083019060208201858111156131c457600080fd5b8251600160201b8111828201881017156131dd57600080fd5b82525081516020918201929091019080838360005b8381101561320a5781810151838201526020016131f2565b50505050905090810190601f1680156132375780820380516001836020036101000a031916815260200191505b506040526020015198505050506001600160a01b03828116908c1614905061327357613267818b878b8b8b6139ef565b91965094509250613297565b60408051602280825261046082019092529060208201610440803883390190505092505b5050620493e09091019061023a565b50505b6001600160a01b03881673e2f2a5c287993345a840db3b0845fbc70f5935a51415613816576001600160a01b03891673a0b86991c6218b36c1d19d4a2e9eb0ce3606eb48148061331557506001600160a01b038916736b175474e89094c44da98b954eedeac495271d0f145b8061333c57506001600160a01b03891673dac17f958d2ee523a2206206994597c13d831ec7145b8061335e57506001600160a01b0389166e085d4780b73119b644ae5ecd22b376145b156134f95760408051633975483b60e11b81526001600160a01b038b811660048301528a16602482015260448101899052905173e2f2a5c287993345a840db3b0845fbc70f5935a5916372ea9076916064808301926000929190829003018186803b1580156133cc57600080fd5b505afa1580156133e0573d6000803e3d6000fd5b505050506040513d6000823e601f3d908101601f19168201604052606081101561340957600080fd5b815160208301805160405192949293830192919084600160201b82111561342f57600080fd5b90830190602082018581111561344457600080fd5b8251600160201b81118282018810171561345d57600080fd5b82525081516020918201929091019080838360005b8381101561348a578181015183820152602001613472565b50505050905090810190601f1680156134b75780820380516001836020036101000a031916815260200191505b506040818152602092830151602280845261046084019092529950899650620493e095509093509150820161044080388339019050509194509250905061023a565b604080516312c144ff60e31b81526001600160a01b038a16600482015290518991600091829173abcc93c3be238884cc3309c19afd128fafc169119163960a27f8916024808201928692909190829003018186803b15801561355a57600080fd5b505afa15801561356e573d6000803e3d6000fd5b505050506040513d6000823e601f3d908101601f19168201604052606081101561359757600080fd5b815160208301805160405192949293830192919084600160201b8211156135bd57600080fd5b9083019060208201858111156135d257600080fd5b8251600160201b8111828201881017156135eb57600080fd5b82525081516020918201929091019080838360005b83811015613618578181015183820152602001613600565b50505050905090810190601f1680156136455780820380516001836020036101000a031916815260200191505b506040526020015193955092935050831591506138129050578b6001600160a01b0316816001600160a01b03161461369b5761368f8c828c8c8c61368a89888f613a02565b6139ef565b9197509550935061369f565b8995505b60408051633975483b60e11b81526001600160a01b0383811660048301528516602482015260448101889052905173e2f2a5c287993345a840db3b0845fbc70f5935a5916372ea9076916064808301926000929190829003018186803b15801561370857600080fd5b505afa15801561371c573d6000803e3d6000fd5b505050506040513d6000823e601f3d908101601f19168201604052606081101561374557600080fd5b815160208301805160405192949293830192919084600160201b82111561376b57600080fd5b90830190602082018581111561378057600080fd5b8251600160201b81118282018810171561379957600080fd5b82525081516020918201929091019080838360005b838110156137c65781810151838201526020016137ae565b50505050905090810190601f1680156137f35780820380516001836020036101000a031916815260200191505b5060405260200151995050620493e0909701965061023a945050505050565b5050505b6102338989898989896139ef565b60006108f482670de0b6b3a7640000612be2565b60006139c261394473197e90f9fad81970ba7976f33cbd77088e5d7cf76001600160a01b031663487bf0826040518163ffffffff1660e01b815260040160206040518083038186803b15801561388d57600080fd5b505afa1580156138a1573d6000803e3d6000fd5b505050506040513d60208110156138b757600080fd5b5051604080516320aba08b60e01b8152905173197e90f9fad81970ba7976f33cbd77088e5d7cf7916320aba08b916004808301926020929190829003018186803b15801561390457600080fd5b505afa158015613918573d6000803e3d6000fd5b505050506040513d602081101561392e57600080fd5b505142036b033b2e3c9fd0803ce8000000613aa8565b73197e90f9fad81970ba7976f33cbd77088e5d7cf76001600160a01b031663c92aecc46040518163ffffffff1660e01b815260040160206040518083038186803b15801561399157600080fd5b505afa1580156139a5573d6000803e3d6000fd5b505050506040513d60208110156139bb57600080fd5b50516139c7565b905090565b60006b033b2e3c9fd0803ce80000006139e08484613b67565b816139e757fe5b049392505050565b6000806060610233898989898989613b8b565b6000826001600160a01b0316846001600160a01b03161415613a25575080610ec9565b6000613a4d73eeeeeeeeeeeeeeeeeeeeeeeeeeeeeeeeeeeeeeee85662386f26fc10000613ce2565b90506000613a7773eeeeeeeeeeeeeeeeeeeeeeeeeeeeeeeeeeeeeeee87662386f26fc10000613ce2565b90508015613a9c57613a93816105b4868563ffffffff610a3f16565b92505050610ec9565b50600095945050505050565b6000838015613b4957600184168015613ac357859250613ac7565b8392505b50600283046002850494505b8415613b43578586028687820414613aea57600080fd5b81810181811015613afa57600080fd5b85810497506002870615613b36578785028589820414158915151615613b1f57600080fd5b83810181811015613b2f57600080fd5b8790049550505b5050600285049450613ad3565b50613b5f565b838015613b595760009250613b5d565b8392505b505b509392505050565b6000811580613b8257505080820282828281613b7f57fe5b04145b61052b57600080fd5b6000805460408051638373f26560e01b81526001600160a01b038a81166004830152898116602483015260448201899052606482018890526084820187905260a48201869052915184936060931691638373f2659160c48083019287929190829003018186803b158015613bfe57600080fd5b505afa158015613c12573d6000803e3d6000fd5b505050506040513d6000823e601f3d908101601f191682016040526060811015613c3b57600080fd5b81516020830151604080850180519151939592948301929184600160201b821115613c6557600080fd5b908301906020820185811115613c7a57600080fd5b82518660208202830111600160201b82111715613c9657600080fd5b82525081516020918201928201910280838360005b83811015613cc3578181015183820152602001613cab565b5050505090500160405250505092509250925096509650969350505050565b60408051638373f26560e01b81526001600160a01b03858116600483015284166024820152604481018390526001606482015265c000200000016084820152600060a4820181905291513091638373f2659160c48083019286929190829003018186803b158015613d5257600080fd5b505afa158015613d66573d6000803e3d6000fd5b505050506040513d6000823e601f3d908101601f191682016040526060811015613d8f57600080fd5b81516020830151604080850180519151939592948301929184600160201b821115613db957600080fd5b908301906020820185811115613dce57600080fd5b82518660208202830111600160201b82111715613dea57600080fd5b82525081516020918201928201910280838360005b83811015613e17578181015183820152602001613dff565b505050509190910160405250949998505050505050505050565b6040518060400160405280613e44613ead565b8152602001600081525090565b60405180604001604052806002906020820280388339509192915050565b6040518061010001604052806008906020820280388339509192915050565b604051806101a00160405280600d906020820280388339509192915050565b60405180604001604052806002905b613ec4613eda565b815260200190600190039081613ebc5790505090565b60408051808201909152600080825260208201529056fe536166654d6174683a206d756c7469706c69636174696f6e206f766572666c6f77a265627a7a723158204716f535713065997013e0d1f3b7ef20ce5bc6fab43b755da507f388ba04b93364736f6c63430005110032",
  "source": "pragma solidity ^0.5.0;\n\nimport \"./IOneSplit.sol\";\nimport \"./OneSplitBase.sol\";\nimport \"./OneSplitCompound.sol\";\nimport \"./OneSplitFulcrum.sol\";\nimport \"./OneSplitChai.sol\";\nimport \"./OneSplitBdai.sol\";\nimport \"./OneSplitIearn.sol\";\nimport \"./OneSplitIdle.sol\";\nimport \"./OneSplitAave.sol\";\nimport \"./OneSplitWeth.sol\";\nimport \"./OneSplitMStable.sol\";\nimport \"./OneSplitDMM.sol\";\nimport \"./OneSplitMooniswapPoolToken.sol\";\n\n\ncontract OneSplitViewWrap is\n    OneSplitViewWrapBase,\n    OneSplitMStableView,\n    OneSplitChaiView,\n    OneSplitBdaiView,\n    OneSplitAaveView,\n    OneSplitFulcrumView,\n    OneSplitCompoundView,\n    OneSplitIearnView,\n    OneSplitIdleView,\n    OneSplitWethView,\n    OneSplitDMMView,\n    OneSplitMooniswapTokenView\n{\n    IOneSplitView public oneSplitView;\n\n    constructor(IOneSplitView _oneSplit) public {\n        oneSplitView = _oneSplit;\n    }\n\n    function getExpectedReturn(\n        IERC20 fromToken,\n        IERC20 destToken,\n        uint256 amount,\n        uint256 parts,\n        uint256 flags\n    )\n        public\n        view\n        returns(\n            uint256 returnAmount,\n            uint256[] memory distribution\n        )\n    {\n        (returnAmount, , distribution) = getExpectedReturnWithGas(\n            fromToken,\n            destToken,\n            amount,\n            parts,\n            flags,\n            0\n        );\n    }\n\n    function getExpectedReturnWithGas(\n        IERC20 fromToken,\n        IERC20 destToken,\n        uint256 amount,\n        uint256 parts,\n        uint256 flags, // See constants in IOneSplit.sol\n        uint256 destTokenEthPriceTimesGasPrice\n    )\n        public\n        view\n        returns(\n            uint256 returnAmount,\n            uint256 estimateGasAmount,\n            uint256[] memory distribution\n        )\n    {\n        if (fromToken == destToken) {\n            return (amount, 0, new uint256[](DEXES_COUNT));\n        }\n\n        return super.getExpectedReturnWithGas(\n            fromToken,\n            destToken,\n            amount,\n            parts,\n            flags,\n            destTokenEthPriceTimesGasPrice\n        );\n    }\n\n    function _getExpectedReturnRespectingGasFloor(\n        IERC20 fromToken,\n        IERC20 destToken,\n        uint256 amount,\n        uint256 parts,\n        uint256 flags,\n        uint256 destTokenEthPriceTimesGasPrice\n    )\n        internal\n        view\n        returns(\n            uint256 returnAmount,\n            uint256 estimateGasAmount,\n            uint256[] memory distribution\n        )\n    {\n        return oneSplitView.getExpectedReturnWithGas(\n            fromToken,\n            destToken,\n            amount,\n            parts,\n            flags,\n            destTokenEthPriceTimesGasPrice\n        );\n    }\n}\n\n\ncontract OneSplitWrap is\n    OneSplitBaseWrap,\n    OneSplitMStable,\n    OneSplitChai,\n    OneSplitBdai,\n    OneSplitAave,\n    OneSplitFulcrum,\n    OneSplitCompound,\n    OneSplitIearn,\n    OneSplitIdle,\n    OneSplitWeth,\n    OneSplitDMM,\n    OneSplitMooniswapToken\n{\n    IOneSplitView public oneSplitView;\n    IOneSplit public oneSplit;\n\n    constructor(IOneSplitView _oneSplitView, IOneSplit _oneSplit) public {\n        oneSplitView = _oneSplitView;\n        oneSplit = _oneSplit;\n    }\n\n    function() external payable {\n        // solium-disable-next-line security/no-tx-origin\n        require(msg.sender != tx.origin);\n    }\n\n    function getExpectedReturn(\n        IERC20 fromToken,\n        IERC20 destToken,\n        uint256 amount,\n        uint256 parts,\n        uint256 flags\n    )\n        public\n        view\n        returns(\n            uint256 returnAmount,\n            uint256[] memory distribution\n        )\n    {\n        (returnAmount, , distribution) = getExpectedReturnWithGas(\n            fromToken,\n            destToken,\n            amount,\n            parts,\n            flags,\n            0\n        );\n    }\n\n    function getExpectedReturnWithGas(\n        IERC20 fromToken,\n        IERC20 destToken,\n        uint256 amount,\n        uint256 parts,\n        uint256 flags,\n        uint256 destTokenEthPriceTimesGasPrice\n    )\n        public\n        view\n        returns(\n            uint256 returnAmount,\n            uint256 estimateGasAmount,\n            uint256[] memory distribution\n        )\n    {\n        return oneSplitView.getExpectedReturnWithGas(\n            fromToken,\n            destToken,\n            amount,\n            parts,\n            flags,\n            destTokenEthPriceTimesGasPrice\n        );\n    }\n\n    function getExpectedReturnWithGasMulti(\n        IERC20[] memory tokens,\n        uint256 amount,\n        uint256[] memory parts,\n        uint256[] memory flags,\n        uint256[] memory destTokenEthPriceTimesGasPrices\n    )\n        public\n        view\n        returns(\n            uint256[] memory returnAmounts,\n            uint256 estimateGasAmount,\n            uint256[] memory distribution\n        )\n    {\n        uint256[] memory dist;\n\n        returnAmounts = new uint256[](tokens.length - 1);\n        for (uint i = 1; i < tokens.length; i++) {\n            if (tokens[i - 1] == tokens[i]) {\n                returnAmounts[i - 1] = (i == 1) ? amount : returnAmounts[i - 2];\n                continue;\n            }\n\n            IERC20[] memory _tokens = tokens;\n\n            (\n                returnAmounts[i - 1],\n                amount,\n                dist\n            ) = getExpectedReturnWithGas(\n                _tokens[i - 1],\n                _tokens[i],\n                (i == 1) ? amount : returnAmounts[i - 2],\n                parts[i - 1],\n                flags[i - 1],\n                destTokenEthPriceTimesGasPrices[i - 1]\n            );\n            estimateGasAmount = estimateGasAmount.add(amount);\n\n            if (distribution.length == 0) {\n                distribution = new uint256[](dist.length);\n            }\n            for (uint j = 0; j < distribution.length; j++) {\n                distribution[j] = distribution[j].add(dist[j] << (8 * (i - 1)));\n            }\n        }\n    }\n\n    function swap(\n        IERC20 fromToken,\n        IERC20 destToken,\n        uint256 amount,\n        uint256 minReturn,\n        uint256[] memory distribution,\n        uint256 flags\n    ) public payable returns(uint256 returnAmount) {\n        fromToken.universalTransferFrom(msg.sender, address(this), amount);\n        uint256 confirmed = fromToken.universalBalanceOf(address(this));\n        _swap(fromToken, destToken, confirmed, distribution, flags);\n\n        returnAmount = destToken.universalBalanceOf(address(this));\n        require(returnAmount >= minReturn, \"OneSplit: actual return amount is less than minReturn\");\n        destToken.universalTransfer(msg.sender, returnAmount);\n        fromToken.universalTransfer(msg.sender, fromToken.universalBalanceOf(address(this)));\n    }\n\n    function swapMulti(\n        IERC20[] memory tokens,\n        uint256 amount,\n        uint256 minReturn,\n        uint256[] memory distribution,\n        uint256[] memory flags\n    ) public payable returns(uint256 returnAmount) {\n        tokens[0].universalTransferFrom(msg.sender, address(this), amount);\n\n        returnAmount = tokens[0].universalBalanceOf(address(this));\n        for (uint i = 1; i < tokens.length; i++) {\n            if (tokens[i - 1] == tokens[i]) {\n                continue;\n            }\n\n            uint256[] memory dist = new uint256[](distribution.length);\n            for (uint j = 0; j < distribution.length; j++) {\n                dist[j] = (distribution[j] >> (8 * (i - 1))) & 0xFF;\n            }\n\n            _swap(\n                tokens[i - 1],\n                tokens[i],\n                returnAmount,\n                dist,\n                flags[i - 1]\n            );\n            returnAmount = tokens[i].universalBalanceOf(address(this));\n            tokens[i - 1].universalTransfer(msg.sender, tokens[i - 1].universalBalanceOf(address(this)));\n        }\n\n        require(returnAmount >= minReturn, \"OneSplit: actual return amount is less than minReturn\");\n        tokens[tokens.length - 1].universalTransfer(msg.sender, returnAmount);\n    }\n\n    function _swapFloor(\n        IERC20 fromToken,\n        IERC20 destToken,\n        uint256 amount,\n        uint256[] memory distribution,\n        uint256 flags\n    ) internal {\n        fromToken.universalApprove(address(oneSplit), amount);\n        oneSplit.swap.value(fromToken.isETH() ? amount : 0)(\n            fromToken,\n            destToken,\n            amount,\n            0,\n            distribution,\n            flags\n        );\n    }\n}\n",
  "sourcePath": "/Users/caos/Downloads/1inchProtocol-master/contracts/OneSplit.sol",
  "compiler": {
    "name": "solc",
    "version": "0.5.17+commit.d19bba13.Emscripten.clang"
  },
  "schemaVersion": "3.2.5",
  "updatedAt": "2020-10-25T14:42:35.123Z",
  "devdoc": {
    "methods": {}
  },
  "userdoc": {
    "methods": {}
  }
}